{
  "contractName": "E_voting_system",
  "abi": [
    {
      "inputs": [
        {
          "internalType": "string",
          "name": "email",
          "type": "string"
        },
        {
          "internalType": "string",
          "name": "pass",
          "type": "string"
        },
        {
          "internalType": "uint256",
          "name": "Aadhar",
          "type": "uint256"
        },
        {
          "internalType": "string",
          "name": "area",
          "type": "string"
        }
      ],
      "stateMutability": "nonpayable",
      "type": "constructor"
    },
    {
      "inputs": [
        {
          "internalType": "bytes32",
          "name": "",
          "type": "bytes32"
        },
        {
          "internalType": "uint256",
          "name": "",
          "type": "uint256"
        }
      ],
      "name": "area_proposal",
      "outputs": [
        {
          "internalType": "bytes32",
          "name": "name",
          "type": "bytes32"
        },
        {
          "internalType": "bytes32",
          "name": "party",
          "type": "bytes32"
        },
        {
          "internalType": "uint256",
          "name": "voteCount",
          "type": "uint256"
        }
      ],
      "stateMutability": "view",
      "type": "function",
      "constant": true
    },
    {
      "inputs": [
        {
          "internalType": "string",
          "name": "nme",
          "type": "string"
        },
        {
          "internalType": "string",
          "name": "prty",
          "type": "string"
        },
        {
          "internalType": "string",
          "name": "area",
          "type": "string"
        }
      ],
      "name": "addProposal",
      "outputs": [],
      "stateMutability": "nonpayable",
      "type": "function"
    },
    {
      "inputs": [
        {
          "internalType": "address",
          "name": "voter",
          "type": "address"
        }
      ],
      "name": "giveRightToVote",
      "outputs": [],
      "stateMutability": "nonpayable",
      "type": "function"
    },
    {
      "inputs": [
        {
          "internalType": "string",
          "name": "email",
          "type": "string"
        },
        {
          "internalType": "string",
          "name": "pass",
          "type": "string"
        },
        {
          "internalType": "string",
          "name": "name",
          "type": "string"
        },
        {
          "internalType": "uint256",
          "name": "Aadhar",
          "type": "uint256"
        },
        {
          "internalType": "string",
          "name": "ara",
          "type": "string"
        }
      ],
      "name": "voter_reg",
      "outputs": [],
      "stateMutability": "nonpayable",
      "type": "function"
    },
    {
      "inputs": [
        {
          "internalType": "string",
          "name": "email",
          "type": "string"
        },
        {
          "internalType": "uint256",
          "name": "Aadhar",
          "type": "uint256"
        },
        {
          "internalType": "uint256",
          "name": "proposal",
          "type": "uint256"
        }
      ],
      "name": "vote",
      "outputs": [],
      "stateMutability": "nonpayable",
      "type": "function"
    },
    {
      "inputs": [
        {
          "internalType": "string",
          "name": "area",
          "type": "string"
        }
      ],
      "name": "winnerNME_Vcount",
      "outputs": [
        {
          "components": [
            {
              "internalType": "bytes32",
              "name": "name",
              "type": "bytes32"
            },
            {
              "internalType": "bytes32",
              "name": "party",
              "type": "bytes32"
            },
            {
              "internalType": "uint256",
              "name": "voteCount",
              "type": "uint256"
            }
          ],
          "internalType": "struct E_voting_system.winner_in_area",
          "name": "",
          "type": "tuple"
        }
      ],
      "stateMutability": "view",
      "type": "function",
      "constant": true
    },
    {
      "inputs": [],
      "name": "changeState",
      "outputs": [],
      "stateMutability": "nonpayable",
      "type": "function"
    },
    {
      "inputs": [
        {
          "internalType": "string",
          "name": "newEmail",
          "type": "string"
        },
        {
          "internalType": "string",
          "name": "newPass",
          "type": "string"
        },
        {
          "internalType": "address",
          "name": "newChairperson",
          "type": "address"
        }
      ],
      "name": "changeChairperson",
      "outputs": [],
      "stateMutability": "nonpayable",
      "type": "function"
    },
    {
      "inputs": [],
      "name": "check_state",
      "outputs": [
        {
          "internalType": "enum E_voting_system.voting_state",
          "name": "st",
          "type": "uint8"
        }
      ],
      "stateMutability": "view",
      "type": "function",
      "constant": true
    },
    {
      "inputs": [
        {
          "internalType": "string",
          "name": "area",
          "type": "string"
        }
      ],
      "name": "vote_count",
      "outputs": [
        {
          "internalType": "uint256",
          "name": "",
          "type": "uint256"
        }
      ],
      "stateMutability": "view",
      "type": "function",
      "constant": true
    },
    {
      "inputs": [
        {
          "internalType": "string",
          "name": "area",
          "type": "string"
        }
      ],
      "name": "voter_count",
      "outputs": [
        {
          "internalType": "uint256",
          "name": "",
          "type": "uint256"
        }
      ],
      "stateMutability": "view",
      "type": "function",
      "constant": true
    },
    {
      "inputs": [
        {
          "internalType": "string",
          "name": "email",
          "type": "string"
        },
        {
          "internalType": "string",
          "name": "pass",
          "type": "string"
        }
      ],
      "name": "voterLogin",
      "outputs": [
        {
          "internalType": "bool",
          "name": "status",
          "type": "bool"
        },
        {
          "internalType": "string",
          "name": "name",
          "type": "string"
        },
        {
          "internalType": "uint256",
          "name": "Aadhar",
          "type": "uint256"
        },
        {
          "internalType": "string",
          "name": "area",
          "type": "string"
        }
      ],
      "stateMutability": "view",
      "type": "function",
      "constant": true
    },
    {
      "inputs": [],
      "name": "unauth_voters",
      "outputs": [
        {
          "internalType": "address[]",
          "name": "address_list",
          "type": "address[]"
        },
        {
          "components": [
            {
              "internalType": "bool",
              "name": "is_reg",
              "type": "bool"
            },
            {
              "internalType": "bool",
              "name": "is_authorized",
              "type": "bool"
            },
            {
              "internalType": "bool",
              "name": "voted",
              "type": "bool"
            },
            {
              "internalType": "uint256",
              "name": "vote",
              "type": "uint256"
            },
            {
              "internalType": "bytes32",
              "name": "name",
              "type": "bytes32"
            },
            {
              "internalType": "bytes32",
              "name": "area",
              "type": "bytes32"
            },
            {
              "internalType": "uint256",
              "name": "Aadhar",
              "type": "uint256"
            }
          ],
          "internalType": "struct E_voting_system.Voter[]",
          "name": "voter_detils",
          "type": "tuple[]"
        }
      ],
      "stateMutability": "view",
      "type": "function",
      "constant": true
    },
    {
      "inputs": [
        {
          "internalType": "string",
          "name": "email",
          "type": "string"
        },
        {
          "internalType": "string",
          "name": "pass",
          "type": "string"
        }
      ],
      "name": "chair_login",
      "outputs": [
        {
          "internalType": "bool",
          "name": "",
          "type": "bool"
        }
      ],
      "stateMutability": "view",
      "type": "function",
      "constant": true
    },
    {
      "inputs": [
        {
          "internalType": "string",
          "name": "area",
          "type": "string"
        }
      ],
      "name": "getProposal",
      "outputs": [
        {
          "components": [
            {
              "internalType": "bytes32",
              "name": "name",
              "type": "bytes32"
            },
            {
              "internalType": "bytes32",
              "name": "party",
              "type": "bytes32"
            },
            {
              "internalType": "uint256",
              "name": "voteCount",
              "type": "uint256"
            }
          ],
          "internalType": "struct E_voting_system.Proposal[]",
          "name": "",
          "type": "tuple[]"
        }
      ],
      "stateMutability": "view",
      "type": "function",
      "constant": true
    }
  ],
  "bytecode": "0x60806040523480156200001157600080fd5b5060405162004417380380620044178339818101604052810190620000379190620003a0565b6000815114156200007f576040517f08c379a000000000000000000000000000000000000000000000000000000000815260040162000076906200047e565b60405180910390fd5b336000806101000a81548173ffffffffffffffffffffffffffffffffffffffff021916908373ffffffffffffffffffffffffffffffffffffffff160217905550620000d084620002a260201b60201c565b600281905550620000e783620002a260201b60201c565b600181905550620000f7620002ce565b600181602001901515908115158152505060018160000190151590811515815250506200012a82620002a260201b60201c565b8160a0018181525050828160c001818152505080600560003373ffffffffffffffffffffffffffffffffffffffff1673ffffffffffffffffffffffffffffffffffffffff16815260200190815260200160002060008201518160000160006101000a81548160ff02191690831515021790555060208201518160000160016101000a81548160ff02191690831515021790555060408201518160000160026101000a81548160ff021916908315150217905550606082015181600101556080820151816002015560a0820151816003015560c082015181600401559050506001600760006200021f85620002a260201b60201c565b815260200190815260200160002060008282546200023e919062000510565b925050819055506000600360006101000a81548160ff0219169083600381111562000292577f4e487b7100000000000000000000000000000000000000000000000000000000600052602160045260246000fd5b0217905550505050505062000695565b600080829050600081511415620002c0576000801b915050620002c9565b60208301519150505b919050565b6040518060e00160405280600015158152602001600015158152602001600015158152602001600081526020016000801916815260200160008019168152602001600081525090565b60006200032e6200032884620004c9565b620004a0565b9050828152602081018484840111156200034757600080fd5b6200035484828562000577565b509392505050565b600082601f8301126200036e57600080fd5b81516200038084826020860162000317565b91505092915050565b6000815190506200039a816200067b565b92915050565b60008060008060808587031215620003b757600080fd5b600085015167ffffffffffffffff811115620003d257600080fd5b620003e0878288016200035c565b945050602085015167ffffffffffffffff811115620003fe57600080fd5b6200040c878288016200035c565b93505060406200041f8782880162000389565b925050606085015167ffffffffffffffff8111156200043d57600080fd5b6200044b878288016200035c565b91505092959194509250565b600062000466601883620004ff565b9150620004738262000652565b602082019050919050565b60006020820190508181036000830152620004998162000457565b9050919050565b6000620004ac620004bf565b9050620004ba8282620005ad565b919050565b6000604051905090565b600067ffffffffffffffff821115620004e757620004e662000612565b5b620004f28262000641565b9050602081019050919050565b600082825260208201905092915050565b60006200051d826200056d565b91506200052a836200056d565b9250827fffffffffffffffffffffffffffffffffffffffffffffffffffffffffffffffff03821115620005625762000561620005e3565b5b828201905092915050565b6000819050919050565b60005b83811015620005975780820151818401526020810190506200057a565b83811115620005a7576000848401525b50505050565b620005b88262000641565b810181811067ffffffffffffffff82111715620005da57620005d962000612565b5b80604052505050565b7f4e487b7100000000000000000000000000000000000000000000000000000000600052601160045260246000fd5b7f4e487b7100000000000000000000000000000000000000000000000000000000600052604160045260246000fd5b6000601f19601f8301169050919050565b7f506c65617365207370656369667920796f757220617265610000000000000000600082015250565b62000686816200056d565b81146200069257600080fd5b50565b613d7280620006a56000396000f3fe608060405234801561001057600080fd5b50600436106100f55760003560e01c806399cab9da11610097578063aecb181b11610066578063aecb181b14610273578063b38b25ad14610292578063ceff34c2146102c2578063cf99cd1e146102f2576100f5565b806399cab9da146101ec5780639e7b8d611461021f578063a432547b1461023b578063a8e1599014610257576100f5565b806348a8f010116100d357806348a8f010146101625780635ba1fe6c1461019457806362845caa146101c45780638412e667146101e2576100f5565b80630891d358146100fa57806325d3a09d146101165780634512e90814610146575b600080fd5b610114600480360381019061010f91906129a9565b610322565b005b610130600480360381019061012b919061270f565b610b4e565b60405161013d9190613091565b60405180910390f35b610160600480360381019061015b91906127bc565b610be6565b005b61017c600480360381019061017791906126d3565b610cd7565b60405161018b93929190613121565b60405180910390f35b6101ae60048036038101906101a99190612750565b610d1e565b6040516101bb91906130b3565b60405180910390f35b6101cc610d4a565b6040516101d99190613158565b60405180910390f35b6101ea610d61565b005b61020660048036038101906102019190612750565b610fff565b60405161021694939291906130ce565b60405180910390f35b610239600480360381019061023491906126aa565b6112d4565b005b610255600480360381019061025091906128d2565b611633565b005b610271600480360381019061026c919061283b565b611ba1565b005b61027b611d86565b60405161028992919061305a565b60405180910390f35b6102ac60048036038101906102a7919061270f565b612179565b6040516102b9919061346e565b60405180910390f35b6102dc60048036038101906102d7919061270f565b61219e565b6040516102e99190613453565b60405180910390f35b61030c6004803603810190610307919061270f565b6122b8565b604051610319919061346e565b60405180910390f35b61032b836122dd565b828260026003811115610367577f4e487b7100000000000000000000000000000000000000000000000000000000600052602160045260246000fd5b600360009054906101000a900460ff1660038111156103af577f4e487b7100000000000000000000000000000000000000000000000000000000600052602160045260246000fd5b146103ef576040517f08c379a00000000000000000000000000000000000000000000000000000000081526004016103e690613233565b60405180910390fd5b3373ffffffffffffffffffffffffffffffffffffffff16600c600085815260200190815260200160002060010160009054906101000a900473ffffffffffffffffffffffffffffffffffffffff1673ffffffffffffffffffffffffffffffffffffffff1614806104b75750826002541480156104b657503373ffffffffffffffffffffffffffffffffffffffff1660008054906101000a900473ffffffffffffffffffffffffffffffffffffffff1673ffffffffffffffffffffffffffffffffffffffff16145b5b6104f6576040517f08c379a00000000000000000000000000000000000000000000000000000000081526004016104ed90613373565b60405180910390fd5b6000600560003373ffffffffffffffffffffffffffffffffffffffff1673ffffffffffffffffffffffffffffffffffffffff1681526020019081526020016000206040518060e00160405290816000820160009054906101000a900460ff161515151581526020016000820160019054906101000a900460ff161515151581526020016000820160029054906101000a900460ff1615151515815260200160018201548152602001600282015481526020016003820154815260200160048201548152505090508060000151610601576040517f08c379a00000000000000000000000000000000000000000000000000000000081526004016105f890613273565b60405180910390fd5b8060200151610645576040517f08c379a000000000000000000000000000000000000000000000000000000000815260040161063c906133d3565b60405180910390fd5b80604001511561068a576040517f08c379a000000000000000000000000000000000000000000000000000000000815260040161068190613293565b60405180910390fd5b828160c00151146106d0576040517f08c379a00000000000000000000000000000000000000000000000000000000081526004016106c7906131d3565b60405180910390fd5b6000600660008360a00151815260200190815260200160002080549050141561072e576040517f08c379a000000000000000000000000000000000000000000000000000000000815260040161072590613393565b60405180910390fd5b81600660008360a00151815260200190815260200160002080549050101561078b576040517f08c379a000000000000000000000000000000000000000000000000000000000815260040161078290613313565b60405180910390fd5b6000600560003373ffffffffffffffffffffffffffffffffffffffff1673ffffffffffffffffffffffffffffffffffffffff1681526020019081526020016000206040518060e00160405290816000820160009054906101000a900460ff161515151581526020016000820160019054906101000a900460ff161515151581526020016000820160029054906101000a900460ff1615151515815260200160018201548152602001600282015481526020016003820154815260200160048201548152505090506001816040019015159081151581525050858160600181815250506000600660008360a00151815260200190815260200160002087815481106108be577f4e487b7100000000000000000000000000000000000000000000000000000000600052603260045260246000fd5b90600052602060002090600302016040518060600160405290816000820154815260200160018201548152602001600282015481525050905060018160400181815161090a91906135a6565b9150818152505080600660008460a0015181526020019081526020016000208881548110610961577f4e487b7100000000000000000000000000000000000000000000000000000000600052603260045260246000fd5b906000526020600020906003020160008201518160000155602082015181600101556040820151816002015590505081600560003373ffffffffffffffffffffffffffffffffffffffff1673ffffffffffffffffffffffffffffffffffffffff16815260200190815260200160002060008201518160000160006101000a81548160ff02191690831515021790555060208201518160000160016101000a81548160ff02191690831515021790555060408201518160000160026101000a81548160ff021916908315150217905550606082015181600101556080820151816002015560a0820151816003015560c082015181600401559050506001600860008460a0015181526020019081526020016000206000828254610a8391906135a6565b925050819055506000600960008460a00151815260200190815260200160002060405180606001604052908160008201548152602001600182015481526020016002820154815250509050816040015181604001511015610b425781600001518160000181815250508160400151816040018181525050816020015181602001818152505080600960008560a0015181526020019081526020016000206000820151816000015560208201518160010155604082015181600201559050505b50505050505050505050565b606060066000610b5d846122dd565b8152602001908152602001600020805480602002602001604051908101604052809291908181526020016000905b82821015610bdb5783829060005260206000209060030201604051806060016040529081600082015481526020016001820154815260200160028201548152505081526020019060010190610b8b565b505050509050919050565b60008054906101000a900473ffffffffffffffffffffffffffffffffffffffff1673ffffffffffffffffffffffffffffffffffffffff163373ffffffffffffffffffffffffffffffffffffffff1614610c74576040517f08c379a0000000000000000000000000000000000000000000000000000000008152600401610c6b906132d3565b60405180910390fd5b806000806101000a81548173ffffffffffffffffffffffffffffffffffffffff021916908373ffffffffffffffffffffffffffffffffffffffff160217905550610cbd836122dd565b600281905550610ccc826122dd565b600181905550505050565b60066020528160005260406000208181548110610cf357600080fd5b9060005260206000209060030201600091509150508060000154908060010154908060020154905083565b6000610d29836122dd565b600254148015610d425750610d3d826122dd565b600154145b905092915050565b6000600360009054906101000a900460ff16905090565b60008054906101000a900473ffffffffffffffffffffffffffffffffffffffff1673ffffffffffffffffffffffffffffffffffffffff163373ffffffffffffffffffffffffffffffffffffffff1614610def576040517f08c379a0000000000000000000000000000000000000000000000000000000008152600401610de6906133b3565b60405180910390fd5b60006003811115610e29577f4e487b7100000000000000000000000000000000000000000000000000000000600052602160045260246000fd5b600360009054906101000a900460ff166003811115610e71577f4e487b7100000000000000000000000000000000000000000000000000000000600052602160045260246000fd5b1415610ecd576001600360006101000a81548160ff02191690836003811115610ec3577f4e487b7100000000000000000000000000000000000000000000000000000000600052602160045260246000fd5b0217905550610ffd565b60016003811115610f07577f4e487b7100000000000000000000000000000000000000000000000000000000600052602160045260246000fd5b600360009054906101000a900460ff166003811115610f4f577f4e487b7100000000000000000000000000000000000000000000000000000000600052602160045260246000fd5b1415610fab576002600360006101000a81548160ff02191690836003811115610fa1577f4e487b7100000000000000000000000000000000000000000000000000000000600052602160045260246000fd5b0217905550610ffc565b60038060006101000a81548160ff02191690836003811115610ff6577f4e487b7100000000000000000000000000000000000000000000000000000000600052602160045260246000fd5b02179055505b5b565b60006060600060606000600c6000611016896122dd565b8152602001908152602001600020604051806040016040529081600082015481526020016001820160009054906101000a900473ffffffffffffffffffffffffffffffffffffffff1673ffffffffffffffffffffffffffffffffffffffff1673ffffffffffffffffffffffffffffffffffffffff16815250509050600060056000836020015173ffffffffffffffffffffffffffffffffffffffff1673ffffffffffffffffffffffffffffffffffffffff1681526020019081526020016000206040518060e00160405290816000820160009054906101000a900460ff161515151581526020016000820160019054906101000a900460ff161515151581526020016000820160029054906101000a900460ff161515151581526020016001820154815260200160028201548152602001600382015481526020016004820154815250509050611165876122dd565b826000015114156111a057600161117f8260800151612307565b8260c001516111918460a00151612307565b955095509550955050506112cb565b6111aa8888610d1e565b156112c8576001600560008060009054906101000a900473ffffffffffffffffffffffffffffffffffffffff1673ffffffffffffffffffffffffffffffffffffffff1673ffffffffffffffffffffffffffffffffffffffff16815260200190815260200160002060040154611281600560008060009054906101000a900473ffffffffffffffffffffffffffffffffffffffff1673ffffffffffffffffffffffffffffffffffffffff1673ffffffffffffffffffffffffffffffffffffffff16815260200190815260200160002060030154612307565b6040518060400160405280600d81526020017f41646d696e2061732075736572000000000000000000000000000000000000008152509190955095509550955050506112cb565b50505b92959194509250565b8060008054906101000a900473ffffffffffffffffffffffffffffffffffffffff1673ffffffffffffffffffffffffffffffffffffffff163373ffffffffffffffffffffffffffffffffffffffff1614611363576040517f08c379a000000000000000000000000000000000000000000000000000000000815260040161135a906132f3565b60405180910390fd5b6001600381111561139d577f4e487b7100000000000000000000000000000000000000000000000000000000600052602160045260246000fd5b600360009054906101000a900460ff1660038111156113e5577f4e487b7100000000000000000000000000000000000000000000000000000000600052602160045260246000fd5b14611425576040517f08c379a000000000000000000000000000000000000000000000000000000000815260040161141c90613193565b60405180910390fd5b600560008273ffffffffffffffffffffffffffffffffffffffff1673ffffffffffffffffffffffffffffffffffffffff16815260200190815260200160002060000160009054906101000a900460ff166114b4576040517f08c379a00000000000000000000000000000000000000000000000000000000081526004016114ab906131b3565b60405180910390fd5b600560008273ffffffffffffffffffffffffffffffffffffffff1673ffffffffffffffffffffffffffffffffffffffff16815260200190815260200160002060000160029054906101000a900460ff1615611544576040517f08c379a000000000000000000000000000000000000000000000000000000000815260040161153b90613413565b60405180910390fd5b600560008273ffffffffffffffffffffffffffffffffffffffff1673ffffffffffffffffffffffffffffffffffffffff16815260200190815260200160002060000160019054906101000a900460ff16156115d4576040517f08c379a00000000000000000000000000000000000000000000000000000000081526004016115cb90613253565b60405180910390fd5b6001600560008473ffffffffffffffffffffffffffffffffffffffff1673ffffffffffffffffffffffffffffffffffffffff16815260200190815260200160002060000160016101000a81548160ff0219169083151502179055505050565b600560003373ffffffffffffffffffffffffffffffffffffffff1673ffffffffffffffffffffffffffffffffffffffff1681526020019081526020016000206040518060e00160405290816000820160009054906101000a900460ff161515151581526020016000820160019054906101000a900460ff161515151581526020016000820160029054906101000a900460ff161515151581526020016001820154815260200160028201548152602001600382015481526020016004820154815250506116ff866122dd565b836000600381111561173a577f4e487b7100000000000000000000000000000000000000000000000000000000600052602160045260246000fd5b600360009054906101000a900460ff166003811115611782577f4e487b7100000000000000000000000000000000000000000000000000000000600052602160045260246000fd5b146117c2576040517f08c379a00000000000000000000000000000000000000000000000000000000081526004016117b9906133f3565b60405180910390fd5b600a600083815260200190815260200160002060009054906101000a900460ff1615611823576040517f08c379a000000000000000000000000000000000000000000000000000000000815260040161181a906131f3565b60405180910390fd5b600b600082815260200190815260200160002060009054906101000a900460ff1615611884576040517f08c379a000000000000000000000000000000000000000000000000000000000815260040161187b90613173565b60405180910390fd5b8260000151156118c9576040517f08c379a00000000000000000000000000000000000000000000000000000000081526004016118c090613213565b60405180910390fd5b6040518060e00160405280600115158152602001600015158152602001600015158152602001600081526020016118ff886122dd565b815260200161190d866122dd565b815260200186815250600560003373ffffffffffffffffffffffffffffffffffffffff1673ffffffffffffffffffffffffffffffffffffffff16815260200190815260200160002060008201518160000160006101000a81548160ff02191690831515021790555060208201518160000160016101000a81548160ff02191690831515021790555060408201518160000160026101000a81548160ff021916908315150217905550606082015181600101556080820151816002015560a0820151816003015560c082015181600401559050506001600760006119ef876122dd565b81526020019081526020016000206000828254611a0c91906135a6565b925050819055506000611a1e896122dd565b90506001600a600083815260200190815260200160002060006101000a81548160ff0219169083151502179055506001600b600088815260200190815260200160002060006101000a81548160ff0219169083151502179055506004339080600181540180825580915050600190039060005260206000200160009091909190916101000a81548173ffffffffffffffffffffffffffffffffffffffff021916908373ffffffffffffffffffffffffffffffffffffffff160217905550611ae3612560565b611aec896122dd565b81600001818152505033816020019073ffffffffffffffffffffffffffffffffffffffff16908173ffffffffffffffffffffffffffffffffffffffff168152505080600c60008481526020019081526020016000206000820151816000015560208201518160010160006101000a81548173ffffffffffffffffffffffffffffffffffffffff021916908373ffffffffffffffffffffffffffffffffffffffff16021790555090505050505050505050505050565b60008054906101000a900473ffffffffffffffffffffffffffffffffffffffff1673ffffffffffffffffffffffffffffffffffffffff163373ffffffffffffffffffffffffffffffffffffffff1614611c2f576040517f08c379a0000000000000000000000000000000000000000000000000000000008152600401611c2690613333565b60405180910390fd5b60006003811115611c69577f4e487b7100000000000000000000000000000000000000000000000000000000600052602160045260246000fd5b600360009054906101000a900460ff166003811115611cb1577f4e487b7100000000000000000000000000000000000000000000000000000000600052602160045260246000fd5b14611cf1576040517f08c379a0000000000000000000000000000000000000000000000000000000008152600401611ce890613433565b60405180910390fd5b60066000611cfe836122dd565b81526020019081526020016000206040518060600160405280611d20866122dd565b8152602001611d2e856122dd565b8152602001600081525090806001815401808255809150506001900390600052602060002090600302016000909190919091506000820151816000015560208201518160010155604082015181600201555050505050565b60608060008054906101000a900473ffffffffffffffffffffffffffffffffffffffff1673ffffffffffffffffffffffffffffffffffffffff163373ffffffffffffffffffffffffffffffffffffffff1614611e17576040517f08c379a0000000000000000000000000000000000000000000000000000000008152600401611e0e906132b3565b60405180910390fd5b60048054905067ffffffffffffffff811115611e5c577f4e487b7100000000000000000000000000000000000000000000000000000000600052604160045260246000fd5b604051908082528060200260200182016040528015611e8a5781602001602082028036833780820191505090505b50915060048054905067ffffffffffffffff811115611ed2577f4e487b7100000000000000000000000000000000000000000000000000000000600052604160045260246000fd5b604051908082528060200260200182016040528015611f0b57816020015b611ef8612593565b815260200190600190039081611ef05790505b50905060005b6004805490508110156121745760048181548110611f58577f4e487b7100000000000000000000000000000000000000000000000000000000600052603260045260246000fd5b9060005260206000200160009054906101000a900473ffffffffffffffffffffffffffffffffffffffff16838281518110611fbc577f4e487b7100000000000000000000000000000000000000000000000000000000600052603260045260246000fd5b602002602001019073ffffffffffffffffffffffffffffffffffffffff16908173ffffffffffffffffffffffffffffffffffffffff16815250506005600060048381548110612034577f4e487b7100000000000000000000000000000000000000000000000000000000600052603260045260246000fd5b9060005260206000200160009054906101000a900473ffffffffffffffffffffffffffffffffffffffff1673ffffffffffffffffffffffffffffffffffffffff1673ffffffffffffffffffffffffffffffffffffffff1681526020019081526020016000206040518060e00160405290816000820160009054906101000a900460ff161515151581526020016000820160019054906101000a900460ff161515151581526020016000820160029054906101000a900460ff16151515158152602001600182015481526020016002820154815260200160038201548152602001600482015481525050828281518110612156577f4e487b7100000000000000000000000000000000000000000000000000000000600052603260045260246000fd5b6020026020010181905250808061216c906136f3565b915050611f11565b509091565b600060076000612188846122dd565b8152602001908152602001600020549050919050565b6121a66125dc565b6003808111156121df577f4e487b7100000000000000000000000000000000000000000000000000000000600052602160045260246000fd5b600360009054906101000a900460ff166003811115612227577f4e487b7100000000000000000000000000000000000000000000000000000000600052602160045260246000fd5b14612267576040517f08c379a000000000000000000000000000000000000000000000000000000000815260040161225e90613353565b60405180910390fd5b600060096000612276856122dd565b81526020019081526020016000206040518060600160405290816000820154815260200160018201548152602001600282015481525050905080915050919050565b6000600860006122c7846122dd565b8152602001908152602001600020549050919050565b6000808290506000815114156122f9576000801b915050612302565b60208301519150505b919050565b606060005b60208160ff161080156123845750600060f81b838260ff166020811061235b577f4e487b7100000000000000000000000000000000000000000000000000000000600052603260045260246000fd5b1a60f81b7effffffffffffffffffffffffffffffffffffffffffffffffffffffffffffff191614155b1561239c5780806123949061373c565b91505061230c565b60008160ff1667ffffffffffffffff8111156123e1577f4e487b7100000000000000000000000000000000000000000000000000000000600052604160045260246000fd5b6040519080825280601f01601f1916602001820160405280156124135781602001600182028036833780820191505090505b509050600091505b60208260ff161080156124935750600060f81b848360ff166020811061246a577f4e487b7100000000000000000000000000000000000000000000000000000000600052603260045260246000fd5b1a60f81b7effffffffffffffffffffffffffffffffffffffffffffffffffffffffffffff191614155b1561255657838260ff16602081106124d4577f4e487b7100000000000000000000000000000000000000000000000000000000600052603260045260246000fd5b1a60f81b818360ff1681518110612514577f4e487b7100000000000000000000000000000000000000000000000000000000600052603260045260246000fd5b60200101907effffffffffffffffffffffffffffffffffffffffffffffffffffffffffffff1916908160001a905350818061254e9061373c565b92505061241b565b8092505050919050565b604051806040016040528060008019168152602001600073ffffffffffffffffffffffffffffffffffffffff1681525090565b6040518060e00160405280600015158152602001600015158152602001600015158152602001600081526020016000801916815260200160008019168152602001600081525090565b60405180606001604052806000801916815260200160008019168152602001600081525090565b6000612616612611846134ae565b613489565b90508281526020810184848401111561262e57600080fd5b612639848285613680565b509392505050565b60008135905061265081613cf7565b92915050565b60008135905061266581613d0e565b92915050565b600082601f83011261267c57600080fd5b813561268c848260208601612603565b91505092915050565b6000813590506126a481613d25565b92915050565b6000602082840312156126bc57600080fd5b60006126ca84828501612641565b91505092915050565b600080604083850312156126e657600080fd5b60006126f485828601612656565b925050602061270585828601612695565b9150509250929050565b60006020828403121561272157600080fd5b600082013567ffffffffffffffff81111561273b57600080fd5b6127478482850161266b565b91505092915050565b6000806040838503121561276357600080fd5b600083013567ffffffffffffffff81111561277d57600080fd5b6127898582860161266b565b925050602083013567ffffffffffffffff8111156127a657600080fd5b6127b28582860161266b565b9150509250929050565b6000806000606084860312156127d157600080fd5b600084013567ffffffffffffffff8111156127eb57600080fd5b6127f78682870161266b565b935050602084013567ffffffffffffffff81111561281457600080fd5b6128208682870161266b565b925050604061283186828701612641565b9150509250925092565b60008060006060848603121561285057600080fd5b600084013567ffffffffffffffff81111561286a57600080fd5b6128768682870161266b565b935050602084013567ffffffffffffffff81111561289357600080fd5b61289f8682870161266b565b925050604084013567ffffffffffffffff8111156128bc57600080fd5b6128c88682870161266b565b9150509250925092565b600080600080600060a086880312156128ea57600080fd5b600086013567ffffffffffffffff81111561290457600080fd5b6129108882890161266b565b955050602086013567ffffffffffffffff81111561292d57600080fd5b6129398882890161266b565b945050604086013567ffffffffffffffff81111561295657600080fd5b6129628882890161266b565b935050606061297388828901612695565b925050608086013567ffffffffffffffff81111561299057600080fd5b61299c8882890161266b565b9150509295509295909350565b6000806000606084860312156129be57600080fd5b600084013567ffffffffffffffff8111156129d857600080fd5b6129e48682870161266b565b93505060206129f586828701612695565b9250506040612a0686828701612695565b9150509250925092565b6000612a1c8383612a58565b60208301905092915050565b6000612a348383612f2a565b60608301905092915050565b6000612a4c8383612f6c565b60e08301905092915050565b612a61816135fc565b82525050565b6000612a728261350f565b612a7c8185613562565b9350612a87836134df565b8060005b83811015612ab8578151612a9f8882612a10565b9750612aaa8361353b565b925050600181019050612a8b565b5085935050505092915050565b6000612ad08261351a565b612ada8185613573565b9350612ae5836134ef565b8060005b83811015612b16578151612afd8882612a28565b9750612b0883613548565b925050600181019050612ae9565b5085935050505092915050565b6000612b2e82613525565b612b388185613584565b9350612b43836134ff565b8060005b83811015612b74578151612b5b8882612a40565b9750612b6683613555565b925050600181019050612b47565b5085935050505092915050565b612b8a8161360e565b82525050565b612b998161360e565b82525050565b612ba88161361a565b82525050565b612bb78161361a565b82525050565b612bc68161366e565b82525050565b6000612bd782613530565b612be18185613595565b9350612bf181856020860161368f565b612bfa816137f3565b840191505092915050565b6000612c12602283613595565b9150612c1d82613804565b604082019050919050565b6000612c35602783613595565b9150612c4082613853565b604082019050919050565b6000612c58601983613595565b9150612c63826138a2565b602082019050919050565b6000612c7b603f83613595565b9150612c86826138cb565b604082019050919050565b6000612c9e601c83613595565b9150612ca98261391a565b602082019050919050565b6000612cc1601b83613595565b9150612ccc82613943565b602082019050919050565b6000612ce4601983613595565b9150612cef8261396c565b602082019050919050565b6000612d07601e83613595565b9150612d1282613995565b602082019050919050565b6000612d2a601983613595565b9150612d35826139be565b602082019050919050565b6000612d4d600e83613595565b9150612d58826139e7565b602082019050919050565b6000612d70603283613595565b9150612d7b82613a10565b604082019050919050565b6000612d93602b83613595565b9150612d9e82613a5f565b604082019050919050565b6000612db6602883613595565b9150612dc182613aae565b604082019050919050565b6000612dd9601f83613595565b9150612de482613afd565b602082019050919050565b6000612dfc602783613595565b9150612e0782613b26565b604082019050919050565b6000612e1f601883613595565b9150612e2a82613b75565b602082019050919050565b6000612e42602083613595565b9150612e4d82613b9e565b602082019050919050565b6000612e65601d83613595565b9150612e7082613bc7565b602082019050919050565b6000612e88602583613595565b9150612e9382613bf0565b604082019050919050565b6000612eab601583613595565b9150612eb682613c3f565b602082019050919050565b6000612ece601483613595565b9150612ed982613c68565b602082019050919050565b6000612ef1601883613595565b9150612efc82613c91565b602082019050919050565b6000612f14601483613595565b9150612f1f82613cba565b602082019050919050565b606082016000820151612f406000850182612b9f565b506020820151612f536020850182612b9f565b506040820151612f66604085018261303c565b50505050565b60e082016000820151612f826000850182612b81565b506020820151612f956020850182612b81565b506040820151612fa86040850182612b81565b506060820151612fbb606085018261303c565b506080820151612fce6080850182612b9f565b5060a0820151612fe160a0850182612b9f565b5060c0820151612ff460c085018261303c565b50505050565b6060820160008201516130106000850182612b9f565b5060208201516130236020850182612b9f565b506040820151613036604085018261303c565b50505050565b61304581613657565b82525050565b61305481613657565b82525050565b600060408201905081810360008301526130748185612a67565b905081810360208301526130888184612b23565b90509392505050565b600060208201905081810360008301526130ab8184612ac5565b905092915050565b60006020820190506130c86000830184612b90565b92915050565b60006080820190506130e36000830187612b90565b81810360208301526130f58186612bcc565b9050613104604083018561304b565b81810360608301526131168184612bcc565b905095945050505050565b60006060820190506131366000830186612bae565b6131436020830185612bae565b613150604083018461304b565b949350505050565b600060208201905061316d6000830184612bbd565b92915050565b6000602082019050818103600083015261318c81612c05565b9050919050565b600060208201905081810360008301526131ac81612c28565b9050919050565b600060208201905081810360008301526131cc81612c4b565b9050919050565b600060208201905081810360008301526131ec81612c6e565b9050919050565b6000602082019050818103600083015261320c81612c91565b9050919050565b6000602082019050818103600083015261322c81612cb4565b9050919050565b6000602082019050818103600083015261324c81612cd7565b9050919050565b6000602082019050818103600083015261326c81612cfa565b9050919050565b6000602082019050818103600083015261328c81612d1d565b9050919050565b600060208201905081810360008301526132ac81612d40565b9050919050565b600060208201905081810360008301526132cc81612d63565b9050919050565b600060208201905081810360008301526132ec81612d86565b9050919050565b6000602082019050818103600083015261330c81612da9565b9050919050565b6000602082019050818103600083015261332c81612dcc565b9050919050565b6000602082019050818103600083015261334c81612def565b9050919050565b6000602082019050818103600083015261336c81612e12565b9050919050565b6000602082019050818103600083015261338c81612e35565b9050919050565b600060208201905081810360008301526133ac81612e58565b9050919050565b600060208201905081810360008301526133cc81612e7b565b9050919050565b600060208201905081810360008301526133ec81612e9e565b9050919050565b6000602082019050818103600083015261340c81612ec1565b9050919050565b6000602082019050818103600083015261342c81612ee4565b9050919050565b6000602082019050818103600083015261344c81612f07565b9050919050565b60006060820190506134686000830184612ffa565b92915050565b6000602082019050613483600083018461304b565b92915050565b60006134936134a4565b905061349f82826136c2565b919050565b6000604051905090565b600067ffffffffffffffff8211156134c9576134c86137c4565b5b6134d2826137f3565b9050602081019050919050565b6000819050602082019050919050565b6000819050602082019050919050565b6000819050602082019050919050565b600081519050919050565b600081519050919050565b600081519050919050565b600081519050919050565b6000602082019050919050565b6000602082019050919050565b6000602082019050919050565b600082825260208201905092915050565b600082825260208201905092915050565b600082825260208201905092915050565b600082825260208201905092915050565b60006135b182613657565b91506135bc83613657565b9250827fffffffffffffffffffffffffffffffffffffffffffffffffffffffffffffffff038211156135f1576135f0613766565b5b828201905092915050565b600061360782613637565b9050919050565b60008115159050919050565b6000819050919050565b600081905061363282613ce3565b919050565b600073ffffffffffffffffffffffffffffffffffffffff82169050919050565b6000819050919050565b600060ff82169050919050565b600061367982613624565b9050919050565b82818337600083830152505050565b60005b838110156136ad578082015181840152602081019050613692565b838111156136bc576000848401525b50505050565b6136cb826137f3565b810181811067ffffffffffffffff821117156136ea576136e96137c4565b5b80604052505050565b60006136fe82613657565b91507fffffffffffffffffffffffffffffffffffffffffffffffffffffffffffffffff82141561373157613730613766565b5b600182019050919050565b600061374782613661565b915060ff82141561375b5761375a613766565b5b600182019050919050565b7f4e487b7100000000000000000000000000000000000000000000000000000000600052601160045260246000fd5b7f4e487b7100000000000000000000000000000000000000000000000000000000600052602160045260246000fd5b7f4e487b7100000000000000000000000000000000000000000000000000000000600052604160045260246000fd5b6000601f19601f8301169050919050565b7f54686973204164686172204e756d62657220697320616c72656479207072657360008201527f6574000000000000000000000000000000000000000000000000000000000000602082015250565b7f56616c69646174696f6e2070726f6365737320686173206e6f74206265656e2060008201527f7374617274656400000000000000000000000000000000000000000000000000602082015250565b7f766f746572206973206e6f742072656769737465722079657400000000000000600082015250565b7f416164686172204e756d626572206d697373206d6174636820706c656173652060008201527f656e746572207265676973746572656420416164686172204e756d6265722e00602082015250565b7f5468697320456d61696c20697320616c726564792070726573656e7400000000600082015250565b7f596f75206861766520616c726561647920726567697374657265640000000000600082015250565b7f566f74696e67207374616765206973206e6f7420737461727400000000000000600082015250565b7f54686520766f74657220697320616c7265647920617574686f72697a65640000600082015250565b7f596f7520617265206e6f74207265676973746572207965742e00000000000000600082015250565b7f416c726561647920766f7465642e000000000000000000000000000000000000600082015250565b7f4f6e6c7920436861697220706572736f6e206861766520726967687420746f2060008201527f63616c6c20746869732066756e6374696f6e0000000000000000000000000000602082015250565b7f4f6e6c79204368616972706572736f6e2063616e2061737369676e206e65772060008201527f4368616972706572736f6e000000000000000000000000000000000000000000602082015250565b7f4f6e6c79206368616972706572736f6e2063616e20676976652072696768742060008201527f746f20766f74652e000000000000000000000000000000000000000000000000602082015250565b7f596f7520686176652063686f6f736520776f726e672070726f706f73616c2e00600082015250565b7f4f6e6c79206368616972706572736f6e2072696768747320746f20616464207060008201527f726f706f73616c00000000000000000000000000000000000000000000000000602082015250565b7f566f74696e672070726f63657373206e6f7420636c6f73650000000000000000600082015250565b7f77652063616e6e27742076616c69646174657320796f7572206163636f756e74600082015250565b7f5468657265206973206e6f2070726f706f73616c20746f20766f74652e000000600082015250565b7f4f6e6c79204368616972706572736f6e2063616e206368616e6765207468652060008201527f7374617465000000000000000000000000000000000000000000000000000000602082015250565b7f486173206e6f20726967687420746f20766f74652e0000000000000000000000600082015250565b7f526567697374726174696f6e206973204f766572000000000000000000000000600082015250565b7f54686520766f74657220616c726561647920766f7465642e0000000000000000600082015250565b7f526567697374726174696f6e206973206f766572000000000000000000000000600082015250565b60048110613cf457613cf3613795565b5b50565b613d00816135fc565b8114613d0b57600080fd5b50565b613d178161361a565b8114613d2257600080fd5b50565b613d2e81613657565b8114613d3957600080fd5b5056fea2646970667358221220a8726e78642e249fa32d9cd52d5ca7e01faab22a557465fa930d4b685934ed5364736f6c63430008040033",
  "immutableReferences": {},
  "source": "// SPDX-License-Identifier: MIT\r\npragma solidity >=0.4.22 <0.9.0;\r\npragma experimental ABIEncoderV2;\r\n\r\n/**\r\n * @title Ballot\r\n * @dev Implements voting process along with vote delegation\r\n */\r\ncontract E_voting_system {\r\n    //variable declaration\r\n\r\n    struct Voter_login_details {\r\n        bytes32 pass;\r\n        address voter;\r\n    }\r\n\r\n    struct Voter {\r\n        bool is_reg;\r\n        bool is_authorized; // is voter is authorize to vote\r\n        bool voted; // if true, that person already voted\r\n        uint256 vote; // index of the voted proposal\r\n        bytes32 name;\r\n        bytes32 area; // area of voter\r\n        uint256 Aadhar; //Aadhar card number\r\n    }\r\n\r\n    struct Proposal {\r\n        // If you can limit the length to a certain number of bytes,\r\n        // always use one of bytes1 to bytes32 because they are much cheaper\r\n        bytes32 name; // short name (up to 32 bytes)\r\n        bytes32 party;\r\n        uint256 voteCount; // number of accumulated votes\r\n    }\r\n    struct winner_in_area {\r\n        bytes32 name;\r\n        bytes32 party;\r\n        uint256 voteCount;\r\n    }\r\n\r\n    address private chairperson;\r\n    bytes32 private chair_pass;\r\n    bytes32 private chair_email;\r\n\r\n    enum voting_state {\r\n        reg,\r\n        validation,\r\n        voting,\r\n        close\r\n    }\r\n\r\n    voting_state private state;\r\n    address[] voter_address;\r\n    mapping(address => Voter) private voters;\r\n    mapping(bytes32 => Proposal[]) public area_proposal;\r\n    mapping(bytes32 => uint256) private reg_voter_count_per_area;\r\n    mapping(bytes32 => uint256) private vote_count_per_area;\r\n    mapping(bytes32 => winner_in_area) private winner_per_area;\r\n    mapping(bytes32 => bool) private email_validation;\r\n    mapping(uint256 => bool) private Aadhar_validation;\r\n    mapping(bytes32 => Voter_login_details) private login_details;\r\n\r\n    /**\r\n     * @dev constructor create an owner an set the right to vote for the owner.\r\n     */\r\n    constructor(\r\n        string memory email,\r\n        string memory pass,\r\n        uint256 Aadhar,\r\n        string memory area\r\n    ) {\r\n        require(bytes(area).length != 0, \"Please specify your area\");\r\n        chairperson = msg.sender;\r\n        chair_email = stringToBytes32(email);\r\n        chair_pass = stringToBytes32(pass);\r\n        Voter memory sender;\r\n        sender.is_authorized = true;\r\n        sender.is_reg = true;\r\n        sender.area = stringToBytes32(area);\r\n        sender.Aadhar = Aadhar;\r\n        voters[msg.sender] = sender;\r\n        reg_voter_count_per_area[stringToBytes32(area)] += 1;\r\n        state = voting_state.reg;\r\n    }\r\n\r\n    // Modifiers\r\n\r\n    modifier Only_chairperson() {\r\n        require(\r\n            msg.sender == chairperson,\r\n            \"Only chairperson rights to add proposal\"\r\n        );\r\n        require(state == voting_state.reg, \"Registration is over\");\r\n        _;\r\n    }\r\n\r\n    modifier check_for_right(address voter) {\r\n        require(\r\n            msg.sender == chairperson,\r\n            \"Only chairperson can give right to vote.\"\r\n        );\r\n        require(\r\n            state == voting_state.validation,\r\n            \"Validation process has not been started\"\r\n        );\r\n        require(voters[voter].is_reg, \"voter is not register yet\");\r\n        require(!voters[voter].voted, \"The voter already voted.\");\r\n        require(!voters[voter].is_authorized,\"The voter is alredy authorized\");\r\n        _;\r\n    }\r\n\r\n    modifier check_status(\r\n        Voter memory voter,\r\n        bytes32 email,\r\n        uint256 Aadhar\r\n    ) {\r\n        require(state == voting_state.reg, \"Registration is Over\");\r\n        require(!email_validation[email], \"This Email is alredy present\");\r\n        require(\r\n            !Aadhar_validation[Aadhar],\r\n            \"This Adhar Number is alredy preset\"\r\n        );\r\n        require(!voter.is_reg, \"You have already registered\");\r\n        _;\r\n    }\r\n\r\n    modifier Only_auth_non_voted_voters(\r\n        bytes32 email,\r\n        uint256 Aadhar,\r\n        uint256 proposal\r\n    ) {\r\n        require(state == voting_state.voting, \"Voting stage is not start\");\r\n        require(\r\n            ((login_details[email].voter == msg.sender) ||\r\n                (chair_email == email && chairperson == msg.sender)),\r\n            \"we cann't validates your account\"\r\n        );\r\n        Voter memory sender = voters[msg.sender];\r\n        require(sender.is_reg, \"You are not register yet.\");\r\n        require(sender.is_authorized, \"Has no right to vote.\");\r\n        require(!sender.voted, \"Already voted.\");\r\n        require(\r\n            sender.Aadhar == Aadhar,\r\n            \"Aadhar Number miss match please enter registered Aadhar Number.\"\r\n        );\r\n        require(\r\n            area_proposal[sender.area].length != 0,\r\n            \"There is no proposal to vote.\"\r\n        );\r\n        require(\r\n            area_proposal[sender.area].length >= proposal,\r\n            \"You have choose worng proposal.\"\r\n        );\r\n        _;\r\n    }\r\n\r\n    //event\r\n    // event state_change(voting_state state);\r\n\r\n    // Functions\r\n\r\n    // This function is used by the chairperson only to add the Proposal\r\n    function addProposal(\r\n        string memory nme,\r\n        string memory prty,\r\n        string memory area\r\n    ) public Only_chairperson {\r\n        area_proposal[stringToBytes32(area)].push(\r\n            Proposal({\r\n                name: stringToBytes32(nme),\r\n                party: stringToBytes32(prty),\r\n                voteCount: 0\r\n            })\r\n        );\r\n    }\r\n\r\n    /**\r\n     * @dev Give 'voter' the right to vote on this ballot. May only be called by 'chairperson'.\r\n     * @param voter address of voter\r\n     */\r\n\r\n    function giveRightToVote(address voter) public check_for_right(voter) {\r\n        voters[voter].is_authorized = true;\r\n    }\r\n\r\n    // This function is used by the voter to register yourself\r\n    function voter_reg(\r\n        string memory email,\r\n        string memory pass,\r\n        string memory name,\r\n        uint256 Aadhar,\r\n        string memory ara\r\n    ) public check_status(voters[msg.sender], stringToBytes32(email), Aadhar) {\r\n        voters[msg.sender] = Voter({\r\n            is_reg: true,\r\n            is_authorized: false,\r\n            voted: false,\r\n            vote: 0,\r\n            area: stringToBytes32(ara),\r\n            Aadhar: Aadhar,\r\n            name : stringToBytes32(name)\r\n        });\r\n        reg_voter_count_per_area[stringToBytes32(ara)] += 1;\r\n        bytes32 em = stringToBytes32(email);\r\n        email_validation[em] = true;\r\n        Aadhar_validation[Aadhar] = true;\r\n        voter_address.push(msg.sender);\r\n        Voter_login_details memory vrdt;\r\n        vrdt.pass = stringToBytes32(pass);\r\n        vrdt.voter = msg.sender;\r\n        login_details[em] = vrdt;\r\n    }\r\n\r\n    /**\r\n     * @dev Give your vote (including votes delegated to you) to proposal 'proposals[proposal].name'.\r\n     * @param proposal index of proposal in the proposals array\r\n     */\r\n\r\n    function vote(\r\n        string memory email,\r\n        uint256 Aadhar,\r\n        uint256 proposal\r\n    )\r\n        public\r\n        Only_auth_non_voted_voters(stringToBytes32(email), Aadhar, proposal)\r\n    {\r\n        Voter memory sender = voters[msg.sender];\r\n        sender.voted = true;\r\n        sender.vote = proposal;\r\n        Proposal memory p = area_proposal[sender.area][proposal];\r\n        p.voteCount += 1;\r\n        area_proposal[sender.area][proposal] = p;\r\n        voters[msg.sender] = sender;\r\n        vote_count_per_area[sender.area] += 1;\r\n        winner_in_area memory w = winner_per_area[sender.area];\r\n        if (w.voteCount < p.voteCount) {\r\n            w.name = p.name;\r\n            w.voteCount = p.voteCount;\r\n            w.party = p.party;\r\n            winner_per_area[sender.area] = w;\r\n        }\r\n    }\r\n\r\n    /**\r\n     * @return winnerName_ the name of the winner\r\n     */\r\n    function winnerNME_Vcount(string memory area)\r\n        public\r\n        view\r\n        returns (winner_in_area memory)\r\n    {\r\n        require(state == voting_state.close, \"Voting process not close\");\r\n        winner_in_area memory w = winner_per_area[stringToBytes32(area)];\r\n        return (w);\r\n    }\r\n\r\n    function changeState() public {\r\n        require(\r\n            msg.sender == chairperson,\r\n            \"Only Chairperson can change the state\"\r\n        );\r\n        if (state == voting_state.reg) {\r\n            state = voting_state.validation;\r\n        } else if (state == voting_state.validation) {\r\n            state = voting_state.voting;\r\n        } else {\r\n            state = voting_state.close;\r\n        }\r\n    }\r\n\r\n    function changeChairperson(\r\n        string memory newEmail,\r\n        string memory newPass,\r\n        address newChairperson\r\n    ) public {\r\n        require(\r\n            msg.sender == chairperson,\r\n            \"Only Chairperson can assign new Chairperson\"\r\n        );\r\n        chairperson = newChairperson;\r\n        chair_email = stringToBytes32(newEmail);\r\n        chair_pass = stringToBytes32(newPass);\r\n    }\r\n\r\n    function check_state() public view returns (voting_state st) {\r\n        return state;\r\n    }\r\n\r\n    function vote_count(string memory area) public view returns (uint256) {\r\n        return vote_count_per_area[stringToBytes32(area)];\r\n    }\r\n\r\n    function voter_count(string memory area) public view returns (uint256) {\r\n        return reg_voter_count_per_area[stringToBytes32(area)];\r\n    }\r\n\r\n    function voterLogin(string memory email, string memory pass)\r\n        public\r\n        view\r\n        returns (\r\n            bool status,\r\n            string memory name,\r\n            uint256 Aadhar,\r\n            string memory area\r\n        )\r\n    {\r\n        Voter_login_details memory v_details = login_details[\r\n            stringToBytes32(email)\r\n        ];\r\n        Voter memory voter = voters[v_details.voter];\r\n        if (v_details.pass == stringToBytes32(pass))\r\n            return (true,bytes32ToString(voter.name) , voter.Aadhar, bytes32ToString(voter.area));\r\n        else if(chair_login(email,pass)){\r\n            return (true,\"Admin as user\",voters[chairperson].Aadhar,bytes32ToString(voters[chairperson].area));\r\n        }\r\n        else(false,\"\",0,\"\");\r\n    }\r\n\r\n    function unauth_voters() public view returns (address[] memory address_list,Voter[] memory voter_detils) {\r\n        require(\r\n            msg.sender == chairperson,\r\n            \"Only Chair person have right to call this function\"\r\n        );\r\n        address_list = new address[](voter_address.length);\r\n        voter_detils = new Voter[](voter_address.length);\r\n        for(uint i=0;i<voter_address.length;i++){\r\n            address_list[i] = voter_address[i];\r\n            voter_detils[i] = voters[voter_address[i]];\r\n        }\r\n    }\r\n\r\n    function chair_login(string memory email, string memory pass)\r\n        public\r\n        view\r\n        returns (bool)\r\n    {\r\n        return\r\n            (chair_email == stringToBytes32(email) &&\r\n            chair_pass == stringToBytes32(pass));\r\n    }\r\n\r\n    function getProposal(string memory area)\r\n        public\r\n        view\r\n        returns (Proposal[] memory)\r\n    {\r\n        return area_proposal[stringToBytes32(area)];\r\n    }\r\n\r\n    function stringToBytes32(string memory source)\r\n        private\r\n        pure\r\n        returns (bytes32 result)\r\n    {\r\n        bytes memory tempEmptyStringTest = bytes(source);\r\n        if (tempEmptyStringTest.length == 0) {\r\n            return 0x0;\r\n        }\r\n\r\n        assembly {\r\n            result := mload(add(source, 32))\r\n        }\r\n    }\r\n\r\n    function bytes32ToString(bytes32 _bytes32)\r\n        private\r\n        pure\r\n        returns (string memory)\r\n    {\r\n        uint8 i = 0;\r\n        while (i < 32 && _bytes32[i] != 0) {\r\n            i++;\r\n        }\r\n        bytes memory bytesArray = new bytes(i);\r\n        for (i = 0; i < 32 && _bytes32[i] != 0; i++) {\r\n            bytesArray[i] = _bytes32[i];\r\n        }\r\n        return string(bytesArray);\r\n    }\r\n}",
  "sourcePath": "C:/Users/Bismay Kumar Rana/Desktop/Block chain dev/contracts/E_voting_system.sol",
  "compiler": {
    "name": "solc",
    "version": "0.8.4+commit.c7e474f2.Emscripten.clang"
  },
  "schemaVersion": "3.3.4",
  "updatedAt": "2022-06-30T17:51:40.277Z",
  "networkType": "ethereum",
  "devdoc": {
    "details": "Implements voting process along with vote delegation",
    "kind": "dev",
    "methods": {
      "constructor": {
        "details": "constructor create an owner an set the right to vote for the owner."
      },
      "giveRightToVote(address)": {
        "details": "Give 'voter' the right to vote on this ballot. May only be called by 'chairperson'.",
        "params": {
          "voter": "address of voter"
        }
      },
      "vote(string,uint256,uint256)": {
        "details": "Give your vote (including votes delegated to you) to proposal 'proposals[proposal].name'.",
        "params": {
          "proposal": "index of proposal in the proposals array"
        }
      },
      "winnerNME_Vcount(string)": {
        "returns": {
          "_0": "winnerName_ the name of the winner"
        }
      }
    },
    "title": "Ballot",
    "version": 1
  },
  "userdoc": {
    "kind": "user",
    "methods": {},
    "version": 1
  }
}