{
  "contractName": "E_voting_system",
  "abi": [
    {
      "inputs": [
        {
          "internalType": "string",
          "name": "email",
          "type": "string"
        },
        {
          "internalType": "string",
          "name": "pass",
          "type": "string"
        },
        {
          "internalType": "uint256",
          "name": "Aadhar",
          "type": "uint256"
        },
        {
          "internalType": "string",
          "name": "area",
          "type": "string"
        }
      ],
      "stateMutability": "nonpayable",
      "type": "constructor"
    },
    {
      "inputs": [
        {
          "internalType": "bytes32",
          "name": "",
          "type": "bytes32"
        },
        {
          "internalType": "uint256",
          "name": "",
          "type": "uint256"
        }
      ],
      "name": "area_proposal",
      "outputs": [
        {
          "internalType": "bytes32",
          "name": "name",
          "type": "bytes32"
        },
        {
          "internalType": "bytes32",
          "name": "party",
          "type": "bytes32"
        },
        {
          "internalType": "uint256",
          "name": "voteCount",
          "type": "uint256"
        }
      ],
      "stateMutability": "view",
      "type": "function",
      "constant": true
    },
    {
      "inputs": [
        {
          "internalType": "string",
          "name": "nme",
          "type": "string"
        },
        {
          "internalType": "string",
          "name": "prty",
          "type": "string"
        },
        {
          "internalType": "string",
          "name": "area",
          "type": "string"
        }
      ],
      "name": "addProposal",
      "outputs": [],
      "stateMutability": "nonpayable",
      "type": "function"
    },
    {
      "inputs": [
        {
          "internalType": "address",
          "name": "voter",
          "type": "address"
        }
      ],
      "name": "giveRightToVote",
      "outputs": [],
      "stateMutability": "nonpayable",
      "type": "function"
    },
    {
      "inputs": [
        {
          "internalType": "string",
          "name": "email",
          "type": "string"
        },
        {
          "internalType": "string",
          "name": "pass",
          "type": "string"
        },
        {
          "internalType": "string",
          "name": "name",
          "type": "string"
        },
        {
          "internalType": "uint256",
          "name": "Aadhar",
          "type": "uint256"
        },
        {
          "internalType": "string",
          "name": "ara",
          "type": "string"
        }
      ],
      "name": "voter_reg",
      "outputs": [],
      "stateMutability": "nonpayable",
      "type": "function"
    },
    {
      "inputs": [
        {
          "internalType": "string",
          "name": "email",
          "type": "string"
        },
        {
          "internalType": "uint256",
          "name": "Aadhar",
          "type": "uint256"
        },
        {
          "internalType": "uint256",
          "name": "proposal",
          "type": "uint256"
        }
      ],
      "name": "vote",
      "outputs": [],
      "stateMutability": "nonpayable",
      "type": "function"
    },
    {
      "inputs": [
        {
          "internalType": "string",
          "name": "area",
          "type": "string"
        }
      ],
      "name": "winnerNME_Vcount",
      "outputs": [
        {
          "components": [
            {
              "internalType": "bytes32",
              "name": "name",
              "type": "bytes32"
            },
            {
              "internalType": "bytes32",
              "name": "party",
              "type": "bytes32"
            },
            {
              "internalType": "uint256",
              "name": "voteCount",
              "type": "uint256"
            }
          ],
          "internalType": "struct E_voting_system.winner_in_area",
          "name": "",
          "type": "tuple"
        }
      ],
      "stateMutability": "view",
      "type": "function",
      "constant": true
    },
    {
      "inputs": [],
      "name": "changeState",
      "outputs": [],
      "stateMutability": "nonpayable",
      "type": "function"
    },
    {
      "inputs": [
        {
          "internalType": "string",
          "name": "newEmail",
          "type": "string"
        },
        {
          "internalType": "string",
          "name": "newPass",
          "type": "string"
        },
        {
          "internalType": "address",
          "name": "newChairperson",
          "type": "address"
        }
      ],
      "name": "changeChairperson",
      "outputs": [],
      "stateMutability": "nonpayable",
      "type": "function"
    },
    {
      "inputs": [],
      "name": "check_state",
      "outputs": [
        {
          "internalType": "enum E_voting_system.voting_state",
          "name": "st",
          "type": "uint8"
        }
      ],
      "stateMutability": "view",
      "type": "function",
      "constant": true
    },
    {
      "inputs": [
        {
          "internalType": "string",
          "name": "area",
          "type": "string"
        }
      ],
      "name": "vote_count",
      "outputs": [
        {
          "internalType": "uint256",
          "name": "",
          "type": "uint256"
        }
      ],
      "stateMutability": "view",
      "type": "function",
      "constant": true
    },
    {
      "inputs": [
        {
          "internalType": "string",
          "name": "area",
          "type": "string"
        }
      ],
      "name": "voter_count",
      "outputs": [
        {
          "internalType": "uint256",
          "name": "",
          "type": "uint256"
        }
      ],
      "stateMutability": "view",
      "type": "function",
      "constant": true
    },
    {
      "inputs": [
        {
          "internalType": "string",
          "name": "email",
          "type": "string"
        },
        {
          "internalType": "string",
          "name": "pass",
          "type": "string"
        }
      ],
      "name": "voterLogin",
      "outputs": [
        {
          "internalType": "bool",
          "name": "status",
          "type": "bool"
        },
        {
          "internalType": "uint256",
          "name": "Aadhar",
          "type": "uint256"
        },
        {
          "internalType": "string",
          "name": "area",
          "type": "string"
        }
      ],
      "stateMutability": "view",
      "type": "function",
      "constant": true
    },
    {
      "inputs": [],
      "name": "unauth_voters",
      "outputs": [
        {
          "internalType": "address[]",
          "name": "address_list",
          "type": "address[]"
        },
        {
          "components": [
            {
              "internalType": "bool",
              "name": "is_reg",
              "type": "bool"
            },
            {
              "internalType": "bool",
              "name": "is_authorized",
              "type": "bool"
            },
            {
              "internalType": "bool",
              "name": "voted",
              "type": "bool"
            },
            {
              "internalType": "uint256",
              "name": "vote",
              "type": "uint256"
            },
            {
              "internalType": "bytes32",
              "name": "name",
              "type": "bytes32"
            },
            {
              "internalType": "bytes32",
              "name": "area",
              "type": "bytes32"
            },
            {
              "internalType": "uint256",
              "name": "Aadhar",
              "type": "uint256"
            }
          ],
          "internalType": "struct E_voting_system.Voter[]",
          "name": "voter_detils",
          "type": "tuple[]"
        }
      ],
      "stateMutability": "view",
      "type": "function",
      "constant": true
    },
    {
      "inputs": [
        {
          "internalType": "string",
          "name": "email",
          "type": "string"
        },
        {
          "internalType": "string",
          "name": "pass",
          "type": "string"
        }
      ],
      "name": "chair_login",
      "outputs": [
        {
          "internalType": "bool",
          "name": "",
          "type": "bool"
        }
      ],
      "stateMutability": "view",
      "type": "function",
      "constant": true
    },
    {
      "inputs": [
        {
          "internalType": "string",
          "name": "area",
          "type": "string"
        }
      ],
      "name": "getProposal",
      "outputs": [
        {
          "components": [
            {
              "internalType": "bytes32",
              "name": "name",
              "type": "bytes32"
            },
            {
              "internalType": "bytes32",
              "name": "party",
              "type": "bytes32"
            },
            {
              "internalType": "uint256",
              "name": "voteCount",
              "type": "uint256"
            }
          ],
          "internalType": "struct E_voting_system.Proposal[]",
          "name": "",
          "type": "tuple[]"
        }
      ],
      "stateMutability": "view",
      "type": "function",
      "constant": true
    }
  ],
  "bytecode": "0x60806040523480156200001157600080fd5b50604051620042de380380620042de8339818101604052810190620000379190620003a0565b6000815114156200007f576040517f08c379a000000000000000000000000000000000000000000000000000000000815260040162000076906200047e565b60405180910390fd5b336000806101000a81548173ffffffffffffffffffffffffffffffffffffffff021916908373ffffffffffffffffffffffffffffffffffffffff160217905550620000d084620002a260201b60201c565b600281905550620000e783620002a260201b60201c565b600181905550620000f7620002ce565b600181602001901515908115158152505060018160000190151590811515815250506200012a82620002a260201b60201c565b8160a0018181525050828160c001818152505080600560003373ffffffffffffffffffffffffffffffffffffffff1673ffffffffffffffffffffffffffffffffffffffff16815260200190815260200160002060008201518160000160006101000a81548160ff02191690831515021790555060208201518160000160016101000a81548160ff02191690831515021790555060408201518160000160026101000a81548160ff021916908315150217905550606082015181600101556080820151816002015560a0820151816003015560c082015181600401559050506001600760006200021f85620002a260201b60201c565b815260200190815260200160002060008282546200023e919062000510565b925050819055506000600360006101000a81548160ff0219169083600381111562000292577f4e487b7100000000000000000000000000000000000000000000000000000000600052602160045260246000fd5b0217905550505050505062000695565b600080829050600081511415620002c0576000801b915050620002c9565b60208301519150505b919050565b6040518060e00160405280600015158152602001600015158152602001600015158152602001600081526020016000801916815260200160008019168152602001600081525090565b60006200032e6200032884620004c9565b620004a0565b9050828152602081018484840111156200034757600080fd5b6200035484828562000577565b509392505050565b600082601f8301126200036e57600080fd5b81516200038084826020860162000317565b91505092915050565b6000815190506200039a816200067b565b92915050565b60008060008060808587031215620003b757600080fd5b600085015167ffffffffffffffff811115620003d257600080fd5b620003e0878288016200035c565b945050602085015167ffffffffffffffff811115620003fe57600080fd5b6200040c878288016200035c565b93505060406200041f8782880162000389565b925050606085015167ffffffffffffffff8111156200043d57600080fd5b6200044b878288016200035c565b91505092959194509250565b600062000466601883620004ff565b9150620004738262000652565b602082019050919050565b60006020820190508181036000830152620004998162000457565b9050919050565b6000620004ac620004bf565b9050620004ba8282620005ad565b919050565b6000604051905090565b600067ffffffffffffffff821115620004e757620004e662000612565b5b620004f28262000641565b9050602081019050919050565b600082825260208201905092915050565b60006200051d826200056d565b91506200052a836200056d565b9250827fffffffffffffffffffffffffffffffffffffffffffffffffffffffffffffffff03821115620005625762000561620005e3565b5b828201905092915050565b6000819050919050565b60005b83811015620005975780820151818401526020810190506200057a565b83811115620005a7576000848401525b50505050565b620005b88262000641565b810181811067ffffffffffffffff82111715620005da57620005d962000612565b5b80604052505050565b7f4e487b7100000000000000000000000000000000000000000000000000000000600052601160045260246000fd5b7f4e487b7100000000000000000000000000000000000000000000000000000000600052604160045260246000fd5b6000601f19601f8301169050919050565b7f506c65617365207370656369667920796f757220617265610000000000000000600082015250565b62000686816200056d565b81146200069257600080fd5b50565b613c3980620006a56000396000f3fe608060405234801561001057600080fd5b50600436106100f55760003560e01c806399cab9da11610097578063aecb181b11610066578063aecb181b14610272578063b38b25ad14610291578063ceff34c2146102c1578063cf99cd1e146102f1576100f5565b806399cab9da146101ec5780639e7b8d611461021e578063a432547b1461023a578063a8e1599014610256576100f5565b806348a8f010116100d357806348a8f010146101625780635ba1fe6c1461019457806362845caa146101c45780638412e667146101e2576100f5565b80630891d358146100fa57806325d3a09d146101165780634512e90814610146575b600080fd5b610114600480360381019061010f9190612885565b610321565b005b610130600480360381019061012b91906125eb565b610b4d565b60405161013d9190612f6d565b60405180910390f35b610160600480360381019061015b9190612698565b610be5565b005b61017c600480360381019061017791906125af565b610cd6565b60405161018b93929190612fe8565b60405180910390f35b6101ae60048036038101906101a9919061262c565b610d1d565b6040516101bb9190612f8f565b60405180910390f35b6101cc610d49565b6040516101d9919061301f565b60405180910390f35b6101ea610d60565b005b6102066004803603810190610201919061262c565b610ffe565b60405161021593929190612faa565b60405180910390f35b61023860048036038101906102339190612586565b6111b0565b005b610254600480360381019061024f91906127ae565b61150f565b005b610270600480360381019061026b9190612717565b611a7d565b005b61027a611c62565b604051610288929190612f36565b60405180910390f35b6102ab60048036038101906102a691906125eb565b612055565b6040516102b89190613335565b60405180910390f35b6102db60048036038101906102d691906125eb565b61207a565b6040516102e8919061331a565b60405180910390f35b61030b600480360381019061030691906125eb565b612194565b6040516103189190613335565b60405180910390f35b61032a836121b9565b828260026003811115610366577f4e487b7100000000000000000000000000000000000000000000000000000000600052602160045260246000fd5b600360009054906101000a900460ff1660038111156103ae577f4e487b7100000000000000000000000000000000000000000000000000000000600052602160045260246000fd5b146103ee576040517f08c379a00000000000000000000000000000000000000000000000000000000081526004016103e5906130fa565b60405180910390fd5b3373ffffffffffffffffffffffffffffffffffffffff16600c600085815260200190815260200160002060010160009054906101000a900473ffffffffffffffffffffffffffffffffffffffff1673ffffffffffffffffffffffffffffffffffffffff1614806104b65750826002541480156104b557503373ffffffffffffffffffffffffffffffffffffffff1660008054906101000a900473ffffffffffffffffffffffffffffffffffffffff1673ffffffffffffffffffffffffffffffffffffffff16145b5b6104f5576040517f08c379a00000000000000000000000000000000000000000000000000000000081526004016104ec9061323a565b60405180910390fd5b6000600560003373ffffffffffffffffffffffffffffffffffffffff1673ffffffffffffffffffffffffffffffffffffffff1681526020019081526020016000206040518060e00160405290816000820160009054906101000a900460ff161515151581526020016000820160019054906101000a900460ff161515151581526020016000820160029054906101000a900460ff1615151515815260200160018201548152602001600282015481526020016003820154815260200160048201548152505090508060000151610600576040517f08c379a00000000000000000000000000000000000000000000000000000000081526004016105f79061313a565b60405180910390fd5b8060200151610644576040517f08c379a000000000000000000000000000000000000000000000000000000000815260040161063b9061329a565b60405180910390fd5b806040015115610689576040517f08c379a00000000000000000000000000000000000000000000000000000000081526004016106809061315a565b60405180910390fd5b828160c00151146106cf576040517f08c379a00000000000000000000000000000000000000000000000000000000081526004016106c69061309a565b60405180910390fd5b6000600660008360a00151815260200190815260200160002080549050141561072d576040517f08c379a00000000000000000000000000000000000000000000000000000000081526004016107249061325a565b60405180910390fd5b81600660008360a00151815260200190815260200160002080549050101561078a576040517f08c379a0000000000000000000000000000000000000000000000000000000008152600401610781906131da565b60405180910390fd5b6000600560003373ffffffffffffffffffffffffffffffffffffffff1673ffffffffffffffffffffffffffffffffffffffff1681526020019081526020016000206040518060e00160405290816000820160009054906101000a900460ff161515151581526020016000820160019054906101000a900460ff161515151581526020016000820160029054906101000a900460ff1615151515815260200160018201548152602001600282015481526020016003820154815260200160048201548152505090506001816040019015159081151581525050858160600181815250506000600660008360a00151815260200190815260200160002087815481106108bd577f4e487b7100000000000000000000000000000000000000000000000000000000600052603260045260246000fd5b906000526020600020906003020160405180606001604052908160008201548152602001600182015481526020016002820154815250509050600181604001818151610909919061346d565b9150818152505080600660008460a0015181526020019081526020016000208881548110610960577f4e487b7100000000000000000000000000000000000000000000000000000000600052603260045260246000fd5b906000526020600020906003020160008201518160000155602082015181600101556040820151816002015590505081600560003373ffffffffffffffffffffffffffffffffffffffff1673ffffffffffffffffffffffffffffffffffffffff16815260200190815260200160002060008201518160000160006101000a81548160ff02191690831515021790555060208201518160000160016101000a81548160ff02191690831515021790555060408201518160000160026101000a81548160ff021916908315150217905550606082015181600101556080820151816002015560a0820151816003015560c082015181600401559050506001600860008460a0015181526020019081526020016000206000828254610a82919061346d565b925050819055506000600960008460a00151815260200190815260200160002060405180606001604052908160008201548152602001600182015481526020016002820154815250509050816040015181604001511015610b415781600001518160000181815250508160400151816040018181525050816020015181602001818152505080600960008560a0015181526020019081526020016000206000820151816000015560208201518160010155604082015181600201559050505b50505050505050505050565b606060066000610b5c846121b9565b8152602001908152602001600020805480602002602001604051908101604052809291908181526020016000905b82821015610bda5783829060005260206000209060030201604051806060016040529081600082015481526020016001820154815260200160028201548152505081526020019060010190610b8a565b505050509050919050565b60008054906101000a900473ffffffffffffffffffffffffffffffffffffffff1673ffffffffffffffffffffffffffffffffffffffff163373ffffffffffffffffffffffffffffffffffffffff1614610c73576040517f08c379a0000000000000000000000000000000000000000000000000000000008152600401610c6a9061319a565b60405180910390fd5b806000806101000a81548173ffffffffffffffffffffffffffffffffffffffff021916908373ffffffffffffffffffffffffffffffffffffffff160217905550610cbc836121b9565b600281905550610ccb826121b9565b600181905550505050565b60066020528160005260406000208181548110610cf257600080fd5b9060005260206000209060030201600091509150508060000154908060010154908060020154905083565b6000610d28836121b9565b600254148015610d415750610d3c826121b9565b600154145b905092915050565b6000600360009054906101000a900460ff16905090565b60008054906101000a900473ffffffffffffffffffffffffffffffffffffffff1673ffffffffffffffffffffffffffffffffffffffff163373ffffffffffffffffffffffffffffffffffffffff1614610dee576040517f08c379a0000000000000000000000000000000000000000000000000000000008152600401610de59061327a565b60405180910390fd5b60006003811115610e28577f4e487b7100000000000000000000000000000000000000000000000000000000600052602160045260246000fd5b600360009054906101000a900460ff166003811115610e70577f4e487b7100000000000000000000000000000000000000000000000000000000600052602160045260246000fd5b1415610ecc576001600360006101000a81548160ff02191690836003811115610ec2577f4e487b7100000000000000000000000000000000000000000000000000000000600052602160045260246000fd5b0217905550610ffc565b60016003811115610f06577f4e487b7100000000000000000000000000000000000000000000000000000000600052602160045260246000fd5b600360009054906101000a900460ff166003811115610f4e577f4e487b7100000000000000000000000000000000000000000000000000000000600052602160045260246000fd5b1415610faa576002600360006101000a81548160ff02191690836003811115610fa0577f4e487b7100000000000000000000000000000000000000000000000000000000600052602160045260246000fd5b0217905550610ffb565b60038060006101000a81548160ff02191690836003811115610ff5577f4e487b7100000000000000000000000000000000000000000000000000000000600052602160045260246000fd5b02179055505b5b565b60008060606000600c6000611012886121b9565b8152602001908152602001600020604051806040016040529081600082015481526020016001820160009054906101000a900473ffffffffffffffffffffffffffffffffffffffff1673ffffffffffffffffffffffffffffffffffffffff1673ffffffffffffffffffffffffffffffffffffffff16815250509050600060056000836020015173ffffffffffffffffffffffffffffffffffffffff1673ffffffffffffffffffffffffffffffffffffffff1681526020019081526020016000206040518060e00160405290816000820160009054906101000a900460ff161515151581526020016000820160019054906101000a900460ff161515151581526020016000820160029054906101000a900460ff161515151581526020016001820154815260200160028201548152602001600382015481526020016004820154815250509050611161866121b9565b8260000151141561118d5760018160c001516111808360a001516121e3565b94509450945050506111a9565b6000806040518060200160405280600081525094509450945050505b9250925092565b8060008054906101000a900473ffffffffffffffffffffffffffffffffffffffff1673ffffffffffffffffffffffffffffffffffffffff163373ffffffffffffffffffffffffffffffffffffffff161461123f576040517f08c379a0000000000000000000000000000000000000000000000000000000008152600401611236906131ba565b60405180910390fd5b60016003811115611279577f4e487b7100000000000000000000000000000000000000000000000000000000600052602160045260246000fd5b600360009054906101000a900460ff1660038111156112c1577f4e487b7100000000000000000000000000000000000000000000000000000000600052602160045260246000fd5b14611301576040517f08c379a00000000000000000000000000000000000000000000000000000000081526004016112f89061305a565b60405180910390fd5b600560008273ffffffffffffffffffffffffffffffffffffffff1673ffffffffffffffffffffffffffffffffffffffff16815260200190815260200160002060000160009054906101000a900460ff16611390576040517f08c379a00000000000000000000000000000000000000000000000000000000081526004016113879061307a565b60405180910390fd5b600560008273ffffffffffffffffffffffffffffffffffffffff1673ffffffffffffffffffffffffffffffffffffffff16815260200190815260200160002060000160029054906101000a900460ff1615611420576040517f08c379a0000000000000000000000000000000000000000000000000000000008152600401611417906132da565b60405180910390fd5b600560008273ffffffffffffffffffffffffffffffffffffffff1673ffffffffffffffffffffffffffffffffffffffff16815260200190815260200160002060000160019054906101000a900460ff16156114b0576040517f08c379a00000000000000000000000000000000000000000000000000000000081526004016114a79061311a565b60405180910390fd5b6001600560008473ffffffffffffffffffffffffffffffffffffffff1673ffffffffffffffffffffffffffffffffffffffff16815260200190815260200160002060000160016101000a81548160ff0219169083151502179055505050565b600560003373ffffffffffffffffffffffffffffffffffffffff1673ffffffffffffffffffffffffffffffffffffffff1681526020019081526020016000206040518060e00160405290816000820160009054906101000a900460ff161515151581526020016000820160019054906101000a900460ff161515151581526020016000820160029054906101000a900460ff161515151581526020016001820154815260200160028201548152602001600382015481526020016004820154815250506115db866121b9565b8360006003811115611616577f4e487b7100000000000000000000000000000000000000000000000000000000600052602160045260246000fd5b600360009054906101000a900460ff16600381111561165e577f4e487b7100000000000000000000000000000000000000000000000000000000600052602160045260246000fd5b1461169e576040517f08c379a0000000000000000000000000000000000000000000000000000000008152600401611695906132ba565b60405180910390fd5b600a600083815260200190815260200160002060009054906101000a900460ff16156116ff576040517f08c379a00000000000000000000000000000000000000000000000000000000081526004016116f6906130ba565b60405180910390fd5b600b600082815260200190815260200160002060009054906101000a900460ff1615611760576040517f08c379a00000000000000000000000000000000000000000000000000000000081526004016117579061303a565b60405180910390fd5b8260000151156117a5576040517f08c379a000000000000000000000000000000000000000000000000000000000815260040161179c906130da565b60405180910390fd5b6040518060e00160405280600115158152602001600015158152602001600015158152602001600081526020016117db886121b9565b81526020016117e9866121b9565b815260200186815250600560003373ffffffffffffffffffffffffffffffffffffffff1673ffffffffffffffffffffffffffffffffffffffff16815260200190815260200160002060008201518160000160006101000a81548160ff02191690831515021790555060208201518160000160016101000a81548160ff02191690831515021790555060408201518160000160026101000a81548160ff021916908315150217905550606082015181600101556080820151816002015560a0820151816003015560c082015181600401559050506001600760006118cb876121b9565b815260200190815260200160002060008282546118e8919061346d565b9250508190555060006118fa896121b9565b90506001600a600083815260200190815260200160002060006101000a81548160ff0219169083151502179055506001600b600088815260200190815260200160002060006101000a81548160ff0219169083151502179055506004339080600181540180825580915050600190039060005260206000200160009091909190916101000a81548173ffffffffffffffffffffffffffffffffffffffff021916908373ffffffffffffffffffffffffffffffffffffffff1602179055506119bf61243c565b6119c8896121b9565b81600001818152505033816020019073ffffffffffffffffffffffffffffffffffffffff16908173ffffffffffffffffffffffffffffffffffffffff168152505080600c60008481526020019081526020016000206000820151816000015560208201518160010160006101000a81548173ffffffffffffffffffffffffffffffffffffffff021916908373ffffffffffffffffffffffffffffffffffffffff16021790555090505050505050505050505050565b60008054906101000a900473ffffffffffffffffffffffffffffffffffffffff1673ffffffffffffffffffffffffffffffffffffffff163373ffffffffffffffffffffffffffffffffffffffff1614611b0b576040517f08c379a0000000000000000000000000000000000000000000000000000000008152600401611b02906131fa565b60405180910390fd5b60006003811115611b45577f4e487b7100000000000000000000000000000000000000000000000000000000600052602160045260246000fd5b600360009054906101000a900460ff166003811115611b8d577f4e487b7100000000000000000000000000000000000000000000000000000000600052602160045260246000fd5b14611bcd576040517f08c379a0000000000000000000000000000000000000000000000000000000008152600401611bc4906132fa565b60405180910390fd5b60066000611bda836121b9565b81526020019081526020016000206040518060600160405280611bfc866121b9565b8152602001611c0a856121b9565b8152602001600081525090806001815401808255809150506001900390600052602060002090600302016000909190919091506000820151816000015560208201518160010155604082015181600201555050505050565b60608060008054906101000a900473ffffffffffffffffffffffffffffffffffffffff1673ffffffffffffffffffffffffffffffffffffffff163373ffffffffffffffffffffffffffffffffffffffff1614611cf3576040517f08c379a0000000000000000000000000000000000000000000000000000000008152600401611cea9061317a565b60405180910390fd5b60048054905067ffffffffffffffff811115611d38577f4e487b7100000000000000000000000000000000000000000000000000000000600052604160045260246000fd5b604051908082528060200260200182016040528015611d665781602001602082028036833780820191505090505b50915060048054905067ffffffffffffffff811115611dae577f4e487b7100000000000000000000000000000000000000000000000000000000600052604160045260246000fd5b604051908082528060200260200182016040528015611de757816020015b611dd461246f565b815260200190600190039081611dcc5790505b50905060005b6004805490508110156120505760048181548110611e34577f4e487b7100000000000000000000000000000000000000000000000000000000600052603260045260246000fd5b9060005260206000200160009054906101000a900473ffffffffffffffffffffffffffffffffffffffff16838281518110611e98577f4e487b7100000000000000000000000000000000000000000000000000000000600052603260045260246000fd5b602002602001019073ffffffffffffffffffffffffffffffffffffffff16908173ffffffffffffffffffffffffffffffffffffffff16815250506005600060048381548110611f10577f4e487b7100000000000000000000000000000000000000000000000000000000600052603260045260246000fd5b9060005260206000200160009054906101000a900473ffffffffffffffffffffffffffffffffffffffff1673ffffffffffffffffffffffffffffffffffffffff1673ffffffffffffffffffffffffffffffffffffffff1681526020019081526020016000206040518060e00160405290816000820160009054906101000a900460ff161515151581526020016000820160019054906101000a900460ff161515151581526020016000820160029054906101000a900460ff16151515158152602001600182015481526020016002820154815260200160038201548152602001600482015481525050828281518110612032577f4e487b7100000000000000000000000000000000000000000000000000000000600052603260045260246000fd5b60200260200101819052508080612048906135ba565b915050611ded565b509091565b600060076000612064846121b9565b8152602001908152602001600020549050919050565b6120826124b8565b6003808111156120bb577f4e487b7100000000000000000000000000000000000000000000000000000000600052602160045260246000fd5b600360009054906101000a900460ff166003811115612103577f4e487b7100000000000000000000000000000000000000000000000000000000600052602160045260246000fd5b14612143576040517f08c379a000000000000000000000000000000000000000000000000000000000815260040161213a9061321a565b60405180910390fd5b600060096000612152856121b9565b81526020019081526020016000206040518060600160405290816000820154815260200160018201548152602001600282015481525050905080915050919050565b6000600860006121a3846121b9565b8152602001908152602001600020549050919050565b6000808290506000815114156121d5576000801b9150506121de565b60208301519150505b919050565b606060005b60208160ff161080156122605750600060f81b838260ff1660208110612237577f4e487b7100000000000000000000000000000000000000000000000000000000600052603260045260246000fd5b1a60f81b7effffffffffffffffffffffffffffffffffffffffffffffffffffffffffffff191614155b1561227857808061227090613603565b9150506121e8565b60008160ff1667ffffffffffffffff8111156122bd577f4e487b7100000000000000000000000000000000000000000000000000000000600052604160045260246000fd5b6040519080825280601f01601f1916602001820160405280156122ef5781602001600182028036833780820191505090505b509050600091505b60208260ff1610801561236f5750600060f81b848360ff1660208110612346577f4e487b7100000000000000000000000000000000000000000000000000000000600052603260045260246000fd5b1a60f81b7effffffffffffffffffffffffffffffffffffffffffffffffffffffffffffff191614155b1561243257838260ff16602081106123b0577f4e487b7100000000000000000000000000000000000000000000000000000000600052603260045260246000fd5b1a60f81b818360ff16815181106123f0577f4e487b7100000000000000000000000000000000000000000000000000000000600052603260045260246000fd5b60200101907effffffffffffffffffffffffffffffffffffffffffffffffffffffffffffff1916908160001a905350818061242a90613603565b9250506122f7565b8092505050919050565b604051806040016040528060008019168152602001600073ffffffffffffffffffffffffffffffffffffffff1681525090565b6040518060e00160405280600015158152602001600015158152602001600015158152602001600081526020016000801916815260200160008019168152602001600081525090565b60405180606001604052806000801916815260200160008019168152602001600081525090565b60006124f26124ed84613375565b613350565b90508281526020810184848401111561250a57600080fd5b612515848285613547565b509392505050565b60008135905061252c81613bbe565b92915050565b60008135905061254181613bd5565b92915050565b600082601f83011261255857600080fd5b81356125688482602086016124df565b91505092915050565b60008135905061258081613bec565b92915050565b60006020828403121561259857600080fd5b60006125a68482850161251d565b91505092915050565b600080604083850312156125c257600080fd5b60006125d085828601612532565b92505060206125e185828601612571565b9150509250929050565b6000602082840312156125fd57600080fd5b600082013567ffffffffffffffff81111561261757600080fd5b61262384828501612547565b91505092915050565b6000806040838503121561263f57600080fd5b600083013567ffffffffffffffff81111561265957600080fd5b61266585828601612547565b925050602083013567ffffffffffffffff81111561268257600080fd5b61268e85828601612547565b9150509250929050565b6000806000606084860312156126ad57600080fd5b600084013567ffffffffffffffff8111156126c757600080fd5b6126d386828701612547565b935050602084013567ffffffffffffffff8111156126f057600080fd5b6126fc86828701612547565b925050604061270d8682870161251d565b9150509250925092565b60008060006060848603121561272c57600080fd5b600084013567ffffffffffffffff81111561274657600080fd5b61275286828701612547565b935050602084013567ffffffffffffffff81111561276f57600080fd5b61277b86828701612547565b925050604084013567ffffffffffffffff81111561279857600080fd5b6127a486828701612547565b9150509250925092565b600080600080600060a086880312156127c657600080fd5b600086013567ffffffffffffffff8111156127e057600080fd5b6127ec88828901612547565b955050602086013567ffffffffffffffff81111561280957600080fd5b61281588828901612547565b945050604086013567ffffffffffffffff81111561283257600080fd5b61283e88828901612547565b935050606061284f88828901612571565b925050608086013567ffffffffffffffff81111561286c57600080fd5b61287888828901612547565b9150509295509295909350565b60008060006060848603121561289a57600080fd5b600084013567ffffffffffffffff8111156128b457600080fd5b6128c086828701612547565b93505060206128d186828701612571565b92505060406128e286828701612571565b9150509250925092565b60006128f88383612934565b60208301905092915050565b60006129108383612e06565b60608301905092915050565b60006129288383612e48565b60e08301905092915050565b61293d816134c3565b82525050565b600061294e826133d6565b6129588185613429565b9350612963836133a6565b8060005b8381101561299457815161297b88826128ec565b975061298683613402565b925050600181019050612967565b5085935050505092915050565b60006129ac826133e1565b6129b6818561343a565b93506129c1836133b6565b8060005b838110156129f25781516129d98882612904565b97506129e48361340f565b9250506001810190506129c5565b5085935050505092915050565b6000612a0a826133ec565b612a14818561344b565b9350612a1f836133c6565b8060005b83811015612a50578151612a37888261291c565b9750612a428361341c565b925050600181019050612a23565b5085935050505092915050565b612a66816134d5565b82525050565b612a75816134d5565b82525050565b612a84816134e1565b82525050565b612a93816134e1565b82525050565b612aa281613535565b82525050565b6000612ab3826133f7565b612abd818561345c565b9350612acd818560208601613556565b612ad6816136ba565b840191505092915050565b6000612aee60228361345c565b9150612af9826136cb565b604082019050919050565b6000612b1160278361345c565b9150612b1c8261371a565b604082019050919050565b6000612b3460198361345c565b9150612b3f82613769565b602082019050919050565b6000612b57603f8361345c565b9150612b6282613792565b604082019050919050565b6000612b7a601c8361345c565b9150612b85826137e1565b602082019050919050565b6000612b9d601b8361345c565b9150612ba88261380a565b602082019050919050565b6000612bc060198361345c565b9150612bcb82613833565b602082019050919050565b6000612be3601e8361345c565b9150612bee8261385c565b602082019050919050565b6000612c0660198361345c565b9150612c1182613885565b602082019050919050565b6000612c29600e8361345c565b9150612c34826138ae565b602082019050919050565b6000612c4c60328361345c565b9150612c57826138d7565b604082019050919050565b6000612c6f602b8361345c565b9150612c7a82613926565b604082019050919050565b6000612c9260288361345c565b9150612c9d82613975565b604082019050919050565b6000612cb5601f8361345c565b9150612cc0826139c4565b602082019050919050565b6000612cd860278361345c565b9150612ce3826139ed565b604082019050919050565b6000612cfb60188361345c565b9150612d0682613a3c565b602082019050919050565b6000612d1e60208361345c565b9150612d2982613a65565b602082019050919050565b6000612d41601d8361345c565b9150612d4c82613a8e565b602082019050919050565b6000612d6460258361345c565b9150612d6f82613ab7565b604082019050919050565b6000612d8760158361345c565b9150612d9282613b06565b602082019050919050565b6000612daa60148361345c565b9150612db582613b2f565b602082019050919050565b6000612dcd60188361345c565b9150612dd882613b58565b602082019050919050565b6000612df060148361345c565b9150612dfb82613b81565b602082019050919050565b606082016000820151612e1c6000850182612a7b565b506020820151612e2f6020850182612a7b565b506040820151612e426040850182612f18565b50505050565b60e082016000820151612e5e6000850182612a5d565b506020820151612e716020850182612a5d565b506040820151612e846040850182612a5d565b506060820151612e976060850182612f18565b506080820151612eaa6080850182612a7b565b5060a0820151612ebd60a0850182612a7b565b5060c0820151612ed060c0850182612f18565b50505050565b606082016000820151612eec6000850182612a7b565b506020820151612eff6020850182612a7b565b506040820151612f126040850182612f18565b50505050565b612f218161351e565b82525050565b612f308161351e565b82525050565b60006040820190508181036000830152612f508185612943565b90508181036020830152612f6481846129ff565b90509392505050565b60006020820190508181036000830152612f8781846129a1565b905092915050565b6000602082019050612fa46000830184612a6c565b92915050565b6000606082019050612fbf6000830186612a6c565b612fcc6020830185612f27565b8181036040830152612fde8184612aa8565b9050949350505050565b6000606082019050612ffd6000830186612a8a565b61300a6020830185612a8a565b6130176040830184612f27565b949350505050565b60006020820190506130346000830184612a99565b92915050565b6000602082019050818103600083015261305381612ae1565b9050919050565b6000602082019050818103600083015261307381612b04565b9050919050565b6000602082019050818103600083015261309381612b27565b9050919050565b600060208201905081810360008301526130b381612b4a565b9050919050565b600060208201905081810360008301526130d381612b6d565b9050919050565b600060208201905081810360008301526130f381612b90565b9050919050565b6000602082019050818103600083015261311381612bb3565b9050919050565b6000602082019050818103600083015261313381612bd6565b9050919050565b6000602082019050818103600083015261315381612bf9565b9050919050565b6000602082019050818103600083015261317381612c1c565b9050919050565b6000602082019050818103600083015261319381612c3f565b9050919050565b600060208201905081810360008301526131b381612c62565b9050919050565b600060208201905081810360008301526131d381612c85565b9050919050565b600060208201905081810360008301526131f381612ca8565b9050919050565b6000602082019050818103600083015261321381612ccb565b9050919050565b6000602082019050818103600083015261323381612cee565b9050919050565b6000602082019050818103600083015261325381612d11565b9050919050565b6000602082019050818103600083015261327381612d34565b9050919050565b6000602082019050818103600083015261329381612d57565b9050919050565b600060208201905081810360008301526132b381612d7a565b9050919050565b600060208201905081810360008301526132d381612d9d565b9050919050565b600060208201905081810360008301526132f381612dc0565b9050919050565b6000602082019050818103600083015261331381612de3565b9050919050565b600060608201905061332f6000830184612ed6565b92915050565b600060208201905061334a6000830184612f27565b92915050565b600061335a61336b565b90506133668282613589565b919050565b6000604051905090565b600067ffffffffffffffff8211156133905761338f61368b565b5b613399826136ba565b9050602081019050919050565b6000819050602082019050919050565b6000819050602082019050919050565b6000819050602082019050919050565b600081519050919050565b600081519050919050565b600081519050919050565b600081519050919050565b6000602082019050919050565b6000602082019050919050565b6000602082019050919050565b600082825260208201905092915050565b600082825260208201905092915050565b600082825260208201905092915050565b600082825260208201905092915050565b60006134788261351e565b91506134838361351e565b9250827fffffffffffffffffffffffffffffffffffffffffffffffffffffffffffffffff038211156134b8576134b761362d565b5b828201905092915050565b60006134ce826134fe565b9050919050565b60008115159050919050565b6000819050919050565b60008190506134f982613baa565b919050565b600073ffffffffffffffffffffffffffffffffffffffff82169050919050565b6000819050919050565b600060ff82169050919050565b6000613540826134eb565b9050919050565b82818337600083830152505050565b60005b83811015613574578082015181840152602081019050613559565b83811115613583576000848401525b50505050565b613592826136ba565b810181811067ffffffffffffffff821117156135b1576135b061368b565b5b80604052505050565b60006135c58261351e565b91507fffffffffffffffffffffffffffffffffffffffffffffffffffffffffffffffff8214156135f8576135f761362d565b5b600182019050919050565b600061360e82613528565b915060ff8214156136225761362161362d565b5b600182019050919050565b7f4e487b7100000000000000000000000000000000000000000000000000000000600052601160045260246000fd5b7f4e487b7100000000000000000000000000000000000000000000000000000000600052602160045260246000fd5b7f4e487b7100000000000000000000000000000000000000000000000000000000600052604160045260246000fd5b6000601f19601f8301169050919050565b7f54686973204164686172204e756d62657220697320616c72656479207072657360008201527f6574000000000000000000000000000000000000000000000000000000000000602082015250565b7f56616c69646174696f6e2070726f6365737320686173206e6f74206265656e2060008201527f7374617274656400000000000000000000000000000000000000000000000000602082015250565b7f766f746572206973206e6f742072656769737465722079657400000000000000600082015250565b7f416164686172204e756d626572206d697373206d6174636820706c656173652060008201527f656e746572207265676973746572656420416164686172204e756d6265722e00602082015250565b7f5468697320456d61696c20697320616c726564792070726573656e7400000000600082015250565b7f596f75206861766520616c726561647920726567697374657265640000000000600082015250565b7f566f74696e67207374616765206973206e6f7420737461727400000000000000600082015250565b7f54686520766f74657220697320616c7265647920617574686f72697a65640000600082015250565b7f596f7520617265206e6f74207265676973746572207965742e00000000000000600082015250565b7f416c726561647920766f7465642e000000000000000000000000000000000000600082015250565b7f4f6e6c7920436861697220706572736f6e206861766520726967687420746f2060008201527f63616c6c20746869732066756e6374696f6e0000000000000000000000000000602082015250565b7f4f6e6c79204368616972706572736f6e2063616e2061737369676e206e65772060008201527f4368616972706572736f6e000000000000000000000000000000000000000000602082015250565b7f4f6e6c79206368616972706572736f6e2063616e20676976652072696768742060008201527f746f20766f74652e000000000000000000000000000000000000000000000000602082015250565b7f596f7520686176652063686f6f736520776f726e672070726f706f73616c2e00600082015250565b7f4f6e6c79206368616972706572736f6e2072696768747320746f20616464207060008201527f726f706f73616c00000000000000000000000000000000000000000000000000602082015250565b7f566f74696e672070726f63657373206e6f7420636c6f73650000000000000000600082015250565b7f77652063616e6e27742076616c69646174657320796f7572206163636f756e74600082015250565b7f5468657265206973206e6f2070726f706f73616c20746f20766f74652e000000600082015250565b7f4f6e6c79204368616972706572736f6e2063616e206368616e6765207468652060008201527f7374617465000000000000000000000000000000000000000000000000000000602082015250565b7f486173206e6f20726967687420746f20766f74652e0000000000000000000000600082015250565b7f526567697374726174696f6e206973204f766572000000000000000000000000600082015250565b7f54686520766f74657220616c726561647920766f7465642e0000000000000000600082015250565b7f526567697374726174696f6e206973206f766572000000000000000000000000600082015250565b60048110613bbb57613bba61365c565b5b50565b613bc7816134c3565b8114613bd257600080fd5b50565b613bde816134e1565b8114613be957600080fd5b50565b613bf58161351e565b8114613c0057600080fd5b5056fea2646970667358221220fcf1d7ea05b7c9a02957a89bb584e03280003c98c3f15db4892a328b0fa16cdc64736f6c63430008040033",
  "immutableReferences": {},
  "source": "// SPDX-License-Identifier: MIT\r\npragma solidity >=0.4.22 <0.9.0;\r\npragma experimental ABIEncoderV2;\r\n\r\n/**\r\n * @title Ballot\r\n * @dev Implements voting process along with vote delegation\r\n */\r\ncontract E_voting_system {\r\n    //variable declaration\r\n\r\n    struct Voter_login_details {\r\n        bytes32 pass;\r\n        address voter;\r\n    }\r\n\r\n    struct Voter {\r\n        bool is_reg;\r\n        bool is_authorized; // is voter is authorize to vote\r\n        bool voted; // if true, that person already voted\r\n        uint256 vote; // index of the voted proposal\r\n        bytes32 name;\r\n        bytes32 area; // area of voter\r\n        uint256 Aadhar; //Aadhar card number\r\n    }\r\n\r\n    struct Proposal {\r\n        // If you can limit the length to a certain number of bytes,\r\n        // always use one of bytes1 to bytes32 because they are much cheaper\r\n        bytes32 name; // short name (up to 32 bytes)\r\n        bytes32 party;\r\n        uint256 voteCount; // number of accumulated votes\r\n    }\r\n    struct winner_in_area {\r\n        bytes32 name;\r\n        bytes32 party;\r\n        uint256 voteCount;\r\n    }\r\n\r\n    address private chairperson;\r\n    bytes32 private chair_pass;\r\n    bytes32 private chair_email;\r\n\r\n    enum voting_state {\r\n        reg,\r\n        validation,\r\n        voting,\r\n        close\r\n    }\r\n\r\n    voting_state private state;\r\n    address[] voter_address;\r\n    mapping(address => Voter) private voters;\r\n    mapping(bytes32 => Proposal[]) public area_proposal;\r\n    mapping(bytes32 => uint256) private reg_voter_count_per_area;\r\n    mapping(bytes32 => uint256) private vote_count_per_area;\r\n    mapping(bytes32 => winner_in_area) private winner_per_area;\r\n    mapping(bytes32 => bool) private email_validation;\r\n    mapping(uint256 => bool) private Aadhar_validation;\r\n    mapping(bytes32 => Voter_login_details) private login_details;\r\n\r\n    /**\r\n     * @dev constructor create an owner an set the right to vote for the owner.\r\n     */\r\n    constructor(\r\n        string memory email,\r\n        string memory pass,\r\n        uint256 Aadhar,\r\n        string memory area\r\n    ) {\r\n        require(bytes(area).length != 0, \"Please specify your area\");\r\n        chairperson = msg.sender;\r\n        chair_email = stringToBytes32(email);\r\n        chair_pass = stringToBytes32(pass);\r\n        Voter memory sender;\r\n        sender.is_authorized = true;\r\n        sender.is_reg = true;\r\n        sender.area = stringToBytes32(area);\r\n        sender.Aadhar = Aadhar;\r\n        voters[msg.sender] = sender;\r\n        reg_voter_count_per_area[stringToBytes32(area)] += 1;\r\n        state = voting_state.reg;\r\n    }\r\n\r\n    // Modifiers\r\n\r\n    modifier Only_chairperson() {\r\n        require(\r\n            msg.sender == chairperson,\r\n            \"Only chairperson rights to add proposal\"\r\n        );\r\n        require(state == voting_state.reg, \"Registration is over\");\r\n        _;\r\n    }\r\n\r\n    modifier check_for_right(address voter) {\r\n        require(\r\n            msg.sender == chairperson,\r\n            \"Only chairperson can give right to vote.\"\r\n        );\r\n        require(\r\n            state == voting_state.validation,\r\n            \"Validation process has not been started\"\r\n        );\r\n        require(voters[voter].is_reg, \"voter is not register yet\");\r\n        require(!voters[voter].voted, \"The voter already voted.\");\r\n        require(!voters[voter].is_authorized,\"The voter is alredy authorized\");\r\n        _;\r\n    }\r\n\r\n    modifier check_status(\r\n        Voter memory voter,\r\n        bytes32 email,\r\n        uint256 Aadhar\r\n    ) {\r\n        require(state == voting_state.reg, \"Registration is Over\");\r\n        require(!email_validation[email], \"This Email is alredy present\");\r\n        require(\r\n            !Aadhar_validation[Aadhar],\r\n            \"This Adhar Number is alredy preset\"\r\n        );\r\n        require(!voter.is_reg, \"You have already registered\");\r\n        _;\r\n    }\r\n\r\n    modifier Only_auth_non_voted_voters(\r\n        bytes32 email,\r\n        uint256 Aadhar,\r\n        uint256 proposal\r\n    ) {\r\n        require(state == voting_state.voting, \"Voting stage is not start\");\r\n        require(\r\n            ((login_details[email].voter == msg.sender) ||\r\n                (chair_email == email && chairperson == msg.sender)),\r\n            \"we cann't validates your account\"\r\n        );\r\n        Voter memory sender = voters[msg.sender];\r\n        require(sender.is_reg, \"You are not register yet.\");\r\n        require(sender.is_authorized, \"Has no right to vote.\");\r\n        require(!sender.voted, \"Already voted.\");\r\n        require(\r\n            sender.Aadhar == Aadhar,\r\n            \"Aadhar Number miss match please enter registered Aadhar Number.\"\r\n        );\r\n        require(\r\n            area_proposal[sender.area].length != 0,\r\n            \"There is no proposal to vote.\"\r\n        );\r\n        require(\r\n            area_proposal[sender.area].length >= proposal,\r\n            \"You have choose worng proposal.\"\r\n        );\r\n        _;\r\n    }\r\n\r\n    //event\r\n    // event state_change(voting_state state);\r\n\r\n    // Functions\r\n\r\n    // This function is used by the chairperson only to add the Proposal\r\n    function addProposal(\r\n        string memory nme,\r\n        string memory prty,\r\n        string memory area\r\n    ) public Only_chairperson {\r\n        area_proposal[stringToBytes32(area)].push(\r\n            Proposal({\r\n                name: stringToBytes32(nme),\r\n                party: stringToBytes32(prty),\r\n                voteCount: 0\r\n            })\r\n        );\r\n    }\r\n\r\n    /**\r\n     * @dev Give 'voter' the right to vote on this ballot. May only be called by 'chairperson'.\r\n     * @param voter address of voter\r\n     */\r\n\r\n    function giveRightToVote(address voter) public check_for_right(voter) {\r\n        voters[voter].is_authorized = true;\r\n    }\r\n\r\n    // This function is used by the voter to register yourself\r\n    function voter_reg(\r\n        string memory email,\r\n        string memory pass,\r\n        string memory name,\r\n        uint256 Aadhar,\r\n        string memory ara\r\n    ) public check_status(voters[msg.sender], stringToBytes32(email), Aadhar) {\r\n        voters[msg.sender] = Voter({\r\n            is_reg: true,\r\n            is_authorized: false,\r\n            voted: false,\r\n            vote: 0,\r\n            area: stringToBytes32(ara),\r\n            Aadhar: Aadhar,\r\n            name : stringToBytes32(name)\r\n        });\r\n        reg_voter_count_per_area[stringToBytes32(ara)] += 1;\r\n        bytes32 em = stringToBytes32(email);\r\n        email_validation[em] = true;\r\n        Aadhar_validation[Aadhar] = true;\r\n        voter_address.push(msg.sender);\r\n        Voter_login_details memory vrdt;\r\n        vrdt.pass = stringToBytes32(pass);\r\n        vrdt.voter = msg.sender;\r\n        login_details[em] = vrdt;\r\n    }\r\n\r\n    /**\r\n     * @dev Give your vote (including votes delegated to you) to proposal 'proposals[proposal].name'.\r\n     * @param proposal index of proposal in the proposals array\r\n     */\r\n\r\n    function vote(\r\n        string memory email,\r\n        uint256 Aadhar,\r\n        uint256 proposal\r\n    )\r\n        public\r\n        Only_auth_non_voted_voters(stringToBytes32(email), Aadhar, proposal)\r\n    {\r\n        Voter memory sender = voters[msg.sender];\r\n        sender.voted = true;\r\n        sender.vote = proposal;\r\n        Proposal memory p = area_proposal[sender.area][proposal];\r\n        p.voteCount += 1;\r\n        area_proposal[sender.area][proposal] = p;\r\n        voters[msg.sender] = sender;\r\n        vote_count_per_area[sender.area] += 1;\r\n        winner_in_area memory w = winner_per_area[sender.area];\r\n        if (w.voteCount < p.voteCount) {\r\n            w.name = p.name;\r\n            w.voteCount = p.voteCount;\r\n            w.party = p.party;\r\n            winner_per_area[sender.area] = w;\r\n        }\r\n    }\r\n\r\n    /**\r\n     * @return winnerName_ the name of the winner\r\n     */\r\n    function winnerNME_Vcount(string memory area)\r\n        public\r\n        view\r\n        returns (winner_in_area memory)\r\n    {\r\n        require(state == voting_state.close, \"Voting process not close\");\r\n        winner_in_area memory w = winner_per_area[stringToBytes32(area)];\r\n        return (w);\r\n    }\r\n\r\n    function changeState() public {\r\n        require(\r\n            msg.sender == chairperson,\r\n            \"Only Chairperson can change the state\"\r\n        );\r\n        if (state == voting_state.reg) {\r\n            state = voting_state.validation;\r\n        } else if (state == voting_state.validation) {\r\n            state = voting_state.voting;\r\n        } else {\r\n            state = voting_state.close;\r\n        }\r\n    }\r\n\r\n    function changeChairperson(\r\n        string memory newEmail,\r\n        string memory newPass,\r\n        address newChairperson\r\n    ) public {\r\n        require(\r\n            msg.sender == chairperson,\r\n            \"Only Chairperson can assign new Chairperson\"\r\n        );\r\n        chairperson = newChairperson;\r\n        chair_email = stringToBytes32(newEmail);\r\n        chair_pass = stringToBytes32(newPass);\r\n    }\r\n\r\n    function check_state() public view returns (voting_state st) {\r\n        return state;\r\n    }\r\n\r\n    function vote_count(string memory area) public view returns (uint256) {\r\n        return vote_count_per_area[stringToBytes32(area)];\r\n    }\r\n\r\n    function voter_count(string memory area) public view returns (uint256) {\r\n        return reg_voter_count_per_area[stringToBytes32(area)];\r\n    }\r\n\r\n    function voterLogin(string memory email, string memory pass)\r\n        public\r\n        view\r\n        returns (\r\n            bool status,\r\n            uint256 Aadhar,\r\n            string memory area\r\n        )\r\n    {\r\n        Voter_login_details memory v_details = login_details[\r\n            stringToBytes32(email)\r\n        ];\r\n        Voter memory voter = voters[v_details.voter];\r\n        if (v_details.pass == stringToBytes32(pass))\r\n            return (true, voter.Aadhar, bytes32ToString(voter.area));\r\n        else return (false, 0, \"\");\r\n    }\r\n\r\n    function unauth_voters() public view returns (address[] memory address_list,Voter[] memory voter_detils) {\r\n        require(\r\n            msg.sender == chairperson,\r\n            \"Only Chair person have right to call this function\"\r\n        );\r\n        address_list = new address[](voter_address.length);\r\n        voter_detils = new Voter[](voter_address.length);\r\n        for(uint i=0;i<voter_address.length;i++){\r\n            address_list[i] = voter_address[i];\r\n            voter_detils[i] = voters[voter_address[i]];\r\n        }\r\n    }\r\n\r\n    function chair_login(string memory email, string memory pass)\r\n        public\r\n        view\r\n        returns (bool)\r\n    {\r\n        return\r\n            (chair_email == stringToBytes32(email) &&\r\n            chair_pass == stringToBytes32(pass));\r\n    }\r\n\r\n    function getProposal(string memory area)\r\n        public\r\n        view\r\n        returns (Proposal[] memory)\r\n    {\r\n        return area_proposal[stringToBytes32(area)];\r\n    }\r\n\r\n    function stringToBytes32(string memory source)\r\n        private\r\n        pure\r\n        returns (bytes32 result)\r\n    {\r\n        bytes memory tempEmptyStringTest = bytes(source);\r\n        if (tempEmptyStringTest.length == 0) {\r\n            return 0x0;\r\n        }\r\n\r\n        assembly {\r\n            result := mload(add(source, 32))\r\n        }\r\n    }\r\n\r\n    function bytes32ToString(bytes32 _bytes32)\r\n        private\r\n        pure\r\n        returns (string memory)\r\n    {\r\n        uint8 i = 0;\r\n        while (i < 32 && _bytes32[i] != 0) {\r\n            i++;\r\n        }\r\n        bytes memory bytesArray = new bytes(i);\r\n        for (i = 0; i < 32 && _bytes32[i] != 0; i++) {\r\n            bytesArray[i] = _bytes32[i];\r\n        }\r\n        return string(bytesArray);\r\n    }\r\n}",
  "sourcePath": "C:/Users/Bismay Kumar Rana/Desktop/Block chain dev/contracts/E_voting_system.sol",
  "compiler": {
    "name": "solc",
    "version": "0.8.4+commit.c7e474f2.Emscripten.clang"
  },
  "schemaVersion": "3.3.4",
  "updatedAt": "2022-06-26T18:30:05.992Z",
  "networkType": "ethereum",
  "devdoc": {
    "details": "Implements voting process along with vote delegation",
    "kind": "dev",
    "methods": {
      "constructor": {
        "details": "constructor create an owner an set the right to vote for the owner."
      },
      "giveRightToVote(address)": {
        "details": "Give 'voter' the right to vote on this ballot. May only be called by 'chairperson'.",
        "params": {
          "voter": "address of voter"
        }
      },
      "vote(string,uint256,uint256)": {
        "details": "Give your vote (including votes delegated to you) to proposal 'proposals[proposal].name'.",
        "params": {
          "proposal": "index of proposal in the proposals array"
        }
      },
      "winnerNME_Vcount(string)": {
        "returns": {
          "_0": "winnerName_ the name of the winner"
        }
      }
    },
    "title": "Ballot",
    "version": 1
  },
  "userdoc": {
    "kind": "user",
    "methods": {},
    "version": 1
  }
}