{
  "contractName": "E_voting_system",
  "abi": [
    {
      "inputs": [
        {
          "internalType": "string",
          "name": "email",
          "type": "string"
        },
        {
          "internalType": "string",
          "name": "pass",
          "type": "string"
        },
        {
          "internalType": "uint256",
          "name": "Aadhar",
          "type": "uint256"
        },
        {
          "internalType": "string",
          "name": "area",
          "type": "string"
        }
      ],
      "stateMutability": "nonpayable",
      "type": "constructor"
    },
    {
      "inputs": [
        {
          "internalType": "bytes32",
          "name": "",
          "type": "bytes32"
        },
        {
          "internalType": "uint256",
          "name": "",
          "type": "uint256"
        }
      ],
      "name": "area_proposal",
      "outputs": [
        {
          "internalType": "bytes32",
          "name": "name",
          "type": "bytes32"
        },
        {
          "internalType": "bytes32",
          "name": "party",
          "type": "bytes32"
        },
        {
          "internalType": "uint256",
          "name": "voteCount",
          "type": "uint256"
        }
      ],
      "stateMutability": "view",
      "type": "function",
      "constant": true
    },
    {
      "inputs": [
        {
          "internalType": "string",
          "name": "nme",
          "type": "string"
        },
        {
          "internalType": "string",
          "name": "prty",
          "type": "string"
        },
        {
          "internalType": "string",
          "name": "area",
          "type": "string"
        }
      ],
      "name": "addProposal",
      "outputs": [],
      "stateMutability": "nonpayable",
      "type": "function"
    },
    {
      "inputs": [
        {
          "internalType": "address",
          "name": "voter",
          "type": "address"
        }
      ],
      "name": "giveRightToVote",
      "outputs": [],
      "stateMutability": "nonpayable",
      "type": "function"
    },
    {
      "inputs": [
        {
          "internalType": "string",
          "name": "email",
          "type": "string"
        },
        {
          "internalType": "string",
          "name": "pass",
          "type": "string"
        },
        {
          "internalType": "uint256",
          "name": "Aadhar",
          "type": "uint256"
        },
        {
          "internalType": "string",
          "name": "ara",
          "type": "string"
        }
      ],
      "name": "voter_reg",
      "outputs": [],
      "stateMutability": "nonpayable",
      "type": "function"
    },
    {
      "inputs": [
        {
          "internalType": "string",
          "name": "email",
          "type": "string"
        },
        {
          "internalType": "uint256",
          "name": "Aadhar",
          "type": "uint256"
        },
        {
          "internalType": "uint256",
          "name": "proposal",
          "type": "uint256"
        }
      ],
      "name": "vote",
      "outputs": [],
      "stateMutability": "nonpayable",
      "type": "function"
    },
    {
      "inputs": [
        {
          "internalType": "string",
          "name": "area",
          "type": "string"
        }
      ],
      "name": "winnerNME_Vcount",
      "outputs": [
        {
          "internalType": "string",
          "name": "",
          "type": "string"
        },
        {
          "internalType": "uint256",
          "name": "",
          "type": "uint256"
        }
      ],
      "stateMutability": "view",
      "type": "function",
      "constant": true
    },
    {
      "inputs": [],
      "name": "changeState",
      "outputs": [],
      "stateMutability": "nonpayable",
      "type": "function"
    },
    {
      "inputs": [
        {
          "internalType": "string",
          "name": "newEmail",
          "type": "string"
        },
        {
          "internalType": "string",
          "name": "newPass",
          "type": "string"
        },
        {
          "internalType": "address",
          "name": "newChairperson",
          "type": "address"
        }
      ],
      "name": "changeChairperson",
      "outputs": [],
      "stateMutability": "nonpayable",
      "type": "function"
    },
    {
      "inputs": [],
      "name": "check_state",
      "outputs": [
        {
          "internalType": "enum E_voting_system.voting_state",
          "name": "st",
          "type": "uint8"
        }
      ],
      "stateMutability": "view",
      "type": "function",
      "constant": true
    },
    {
      "inputs": [
        {
          "internalType": "string",
          "name": "area",
          "type": "string"
        }
      ],
      "name": "vote_count",
      "outputs": [
        {
          "internalType": "uint256",
          "name": "",
          "type": "uint256"
        }
      ],
      "stateMutability": "view",
      "type": "function",
      "constant": true
    },
    {
      "inputs": [
        {
          "internalType": "string",
          "name": "area",
          "type": "string"
        }
      ],
      "name": "voter_count",
      "outputs": [
        {
          "internalType": "uint256",
          "name": "",
          "type": "uint256"
        }
      ],
      "stateMutability": "view",
      "type": "function",
      "constant": true
    },
    {
      "inputs": [
        {
          "internalType": "string",
          "name": "email",
          "type": "string"
        },
        {
          "internalType": "string",
          "name": "pass",
          "type": "string"
        }
      ],
      "name": "voterLogin",
      "outputs": [
        {
          "internalType": "bool",
          "name": "status",
          "type": "bool"
        },
        {
          "internalType": "uint256",
          "name": "Aadhar",
          "type": "uint256"
        },
        {
          "internalType": "string",
          "name": "area",
          "type": "string"
        }
      ],
      "stateMutability": "view",
      "type": "function",
      "constant": true
    },
    {
      "inputs": [],
      "name": "unreg_voters",
      "outputs": [
        {
          "internalType": "address[]",
          "name": "",
          "type": "address[]"
        }
      ],
      "stateMutability": "view",
      "type": "function",
      "constant": true
    },
    {
      "inputs": [
        {
          "internalType": "string",
          "name": "area",
          "type": "string"
        }
      ],
      "name": "getProposal",
      "outputs": [
        {
          "components": [
            {
              "internalType": "bytes32",
              "name": "name",
              "type": "bytes32"
            },
            {
              "internalType": "bytes32",
              "name": "party",
              "type": "bytes32"
            },
            {
              "internalType": "uint256",
              "name": "voteCount",
              "type": "uint256"
            }
          ],
          "internalType": "struct E_voting_system.Proposal[]",
          "name": "",
          "type": "tuple[]"
        }
      ],
      "stateMutability": "view",
      "type": "function",
      "constant": true
    }
  ],
  "bytecode": "0x60806040523480156200001157600080fd5b5060405162003c9c38038062003c9c83398181016040528101906200003791906200038c565b6000815114156200007f576040517f08c379a000000000000000000000000000000000000000000000000000000000815260040162000076906200046a565b60405180910390fd5b336000806101000a81548173ffffffffffffffffffffffffffffffffffffffff021916908373ffffffffffffffffffffffffffffffffffffffff160217905550620000d0846200029860201b60201c565b600281905550620000e7836200029860201b60201c565b600181905550620000f7620002c4565b600181602001901515908115158152505060018160000190151590811515815250506200012a826200029860201b60201c565b816080018181525050828160a001818152505080600560003373ffffffffffffffffffffffffffffffffffffffff1673ffffffffffffffffffffffffffffffffffffffff16815260200190815260200160002060008201518160000160006101000a81548160ff02191690831515021790555060208201518160000160016101000a81548160ff02191690831515021790555060408201518160000160026101000a81548160ff021916908315150217905550606082015181600101556080820151816002015560a0820151816003015590505060016007600062000215856200029860201b60201c565b81526020019081526020016000206000828254620002349190620004fc565b925050819055506000600360006101000a81548160ff0219169083600381111562000288577f4e487b7100000000000000000000000000000000000000000000000000000000600052602160045260246000fd5b0217905550505050505062000681565b600080829050600081511415620002b6576000801b915050620002bf565b60208301519150505b919050565b6040518060c001604052806000151581526020016000151581526020016000151581526020016000815260200160008019168152602001600081525090565b60006200031a6200031484620004b5565b6200048c565b9050828152602081018484840111156200033357600080fd5b6200034084828562000563565b509392505050565b600082601f8301126200035a57600080fd5b81516200036c84826020860162000303565b91505092915050565b600081519050620003868162000667565b92915050565b60008060008060808587031215620003a357600080fd5b600085015167ffffffffffffffff811115620003be57600080fd5b620003cc8782880162000348565b945050602085015167ffffffffffffffff811115620003ea57600080fd5b620003f88782880162000348565b93505060406200040b8782880162000375565b925050606085015167ffffffffffffffff8111156200042957600080fd5b620004378782880162000348565b91505092959194509250565b600062000452601883620004eb565b91506200045f826200063e565b602082019050919050565b60006020820190508181036000830152620004858162000443565b9050919050565b600062000498620004ab565b9050620004a6828262000599565b919050565b6000604051905090565b600067ffffffffffffffff821115620004d357620004d2620005fe565b5b620004de826200062d565b9050602081019050919050565b600082825260208201905092915050565b6000620005098262000559565b9150620005168362000559565b9250827fffffffffffffffffffffffffffffffffffffffffffffffffffffffffffffffff038211156200054e576200054d620005cf565b5b828201905092915050565b6000819050919050565b60005b838110156200058357808201518184015260208101905062000566565b8381111562000593576000848401525b50505050565b620005a4826200062d565b810181811067ffffffffffffffff82111715620005c657620005c5620005fe565b5b80604052505050565b7f4e487b7100000000000000000000000000000000000000000000000000000000600052601160045260246000fd5b7f4e487b7100000000000000000000000000000000000000000000000000000000600052604160045260246000fd5b6000601f19601f8301169050919050565b7f506c65617365207370656369667920796f757220617265610000000000000000600082015250565b620006728162000559565b81146200067e57600080fd5b50565b61360b80620006916000396000f3fe608060405234801561001057600080fd5b50600436106100ea5760003560e01c80639e7b8d611161008c578063b38b25ad11610066578063b38b25ad14610239578063ceff34c214610269578063cf99cd1e1461029a578063dc703cf2146102ca576100ea565b80639e7b8d61146101e3578063a8e15990146101ff578063afd710b61461021b576100ea565b806348a8f010116100c857806348a8f0101461015757806362845caa146101895780638412e667146101a757806399cab9da146101b1576100ea565b80630891d358146100ef57806325d3a09d1461010b5780634512e9081461013b575b600080fd5b61010960048036038101906101049190612449565b6102e6565b005b610125600480360381019061012091906121db565b610ad2565b60405161013291906129c7565b60405180910390f35b61015560048036038101906101509190612288565b610b6a565b005b610171600480360381019061016c919061219f565b610c5b565b60405161018093929190612a27565b60405180910390f35b610191610ca2565b60405161019e9190612a5e565b60405180910390f35b6101af610cb9565b005b6101cb60048036038101906101c6919061221c565b610f57565b6040516101da939291906129e9565b60405180910390f35b6101fd60048036038101906101f89190612176565b6110ff565b005b61021960048036038101906102149190612307565b611464565b005b610223611649565b60405161023091906129a5565b60405180910390f35b610253600480360381019061024e91906121db565b611765565b6040516102609190612d89565b60405180910390f35b610283600480360381019061027e91906121db565b61178a565b604051610291929190612a79565b60405180910390f35b6102b460048036038101906102af91906121db565b6118a9565b6040516102c19190612d89565b60405180910390f35b6102e460048036038101906102df919061239e565b6118ce565b005b6102ef83611e19565b82826002600381111561032b577f4e487b7100000000000000000000000000000000000000000000000000000000600052602160045260246000fd5b600360009054906101000a900460ff166003811115610373577f4e487b7100000000000000000000000000000000000000000000000000000000600052602160045260246000fd5b146103b3576040517f08c379a00000000000000000000000000000000000000000000000000000000081526004016103aa90612b69565b60405180910390fd5b3373ffffffffffffffffffffffffffffffffffffffff16600c600085815260200190815260200160002060010160009054906101000a900473ffffffffffffffffffffffffffffffffffffffff1673ffffffffffffffffffffffffffffffffffffffff16148061047b57508260025414801561047a57503373ffffffffffffffffffffffffffffffffffffffff1660008054906101000a900473ffffffffffffffffffffffffffffffffffffffff1673ffffffffffffffffffffffffffffffffffffffff16145b5b6104ba576040517f08c379a00000000000000000000000000000000000000000000000000000000081526004016104b190612ca9565b60405180910390fd5b6000600560003373ffffffffffffffffffffffffffffffffffffffff1673ffffffffffffffffffffffffffffffffffffffff1681526020019081526020016000206040518060c00160405290816000820160009054906101000a900460ff161515151581526020016000820160019054906101000a900460ff161515151581526020016000820160029054906101000a900460ff161515151581526020016001820154815260200160028201548152602001600382015481525050905080600001516105bb576040517f08c379a00000000000000000000000000000000000000000000000000000000081526004016105b290612ba9565b60405180910390fd5b80602001516105ff576040517f08c379a00000000000000000000000000000000000000000000000000000000081526004016105f690612d09565b60405180910390fd5b806040015115610644576040517f08c379a000000000000000000000000000000000000000000000000000000000815260040161063b90612bc9565b60405180910390fd5b828160a001511461068a576040517f08c379a000000000000000000000000000000000000000000000000000000000815260040161068190612b09565b60405180910390fd5b600060066000836080015181526020019081526020016000208054905014156106e8576040517f08c379a00000000000000000000000000000000000000000000000000000000081526004016106df90612cc9565b60405180910390fd5b816006600083608001518152602001908152602001600020805490501015610745576040517f08c379a000000000000000000000000000000000000000000000000000000000815260040161073c90612c49565b60405180910390fd5b6000600560003373ffffffffffffffffffffffffffffffffffffffff1673ffffffffffffffffffffffffffffffffffffffff1681526020019081526020016000206040518060c00160405290816000820160009054906101000a900460ff161515151581526020016000820160019054906101000a900460ff161515151581526020016000820160029054906101000a900460ff161515151581526020016001820154815260200160028201548152602001600382015481525050905060018160400190151590811515815250508581606001818152505060006006600083608001518152602001908152602001600020878154811061086e577f4e487b7100000000000000000000000000000000000000000000000000000000600052603260045260246000fd5b9060005260206000209060030201604051806060016040529081600082015481526020016001820154815260200160028201548152505090506001816040018181516108ba9190612e88565b915081815250508060066000846080015181526020019081526020016000208881548110610911577f4e487b7100000000000000000000000000000000000000000000000000000000600052603260045260246000fd5b906000526020600020906003020160008201518160000155602082015181600101556040820151816002015590505081600560003373ffffffffffffffffffffffffffffffffffffffff1673ffffffffffffffffffffffffffffffffffffffff16815260200190815260200160002060008201518160000160006101000a81548160ff02191690831515021790555060208201518160000160016101000a81548160ff02191690831515021790555060408201518160000160026101000a81548160ff021916908315150217905550606082015181600101556080820151816002015560a08201518160030155905050600160086000846080015181526020019081526020016000206000828254610a299190612e88565b9250508190555060006009600084608001518152602001908152602001600020604051806040016040529081600082015481526020016001820154815250509050816040015181602001511015610ac6578160000151816000018181525050816040015181602001818152505080600960008560800151815260200190815260200160002060008201518160000155602082015181600101559050505b50505050505050505050565b606060066000610ae184611e19565b8152602001908152602001600020805480602002602001604051908101604052809291908181526020016000905b82821015610b5f5783829060005260206000209060030201604051806060016040529081600082015481526020016001820154815260200160028201548152505081526020019060010190610b0f565b505050509050919050565b60008054906101000a900473ffffffffffffffffffffffffffffffffffffffff1673ffffffffffffffffffffffffffffffffffffffff163373ffffffffffffffffffffffffffffffffffffffff1614610bf8576040517f08c379a0000000000000000000000000000000000000000000000000000000008152600401610bef90612c09565b60405180910390fd5b806000806101000a81548173ffffffffffffffffffffffffffffffffffffffff021916908373ffffffffffffffffffffffffffffffffffffffff160217905550610c4183611e19565b600281905550610c5082611e19565b600181905550505050565b60066020528160005260406000208181548110610c7757600080fd5b9060005260206000209060030201600091509150508060000154908060010154908060020154905083565b6000600360009054906101000a900460ff16905090565b60008054906101000a900473ffffffffffffffffffffffffffffffffffffffff1673ffffffffffffffffffffffffffffffffffffffff163373ffffffffffffffffffffffffffffffffffffffff1614610d47576040517f08c379a0000000000000000000000000000000000000000000000000000000008152600401610d3e90612ce9565b60405180910390fd5b60006003811115610d81577f4e487b7100000000000000000000000000000000000000000000000000000000600052602160045260246000fd5b600360009054906101000a900460ff166003811115610dc9577f4e487b7100000000000000000000000000000000000000000000000000000000600052602160045260246000fd5b1415610e25576001600360006101000a81548160ff02191690836003811115610e1b577f4e487b7100000000000000000000000000000000000000000000000000000000600052602160045260246000fd5b0217905550610f55565b60016003811115610e5f577f4e487b7100000000000000000000000000000000000000000000000000000000600052602160045260246000fd5b600360009054906101000a900460ff166003811115610ea7577f4e487b7100000000000000000000000000000000000000000000000000000000600052602160045260246000fd5b1415610f03576002600360006101000a81548160ff02191690836003811115610ef9577f4e487b7100000000000000000000000000000000000000000000000000000000600052602160045260246000fd5b0217905550610f54565b60038060006101000a81548160ff02191690836003811115610f4e577f4e487b7100000000000000000000000000000000000000000000000000000000600052602160045260246000fd5b02179055505b5b565b60008060606000600c6000610f6b88611e19565b8152602001908152602001600020604051806040016040529081600082015481526020016001820160009054906101000a900473ffffffffffffffffffffffffffffffffffffffff1673ffffffffffffffffffffffffffffffffffffffff1673ffffffffffffffffffffffffffffffffffffffff16815250509050600060056000836020015173ffffffffffffffffffffffffffffffffffffffff1673ffffffffffffffffffffffffffffffffffffffff1681526020019081526020016000206040518060c00160405290816000820160009054906101000a900460ff161515151581526020016000820160019054906101000a900460ff161515151581526020016000820160029054906101000a900460ff16151515158152602001600182015481526020016002820154815260200160038201548152505090506110b086611e19565b826000015114156110dc5760018160a001516110cf8360800151611e43565b94509450945050506110f8565b6000806040518060200160405280600081525094509450945050505b9250925092565b8060008054906101000a900473ffffffffffffffffffffffffffffffffffffffff1673ffffffffffffffffffffffffffffffffffffffff163373ffffffffffffffffffffffffffffffffffffffff161461118e576040517f08c379a000000000000000000000000000000000000000000000000000000000815260040161118590612c29565b60405180910390fd5b600160038111156111c8577f4e487b7100000000000000000000000000000000000000000000000000000000600052602160045260246000fd5b600360009054906101000a900460ff166003811115611210577f4e487b7100000000000000000000000000000000000000000000000000000000600052602160045260246000fd5b14611250576040517f08c379a000000000000000000000000000000000000000000000000000000000815260040161124790612ac9565b60405180910390fd5b600560008273ffffffffffffffffffffffffffffffffffffffff1673ffffffffffffffffffffffffffffffffffffffff16815260200190815260200160002060000160009054906101000a900460ff166112df576040517f08c379a00000000000000000000000000000000000000000000000000000000081526004016112d690612ae9565b60405180910390fd5b600560008273ffffffffffffffffffffffffffffffffffffffff1673ffffffffffffffffffffffffffffffffffffffff16815260200190815260200160002060000160029054906101000a900460ff161561136f576040517f08c379a000000000000000000000000000000000000000000000000000000000815260040161136690612d49565b60405180910390fd5b60001515600560008373ffffffffffffffffffffffffffffffffffffffff1673ffffffffffffffffffffffffffffffffffffffff16815260200190815260200160002060000160019054906101000a900460ff16151514611405576040517f08c379a00000000000000000000000000000000000000000000000000000000081526004016113fc90612b89565b60405180910390fd5b6001600560008473ffffffffffffffffffffffffffffffffffffffff1673ffffffffffffffffffffffffffffffffffffffff16815260200190815260200160002060000160016101000a81548160ff0219169083151502179055505050565b60008054906101000a900473ffffffffffffffffffffffffffffffffffffffff1673ffffffffffffffffffffffffffffffffffffffff163373ffffffffffffffffffffffffffffffffffffffff16146114f2576040517f08c379a00000000000000000000000000000000000000000000000000000000081526004016114e990612c69565b60405180910390fd5b6000600381111561152c577f4e487b7100000000000000000000000000000000000000000000000000000000600052602160045260246000fd5b600360009054906101000a900460ff166003811115611574577f4e487b7100000000000000000000000000000000000000000000000000000000600052602160045260246000fd5b146115b4576040517f08c379a00000000000000000000000000000000000000000000000000000000081526004016115ab90612d69565b60405180910390fd5b600660006115c183611e19565b815260200190815260200160002060405180606001604052806115e386611e19565b81526020016115f185611e19565b8152602001600081525090806001815401808255809150506001900390600052602060002090600302016000909190919091506000820151816000015560208201518160010155604082015181600201555050505050565b606060008054906101000a900473ffffffffffffffffffffffffffffffffffffffff1673ffffffffffffffffffffffffffffffffffffffff163373ffffffffffffffffffffffffffffffffffffffff16146116d9576040517f08c379a00000000000000000000000000000000000000000000000000000000081526004016116d090612be9565b60405180910390fd5b600480548060200260200160405190810160405280929190818152602001828054801561175b57602002820191906000526020600020905b8160009054906101000a900473ffffffffffffffffffffffffffffffffffffffff1673ffffffffffffffffffffffffffffffffffffffff1681526020019060010190808311611711575b5050505050905090565b60006007600061177484611e19565b8152602001908152602001600020549050919050565b606060006003808111156117c7577f4e487b7100000000000000000000000000000000000000000000000000000000600052602160045260246000fd5b600360009054906101000a900460ff16600381111561180f577f4e487b7100000000000000000000000000000000000000000000000000000000600052602160045260246000fd5b1461184f576040517f08c379a000000000000000000000000000000000000000000000000000000000815260040161184690612c89565b60405180910390fd5b60006009600061185e86611e19565b815260200190815260200160002060405180604001604052908160008201548152602001600182015481525050905061189a8160000151611e43565b81602001519250925050915091565b6000600860006118b884611e19565b8152602001908152602001600020549050919050565b600560003373ffffffffffffffffffffffffffffffffffffffff1673ffffffffffffffffffffffffffffffffffffffff1681526020019081526020016000206040518060c00160405290816000820160009054906101000a900460ff161515151581526020016000820160019054906101000a900460ff161515151581526020016000820160029054906101000a900460ff16151515158152602001600182015481526020016002820154815260200160038201548152505061199085611e19565b83600060038111156119cb577f4e487b7100000000000000000000000000000000000000000000000000000000600052602160045260246000fd5b600360009054906101000a900460ff166003811115611a13577f4e487b7100000000000000000000000000000000000000000000000000000000600052602160045260246000fd5b14611a53576040517f08c379a0000000000000000000000000000000000000000000000000000000008152600401611a4a90612d29565b60405180910390fd5b600a600083815260200190815260200160002060009054906101000a900460ff1615611ab4576040517f08c379a0000000000000000000000000000000000000000000000000000000008152600401611aab90612b29565b60405180910390fd5b600b600082815260200190815260200160002060009054906101000a900460ff1615611b15576040517f08c379a0000000000000000000000000000000000000000000000000000000008152600401611b0c90612aa9565b60405180910390fd5b826000015115611b5a576040517f08c379a0000000000000000000000000000000000000000000000000000000008152600401611b5190612b49565b60405180910390fd5b6040518060c0016040528060011515815260200160001515815260200160001515815260200160008152602001611b9086611e19565b815260200186815250600560003373ffffffffffffffffffffffffffffffffffffffff1673ffffffffffffffffffffffffffffffffffffffff16815260200190815260200160002060008201518160000160006101000a81548160ff02191690831515021790555060208201518160000160016101000a81548160ff02191690831515021790555060408201518160000160026101000a81548160ff021916908315150217905550606082015181600101556080820151816002015560a08201518160030155905050600160076000611c6887611e19565b81526020019081526020016000206000828254611c859190612e88565b925050819055506000611c9788611e19565b90506001600a600083815260200190815260200160002060006101000a81548160ff0219169083151502179055506001600b600088815260200190815260200160002060006101000a81548160ff0219169083151502179055506004339080600181540180825580915050600190039060005260206000200160009091909190916101000a81548173ffffffffffffffffffffffffffffffffffffffff021916908373ffffffffffffffffffffffffffffffffffffffff160217905550611d5c61209c565b611d6588611e19565b81600001818152505033816020019073ffffffffffffffffffffffffffffffffffffffff16908173ffffffffffffffffffffffffffffffffffffffff168152505080600c60008481526020019081526020016000206000820151816000015560208201518160010160006101000a81548173ffffffffffffffffffffffffffffffffffffffff021916908373ffffffffffffffffffffffffffffffffffffffff160217905550905050505050505050505050565b600080829050600081511415611e35576000801b915050611e3e565b60208301519150505b919050565b606060005b60208160ff16108015611ec05750600060f81b838260ff1660208110611e97577f4e487b7100000000000000000000000000000000000000000000000000000000600052603260045260246000fd5b1a60f81b7effffffffffffffffffffffffffffffffffffffffffffffffffffffffffffff191614155b15611ed8578080611ed090612fd5565b915050611e48565b60008160ff1667ffffffffffffffff811115611f1d577f4e487b7100000000000000000000000000000000000000000000000000000000600052604160045260246000fd5b6040519080825280601f01601f191660200182016040528015611f4f5781602001600182028036833780820191505090505b509050600091505b60208260ff16108015611fcf5750600060f81b848360ff1660208110611fa6577f4e487b7100000000000000000000000000000000000000000000000000000000600052603260045260246000fd5b1a60f81b7effffffffffffffffffffffffffffffffffffffffffffffffffffffffffffff191614155b1561209257838260ff1660208110612010577f4e487b7100000000000000000000000000000000000000000000000000000000600052603260045260246000fd5b1a60f81b818360ff1681518110612050577f4e487b7100000000000000000000000000000000000000000000000000000000600052603260045260246000fd5b60200101907effffffffffffffffffffffffffffffffffffffffffffffffffffffffffffff1916908160001a905350818061208a90612fd5565b925050611f57565b8092505050919050565b604051806040016040528060008019168152602001600073ffffffffffffffffffffffffffffffffffffffff1681525090565b60006120e26120dd84612dc9565b612da4565b9050828152602081018484840111156120fa57600080fd5b612105848285612f62565b509392505050565b60008135905061211c81613590565b92915050565b600081359050612131816135a7565b92915050565b600082601f83011261214857600080fd5b81356121588482602086016120cf565b91505092915050565b600081359050612170816135be565b92915050565b60006020828403121561218857600080fd5b60006121968482850161210d565b91505092915050565b600080604083850312156121b257600080fd5b60006121c085828601612122565b92505060206121d185828601612161565b9150509250929050565b6000602082840312156121ed57600080fd5b600082013567ffffffffffffffff81111561220757600080fd5b61221384828501612137565b91505092915050565b6000806040838503121561222f57600080fd5b600083013567ffffffffffffffff81111561224957600080fd5b61225585828601612137565b925050602083013567ffffffffffffffff81111561227257600080fd5b61227e85828601612137565b9150509250929050565b60008060006060848603121561229d57600080fd5b600084013567ffffffffffffffff8111156122b757600080fd5b6122c386828701612137565b935050602084013567ffffffffffffffff8111156122e057600080fd5b6122ec86828701612137565b92505060406122fd8682870161210d565b9150509250925092565b60008060006060848603121561231c57600080fd5b600084013567ffffffffffffffff81111561233657600080fd5b61234286828701612137565b935050602084013567ffffffffffffffff81111561235f57600080fd5b61236b86828701612137565b925050604084013567ffffffffffffffff81111561238857600080fd5b61239486828701612137565b9150509250925092565b600080600080608085870312156123b457600080fd5b600085013567ffffffffffffffff8111156123ce57600080fd5b6123da87828801612137565b945050602085013567ffffffffffffffff8111156123f757600080fd5b61240387828801612137565b935050604061241487828801612161565b925050606085013567ffffffffffffffff81111561243157600080fd5b61243d87828801612137565b91505092959194509250565b60008060006060848603121561245e57600080fd5b600084013567ffffffffffffffff81111561247857600080fd5b61248486828701612137565b935050602061249586828701612161565b92505060406124a686828701612161565b9150509250925092565b60006124bc83836124e0565b60208301905092915050565b60006124d48383612945565b60608301905092915050565b6124e981612ede565b82525050565b60006124fa82612e1a565b6125048185612e55565b935061250f83612dfa565b8060005b8381101561254057815161252788826124b0565b975061253283612e3b565b925050600181019050612513565b5085935050505092915050565b600061255882612e25565b6125628185612e66565b935061256d83612e0a565b8060005b8381101561259e57815161258588826124c8565b975061259083612e48565b925050600181019050612571565b5085935050505092915050565b6125b481612ef0565b82525050565b6125c381612efc565b82525050565b6125d281612efc565b82525050565b6125e181612f50565b82525050565b60006125f282612e30565b6125fc8185612e77565b935061260c818560208601612f71565b6126158161308c565b840191505092915050565b600061262d602283612e77565b91506126388261309d565b604082019050919050565b6000612650602783612e77565b915061265b826130ec565b604082019050919050565b6000612673601983612e77565b915061267e8261313b565b602082019050919050565b6000612696603f83612e77565b91506126a182613164565b604082019050919050565b60006126b9601c83612e77565b91506126c4826131b3565b602082019050919050565b60006126dc601b83612e77565b91506126e7826131dc565b602082019050919050565b60006126ff601983612e77565b915061270a82613205565b602082019050919050565b6000612722601e83612e77565b915061272d8261322e565b602082019050919050565b6000612745601983612e77565b915061275082613257565b602082019050919050565b6000612768600e83612e77565b915061277382613280565b602082019050919050565b600061278b603283612e77565b9150612796826132a9565b604082019050919050565b60006127ae602b83612e77565b91506127b9826132f8565b604082019050919050565b60006127d1602883612e77565b91506127dc82613347565b604082019050919050565b60006127f4601f83612e77565b91506127ff82613396565b602082019050919050565b6000612817602783612e77565b9150612822826133bf565b604082019050919050565b600061283a601883612e77565b91506128458261340e565b602082019050919050565b600061285d602083612e77565b915061286882613437565b602082019050919050565b6000612880601d83612e77565b915061288b82613460565b602082019050919050565b60006128a3602583612e77565b91506128ae82613489565b604082019050919050565b60006128c6601583612e77565b91506128d1826134d8565b602082019050919050565b60006128e9601483612e77565b91506128f482613501565b602082019050919050565b600061290c601883612e77565b91506129178261352a565b602082019050919050565b600061292f601483612e77565b915061293a82613553565b602082019050919050565b60608201600082015161295b60008501826125ba565b50602082015161296e60208501826125ba565b5060408201516129816040850182612987565b50505050565b61299081612f39565b82525050565b61299f81612f39565b82525050565b600060208201905081810360008301526129bf81846124ef565b905092915050565b600060208201905081810360008301526129e1818461254d565b905092915050565b60006060820190506129fe60008301866125ab565b612a0b6020830185612996565b8181036040830152612a1d81846125e7565b9050949350505050565b6000606082019050612a3c60008301866125c9565b612a4960208301856125c9565b612a566040830184612996565b949350505050565b6000602082019050612a7360008301846125d8565b92915050565b60006040820190508181036000830152612a9381856125e7565b9050612aa26020830184612996565b9392505050565b60006020820190508181036000830152612ac281612620565b9050919050565b60006020820190508181036000830152612ae281612643565b9050919050565b60006020820190508181036000830152612b0281612666565b9050919050565b60006020820190508181036000830152612b2281612689565b9050919050565b60006020820190508181036000830152612b42816126ac565b9050919050565b60006020820190508181036000830152612b62816126cf565b9050919050565b60006020820190508181036000830152612b82816126f2565b9050919050565b60006020820190508181036000830152612ba281612715565b9050919050565b60006020820190508181036000830152612bc281612738565b9050919050565b60006020820190508181036000830152612be28161275b565b9050919050565b60006020820190508181036000830152612c028161277e565b9050919050565b60006020820190508181036000830152612c22816127a1565b9050919050565b60006020820190508181036000830152612c42816127c4565b9050919050565b60006020820190508181036000830152612c62816127e7565b9050919050565b60006020820190508181036000830152612c828161280a565b9050919050565b60006020820190508181036000830152612ca28161282d565b9050919050565b60006020820190508181036000830152612cc281612850565b9050919050565b60006020820190508181036000830152612ce281612873565b9050919050565b60006020820190508181036000830152612d0281612896565b9050919050565b60006020820190508181036000830152612d22816128b9565b9050919050565b60006020820190508181036000830152612d42816128dc565b9050919050565b60006020820190508181036000830152612d62816128ff565b9050919050565b60006020820190508181036000830152612d8281612922565b9050919050565b6000602082019050612d9e6000830184612996565b92915050565b6000612dae612dbf565b9050612dba8282612fa4565b919050565b6000604051905090565b600067ffffffffffffffff821115612de457612de361305d565b5b612ded8261308c565b9050602081019050919050565b6000819050602082019050919050565b6000819050602082019050919050565b600081519050919050565b600081519050919050565b600081519050919050565b6000602082019050919050565b6000602082019050919050565b600082825260208201905092915050565b600082825260208201905092915050565b600082825260208201905092915050565b6000612e9382612f39565b9150612e9e83612f39565b9250827fffffffffffffffffffffffffffffffffffffffffffffffffffffffffffffffff03821115612ed357612ed2612fff565b5b828201905092915050565b6000612ee982612f19565b9050919050565b60008115159050919050565b6000819050919050565b6000819050612f148261357c565b919050565b600073ffffffffffffffffffffffffffffffffffffffff82169050919050565b6000819050919050565b600060ff82169050919050565b6000612f5b82612f06565b9050919050565b82818337600083830152505050565b60005b83811015612f8f578082015181840152602081019050612f74565b83811115612f9e576000848401525b50505050565b612fad8261308c565b810181811067ffffffffffffffff82111715612fcc57612fcb61305d565b5b80604052505050565b6000612fe082612f43565b915060ff821415612ff457612ff3612fff565b5b600182019050919050565b7f4e487b7100000000000000000000000000000000000000000000000000000000600052601160045260246000fd5b7f4e487b7100000000000000000000000000000000000000000000000000000000600052602160045260246000fd5b7f4e487b7100000000000000000000000000000000000000000000000000000000600052604160045260246000fd5b6000601f19601f8301169050919050565b7f54686973204164686172204e756d62657220697320616c72656479207072657360008201527f6574000000000000000000000000000000000000000000000000000000000000602082015250565b7f56616c69646174696f6e2070726f6365737320686173206e6f74206265656e2060008201527f7374617274656400000000000000000000000000000000000000000000000000602082015250565b7f766f746572206973206e6f742072656769737465722079657400000000000000600082015250565b7f416164686172204e756d626572206d697373206d6174636820706c656173652060008201527f656e746572207265676973746572656420416164686172204e756d6265722e00602082015250565b7f5468697320456d61696c20697320616c726564792070726573656e7400000000600082015250565b7f596f75206861766520616c726561647920726567697374657265640000000000600082015250565b7f566f74696e67207374616765206973206e6f7420737461727400000000000000600082015250565b7f54686520766f74657220697320616c7265647920617574686f72697a65640000600082015250565b7f596f7520617265206e6f74207265676973746572207965742e00000000000000600082015250565b7f416c726561647920766f7465642e000000000000000000000000000000000000600082015250565b7f4f6e6c7920436861697220706572736f6e206861766520726967687420746f2060008201527f63616c6c20746869732066756e6374696f6e0000000000000000000000000000602082015250565b7f4f6e6c79204368616972706572736f6e2063616e2061737369676e206e65772060008201527f4368616972706572736f6e000000000000000000000000000000000000000000602082015250565b7f4f6e6c79206368616972706572736f6e2063616e20676976652072696768742060008201527f746f20766f74652e000000000000000000000000000000000000000000000000602082015250565b7f596f7520686176652063686f6f736520776f726e672070726f706f73616c2e00600082015250565b7f4f6e6c79206368616972706572736f6e2072696768747320746f20616464207060008201527f726f706f73616c00000000000000000000000000000000000000000000000000602082015250565b7f566f74696e672070726f63657373206e6f7420636c6f73650000000000000000600082015250565b7f77652063616e6e27742076616c69646174657320796f7572206163636f756e74600082015250565b7f5468657265206973206e6f2070726f706f73616c20746f20766f74652e000000600082015250565b7f4f6e6c79204368616972706572736f6e2063616e206368616e6765207468652060008201527f7374617465000000000000000000000000000000000000000000000000000000602082015250565b7f486173206e6f20726967687420746f20766f74652e0000000000000000000000600082015250565b7f526567697374726174696f6e206973204f766572000000000000000000000000600082015250565b7f54686520766f74657220616c726561647920766f7465642e0000000000000000600082015250565b7f526567697374726174696f6e206973206f766572000000000000000000000000600082015250565b6004811061358d5761358c61302e565b5b50565b61359981612ede565b81146135a457600080fd5b50565b6135b081612efc565b81146135bb57600080fd5b50565b6135c781612f39565b81146135d257600080fd5b5056fea26469706673582212200002035756a472723922ed14cacd7fde1a5ebf4d510756cf268616375e7ea21864736f6c63430008040033",
  "immutableReferences": {},
  "source": "// SPDX-License-Identifier: MIT\r\npragma solidity >=0.4.22 <0.9.0;\r\n\r\n/**\r\n * @title Ballot\r\n * @dev Implements voting process along with vote delegation\r\n */\r\ncontract E_voting_system {\r\n    //variable declaration\r\n\r\n    struct Voter_login_details {\r\n        bytes32 pass;\r\n        address voter;\r\n    }\r\n\r\n    struct Voter {\r\n        bool is_reg;\r\n        bool is_authorized; // is voter is authorize to vote\r\n        bool voted; // if true, that person already voted\r\n        uint256 vote; // index of the voted proposal\r\n        bytes32 area; // area of voter\r\n        uint256 Aadhar; //Aadhar card number\r\n    }\r\n\r\n    struct Proposal {\r\n        // If you can limit the length to a certain number of bytes,\r\n        // always use one of bytes1 to bytes32 because they are much cheaper\r\n        bytes32 name; // short name (up to 32 bytes)\r\n        bytes32 party;\r\n        uint256 voteCount; // number of accumulated votes\r\n    }\r\n    struct winner_in_area {\r\n        bytes32 name;\r\n        uint256 voteCount;\r\n    }\r\n\r\n    address private chairperson;\r\n    bytes32 private chair_pass;\r\n    bytes32 private chair_email;\r\n\r\n    enum voting_state {\r\n        reg,\r\n        validation,\r\n        voting,\r\n        close\r\n    }\r\n\r\n    voting_state private state;\r\n    address[] voter_address;\r\n    mapping(address => Voter) private voters;\r\n    mapping(bytes32 => Proposal[]) public area_proposal;\r\n    mapping(bytes32 => uint256) private reg_voter_count_per_area;\r\n    mapping(bytes32 => uint256) private vote_count_per_area;\r\n    mapping(bytes32 => winner_in_area) private winner_per_area;\r\n    mapping(bytes32 => bool) private email_validation;\r\n    mapping(uint256 => bool) private Aadhar_validation;\r\n    mapping(bytes32 => Voter_login_details) private login_details;\r\n\r\n    /**\r\n     * @dev constructor create an owner an set the right to vote for the owner.\r\n     */\r\n    constructor(\r\n        string memory email,\r\n        string memory pass,\r\n        uint256 Aadhar,\r\n        string memory area\r\n    ) {\r\n        require(bytes(area).length != 0, \"Please specify your area\");\r\n        chairperson = msg.sender;\r\n        chair_email = stringToBytes32(email);\r\n        chair_pass = stringToBytes32(pass);\r\n        Voter memory sender;\r\n        sender.is_authorized = true;\r\n        sender.is_reg = true;\r\n        sender.area = stringToBytes32(area);\r\n        sender.Aadhar = Aadhar;\r\n        voters[msg.sender] = sender;\r\n        reg_voter_count_per_area[stringToBytes32(area)] += 1;\r\n        state = voting_state.reg;\r\n    }\r\n\r\n    // Modifiers\r\n\r\n    modifier Only_chairperson() {\r\n        require(\r\n            msg.sender == chairperson,\r\n            \"Only chairperson rights to add proposal\"\r\n        );\r\n        require(state == voting_state.reg, \"Registration is over\");\r\n        _;\r\n    }\r\n\r\n    modifier check_for_right(address voter) {\r\n        require(\r\n            msg.sender == chairperson,\r\n            \"Only chairperson can give right to vote.\"\r\n        );\r\n        require(\r\n            state == voting_state.validation,\r\n            \"Validation process has not been started\"\r\n        );\r\n        require(voters[voter].is_reg, \"voter is not register yet\");\r\n        require(!voters[voter].voted, \"The voter already voted.\");\r\n        require(\r\n            voters[voter].is_authorized == false,\r\n            \"The voter is alredy authorized\"\r\n        );\r\n        _;\r\n    }\r\n\r\n    modifier check_status(\r\n        Voter memory voter,\r\n        bytes32 email,\r\n        uint256 Aadhar\r\n    ) {\r\n        require(state == voting_state.reg, \"Registration is Over\");\r\n        require(!email_validation[email], \"This Email is alredy present\");\r\n        require(\r\n            !Aadhar_validation[Aadhar],\r\n            \"This Adhar Number is alredy preset\"\r\n        );\r\n        require(!voter.is_reg, \"You have already registered\");\r\n        _;\r\n    }\r\n\r\n    modifier Only_auth_non_voted_voters(\r\n        bytes32 email,\r\n        uint256 Aadhar,\r\n        uint256 proposal\r\n    ) {\r\n        require(state == voting_state.voting, \"Voting stage is not start\");\r\n        require(\r\n            ((login_details[email].voter == msg.sender) ||\r\n                (chair_email == email && chairperson == msg.sender)),\r\n            \"we cann't validates your account\"\r\n        );\r\n        Voter memory sender = voters[msg.sender];\r\n        require(sender.is_reg, \"You are not register yet.\");\r\n        require(sender.is_authorized, \"Has no right to vote.\");\r\n        require(!sender.voted, \"Already voted.\");\r\n        require(\r\n            sender.Aadhar == Aadhar,\r\n            \"Aadhar Number miss match please enter registered Aadhar Number.\"\r\n        );\r\n        require(\r\n            area_proposal[sender.area].length != 0,\r\n            \"There is no proposal to vote.\"\r\n        );\r\n        require(\r\n            area_proposal[sender.area].length >= proposal,\r\n            \"You have choose worng proposal.\"\r\n        );\r\n        _;\r\n    }\r\n\r\n    //event\r\n    // event state_change(voting_state state);\r\n\r\n    // Functions\r\n\r\n    // This function is used by the chairperson only to add the Proposal\r\n    function addProposal(\r\n        string memory nme,\r\n        string memory prty,\r\n        string memory area\r\n    ) public Only_chairperson {\r\n        area_proposal[stringToBytes32(area)].push(\r\n            Proposal({\r\n                name: stringToBytes32(nme),\r\n                party: stringToBytes32(prty),\r\n                voteCount: 0\r\n            })\r\n        );\r\n    }\r\n\r\n    /**\r\n     * @dev Give 'voter' the right to vote on this ballot. May only be called by 'chairperson'.\r\n     * @param voter address of voter\r\n     */\r\n\r\n    function giveRightToVote(address voter) public check_for_right(voter) {\r\n        voters[voter].is_authorized = true;\r\n    }\r\n\r\n    // This function is used by the voter to register yourself\r\n    function voter_reg(\r\n        string memory email,\r\n        string memory pass,\r\n        uint256 Aadhar,\r\n        string memory ara\r\n    ) public check_status(voters[msg.sender], stringToBytes32(email), Aadhar) {\r\n        voters[msg.sender] = Voter({\r\n            is_reg: true,\r\n            is_authorized: false,\r\n            voted: false,\r\n            vote: 0,\r\n            area: stringToBytes32(ara),\r\n            Aadhar: Aadhar\r\n        });\r\n        reg_voter_count_per_area[stringToBytes32(ara)] += 1;\r\n        bytes32 em = stringToBytes32(email);\r\n        email_validation[em] = true;\r\n        Aadhar_validation[Aadhar] = true;\r\n        voter_address.push(msg.sender);\r\n        Voter_login_details memory vrdt;\r\n        vrdt.pass = stringToBytes32(pass);\r\n        vrdt.voter = msg.sender;\r\n        login_details[em] = vrdt;\r\n    }\r\n\r\n    /**\r\n     * @dev Give your vote (including votes delegated to you) to proposal 'proposals[proposal].name'.\r\n     * @param proposal index of proposal in the proposals array\r\n     */\r\n\r\n    function vote(\r\n        string memory email,\r\n        uint256 Aadhar,\r\n        uint256 proposal\r\n    )\r\n        public\r\n        Only_auth_non_voted_voters(stringToBytes32(email), Aadhar, proposal)\r\n    {\r\n        Voter memory sender = voters[msg.sender];\r\n        sender.voted = true;\r\n        sender.vote = proposal;\r\n        Proposal memory p = area_proposal[sender.area][proposal];\r\n        p.voteCount += 1;\r\n        area_proposal[sender.area][proposal] = p;\r\n        voters[msg.sender] = sender;\r\n        vote_count_per_area[sender.area] += 1;\r\n        winner_in_area memory w = winner_per_area[sender.area];\r\n        if (w.voteCount < p.voteCount) {\r\n            w.name = p.name;\r\n            w.voteCount = p.voteCount;\r\n            winner_per_area[sender.area] = w;\r\n        }\r\n    }\r\n\r\n    /**\r\n     * @return winnerName_ the name of the winner\r\n     */\r\n    function winnerNME_Vcount(string memory area)\r\n        public\r\n        view\r\n        returns (string memory, uint256)\r\n    {\r\n        require(state == voting_state.close, \"Voting process not close\");\r\n        winner_in_area memory w = winner_per_area[stringToBytes32(area)];\r\n        return (bytes32ToString(w.name), w.voteCount);\r\n    }\r\n\r\n    function changeState() public {\r\n        require(\r\n            msg.sender == chairperson,\r\n            \"Only Chairperson can change the state\"\r\n        );\r\n        if (state == voting_state.reg) {\r\n            state = voting_state.validation;\r\n        } else if (state == voting_state.validation) {\r\n            state = voting_state.voting;\r\n        } else {\r\n            state = voting_state.close;\r\n        }\r\n    }\r\n\r\n    function changeChairperson(\r\n        string memory newEmail,\r\n        string memory newPass,\r\n        address newChairperson\r\n    ) public {\r\n        require(\r\n            msg.sender == chairperson,\r\n            \"Only Chairperson can assign new Chairperson\"\r\n        );\r\n        chairperson = newChairperson;\r\n        chair_email = stringToBytes32(newEmail);\r\n        chair_pass = stringToBytes32(newPass);\r\n    }\r\n\r\n    function check_state() public view returns (voting_state st) {\r\n        return state;\r\n    }\r\n\r\n    function vote_count(string memory area) public view returns (uint256) {\r\n        return vote_count_per_area[stringToBytes32(area)];\r\n    }\r\n\r\n    function voter_count(string memory area) public view returns (uint256) {\r\n        return reg_voter_count_per_area[stringToBytes32(area)];\r\n    }\r\n\r\n    function voterLogin(string memory email, string memory pass)\r\n        public\r\n        view\r\n        returns (\r\n            bool status,\r\n            uint256 Aadhar,\r\n            string memory area\r\n        )\r\n    {\r\n        Voter_login_details memory v_details = login_details[\r\n            stringToBytes32(email)\r\n        ];\r\n        Voter memory voter = voters[v_details.voter];\r\n        if (v_details.pass == stringToBytes32(pass))\r\n            return (true, voter.Aadhar, bytes32ToString(voter.area));\r\n        else return (false, 0, \"\");\r\n    }\r\n\r\n    function unreg_voters() public view returns (address[] memory) {\r\n        require(\r\n            msg.sender == chairperson,\r\n            \"Only Chair person have right to call this function\"\r\n        );\r\n        return voter_address;\r\n    }\r\n\r\n    function chair_login(string memory email, string memory pass)\r\n        private\r\n        view\r\n        returns (bool)\r\n    {\r\n        return\r\n            chair_email == stringToBytes32(email) &&\r\n            chair_pass == stringToBytes32(pass);\r\n    }\r\n\r\n    function getProposal(string memory area)\r\n        public\r\n        view\r\n        returns (Proposal[] memory)\r\n    {\r\n        return area_proposal[stringToBytes32(area)];\r\n    }\r\n\r\n    function stringToBytes32(string memory source)\r\n        private\r\n        pure\r\n        returns (bytes32 result)\r\n    {\r\n        bytes memory tempEmptyStringTest = bytes(source);\r\n        if (tempEmptyStringTest.length == 0) {\r\n            return 0x0;\r\n        }\r\n\r\n        assembly {\r\n            result := mload(add(source, 32))\r\n        }\r\n    }\r\n\r\n    function bytes32ToString(bytes32 _bytes32)\r\n        private\r\n        pure\r\n        returns (string memory)\r\n    {\r\n        uint8 i = 0;\r\n        while (i < 32 && _bytes32[i] != 0) {\r\n            i++;\r\n        }\r\n        bytes memory bytesArray = new bytes(i);\r\n        for (i = 0; i < 32 && _bytes32[i] != 0; i++) {\r\n            bytesArray[i] = _bytes32[i];\r\n        }\r\n        return string(bytesArray);\r\n    }\r\n}\r\n",
  "sourcePath": "C:/Users/Bismay Kumar Rana/Desktop/Block chain dev/contracts/E_voting_system.sol",
  "compiler": {
    "name": "solc",
    "version": "0.8.4+commit.c7e474f2.Emscripten.clang"
  },
  "schemaVersion": "3.3.4",
  "updatedAt": "2022-06-19T19:02:43.603Z",
  "networkType": "ethereum",
  "devdoc": {
    "details": "Implements voting process along with vote delegation",
    "kind": "dev",
    "methods": {
      "constructor": {
        "details": "constructor create an owner an set the right to vote for the owner."
      },
      "giveRightToVote(address)": {
        "details": "Give 'voter' the right to vote on this ballot. May only be called by 'chairperson'.",
        "params": {
          "voter": "address of voter"
        }
      },
      "vote(string,uint256,uint256)": {
        "details": "Give your vote (including votes delegated to you) to proposal 'proposals[proposal].name'.",
        "params": {
          "proposal": "index of proposal in the proposals array"
        }
      },
      "winnerNME_Vcount(string)": {
        "returns": {
          "_0": "winnerName_ the name of the winner"
        }
      }
    },
    "title": "Ballot",
    "version": 1
  },
  "userdoc": {
    "kind": "user",
    "methods": {},
    "version": 1
  }
}