{
  "contractName": "E_voting_system",
  "abi": [
    {
      "inputs": [
        {
          "internalType": "string",
          "name": "email",
          "type": "string"
        },
        {
          "internalType": "string",
          "name": "pass",
          "type": "string"
        },
        {
          "internalType": "uint256",
          "name": "Aadhar",
          "type": "uint256"
        },
        {
          "internalType": "string",
          "name": "area",
          "type": "string"
        }
      ],
      "stateMutability": "nonpayable",
      "type": "constructor"
    },
    {
      "inputs": [
        {
          "internalType": "bytes32",
          "name": "",
          "type": "bytes32"
        },
        {
          "internalType": "uint256",
          "name": "",
          "type": "uint256"
        }
      ],
      "name": "area_proposal",
      "outputs": [
        {
          "internalType": "bytes32",
          "name": "name",
          "type": "bytes32"
        },
        {
          "internalType": "bytes32",
          "name": "party",
          "type": "bytes32"
        },
        {
          "internalType": "uint256",
          "name": "voteCount",
          "type": "uint256"
        }
      ],
      "stateMutability": "view",
      "type": "function",
      "constant": true
    },
    {
      "inputs": [
        {
          "internalType": "string",
          "name": "nme",
          "type": "string"
        },
        {
          "internalType": "string",
          "name": "prty",
          "type": "string"
        },
        {
          "internalType": "string",
          "name": "area",
          "type": "string"
        }
      ],
      "name": "addProposal",
      "outputs": [],
      "stateMutability": "nonpayable",
      "type": "function"
    },
    {
      "inputs": [
        {
          "internalType": "address",
          "name": "voter",
          "type": "address"
        }
      ],
      "name": "giveRightToVote",
      "outputs": [],
      "stateMutability": "nonpayable",
      "type": "function"
    },
    {
      "inputs": [
        {
          "internalType": "string",
          "name": "email",
          "type": "string"
        },
        {
          "internalType": "string",
          "name": "pass",
          "type": "string"
        },
        {
          "internalType": "uint256",
          "name": "Aadhar",
          "type": "uint256"
        },
        {
          "internalType": "string",
          "name": "ara",
          "type": "string"
        }
      ],
      "name": "voter_reg",
      "outputs": [],
      "stateMutability": "nonpayable",
      "type": "function"
    },
    {
      "inputs": [
        {
          "internalType": "string",
          "name": "email",
          "type": "string"
        },
        {
          "internalType": "uint256",
          "name": "Aadhar",
          "type": "uint256"
        },
        {
          "internalType": "uint256",
          "name": "proposal",
          "type": "uint256"
        }
      ],
      "name": "vote",
      "outputs": [],
      "stateMutability": "nonpayable",
      "type": "function"
    },
    {
      "inputs": [
        {
          "internalType": "string",
          "name": "area",
          "type": "string"
        }
      ],
      "name": "winnerNME_Vcount",
      "outputs": [
        {
          "components": [
            {
              "internalType": "bytes32",
              "name": "name",
              "type": "bytes32"
            },
            {
              "internalType": "bytes32",
              "name": "party",
              "type": "bytes32"
            },
            {
              "internalType": "uint256",
              "name": "voteCount",
              "type": "uint256"
            }
          ],
          "internalType": "struct E_voting_system.winner_in_area",
          "name": "",
          "type": "tuple"
        }
      ],
      "stateMutability": "view",
      "type": "function",
      "constant": true
    },
    {
      "inputs": [],
      "name": "changeState",
      "outputs": [],
      "stateMutability": "nonpayable",
      "type": "function"
    },
    {
      "inputs": [
        {
          "internalType": "string",
          "name": "newEmail",
          "type": "string"
        },
        {
          "internalType": "string",
          "name": "newPass",
          "type": "string"
        },
        {
          "internalType": "address",
          "name": "newChairperson",
          "type": "address"
        }
      ],
      "name": "changeChairperson",
      "outputs": [],
      "stateMutability": "nonpayable",
      "type": "function"
    },
    {
      "inputs": [],
      "name": "check_state",
      "outputs": [
        {
          "internalType": "enum E_voting_system.voting_state",
          "name": "st",
          "type": "uint8"
        }
      ],
      "stateMutability": "view",
      "type": "function",
      "constant": true
    },
    {
      "inputs": [
        {
          "internalType": "string",
          "name": "area",
          "type": "string"
        }
      ],
      "name": "vote_count",
      "outputs": [
        {
          "internalType": "uint256",
          "name": "",
          "type": "uint256"
        }
      ],
      "stateMutability": "view",
      "type": "function",
      "constant": true
    },
    {
      "inputs": [
        {
          "internalType": "string",
          "name": "area",
          "type": "string"
        }
      ],
      "name": "voter_count",
      "outputs": [
        {
          "internalType": "uint256",
          "name": "",
          "type": "uint256"
        }
      ],
      "stateMutability": "view",
      "type": "function",
      "constant": true
    },
    {
      "inputs": [
        {
          "internalType": "string",
          "name": "email",
          "type": "string"
        },
        {
          "internalType": "string",
          "name": "pass",
          "type": "string"
        }
      ],
      "name": "voterLogin",
      "outputs": [
        {
          "internalType": "bool",
          "name": "status",
          "type": "bool"
        },
        {
          "internalType": "uint256",
          "name": "Aadhar",
          "type": "uint256"
        },
        {
          "internalType": "string",
          "name": "area",
          "type": "string"
        }
      ],
      "stateMutability": "view",
      "type": "function",
      "constant": true
    },
    {
      "inputs": [],
      "name": "unauth_voters",
      "outputs": [
        {
          "internalType": "address[]",
          "name": "address_list",
          "type": "address[]"
        },
        {
          "components": [
            {
              "internalType": "bool",
              "name": "is_reg",
              "type": "bool"
            },
            {
              "internalType": "bool",
              "name": "is_authorized",
              "type": "bool"
            },
            {
              "internalType": "bool",
              "name": "voted",
              "type": "bool"
            },
            {
              "internalType": "uint256",
              "name": "vote",
              "type": "uint256"
            },
            {
              "internalType": "bytes32",
              "name": "area",
              "type": "bytes32"
            },
            {
              "internalType": "uint256",
              "name": "Aadhar",
              "type": "uint256"
            }
          ],
          "internalType": "struct E_voting_system.Voter[]",
          "name": "voter_detils",
          "type": "tuple[]"
        }
      ],
      "stateMutability": "view",
      "type": "function",
      "constant": true
    },
    {
      "inputs": [
        {
          "internalType": "string",
          "name": "area",
          "type": "string"
        }
      ],
      "name": "getProposal",
      "outputs": [
        {
          "components": [
            {
              "internalType": "bytes32",
              "name": "name",
              "type": "bytes32"
            },
            {
              "internalType": "bytes32",
              "name": "party",
              "type": "bytes32"
            },
            {
              "internalType": "uint256",
              "name": "voteCount",
              "type": "uint256"
            }
          ],
          "internalType": "struct E_voting_system.Proposal[]",
          "name": "",
          "type": "tuple[]"
        }
      ],
      "stateMutability": "view",
      "type": "function",
      "constant": true
    }
  ],
  "bytecode": "0x60806040523480156200001157600080fd5b50604051620041aa380380620041aa83398181016040528101906200003791906200038c565b6000815114156200007f576040517f08c379a000000000000000000000000000000000000000000000000000000000815260040162000076906200046a565b60405180910390fd5b336000806101000a81548173ffffffffffffffffffffffffffffffffffffffff021916908373ffffffffffffffffffffffffffffffffffffffff160217905550620000d0846200029860201b60201c565b600281905550620000e7836200029860201b60201c565b600181905550620000f7620002c4565b600181602001901515908115158152505060018160000190151590811515815250506200012a826200029860201b60201c565b816080018181525050828160a001818152505080600560003373ffffffffffffffffffffffffffffffffffffffff1673ffffffffffffffffffffffffffffffffffffffff16815260200190815260200160002060008201518160000160006101000a81548160ff02191690831515021790555060208201518160000160016101000a81548160ff02191690831515021790555060408201518160000160026101000a81548160ff021916908315150217905550606082015181600101556080820151816002015560a0820151816003015590505060016007600062000215856200029860201b60201c565b81526020019081526020016000206000828254620002349190620004fc565b925050819055506000600360006101000a81548160ff0219169083600381111562000288577f4e487b7100000000000000000000000000000000000000000000000000000000600052602160045260246000fd5b0217905550505050505062000681565b600080829050600081511415620002b6576000801b915050620002bf565b60208301519150505b919050565b6040518060c001604052806000151581526020016000151581526020016000151581526020016000815260200160008019168152602001600081525090565b60006200031a6200031484620004b5565b6200048c565b9050828152602081018484840111156200033357600080fd5b6200034084828562000563565b509392505050565b600082601f8301126200035a57600080fd5b81516200036c84826020860162000303565b91505092915050565b600081519050620003868162000667565b92915050565b60008060008060808587031215620003a357600080fd5b600085015167ffffffffffffffff811115620003be57600080fd5b620003cc8782880162000348565b945050602085015167ffffffffffffffff811115620003ea57600080fd5b620003f88782880162000348565b93505060406200040b8782880162000375565b925050606085015167ffffffffffffffff8111156200042957600080fd5b620004378782880162000348565b91505092959194509250565b600062000452601883620004eb565b91506200045f826200063e565b602082019050919050565b60006020820190508181036000830152620004858162000443565b9050919050565b600062000498620004ab565b9050620004a6828262000599565b919050565b6000604051905090565b600067ffffffffffffffff821115620004d357620004d2620005fe565b5b620004de826200062d565b9050602081019050919050565b600082825260208201905092915050565b6000620005098262000559565b9150620005168362000559565b9250827fffffffffffffffffffffffffffffffffffffffffffffffffffffffffffffffff038211156200054e576200054d620005cf565b5b828201905092915050565b6000819050919050565b60005b838110156200058357808201518184015260208101905062000566565b8381111562000593576000848401525b50505050565b620005a4826200062d565b810181811067ffffffffffffffff82111715620005c657620005c5620005fe565b5b80604052505050565b7f4e487b7100000000000000000000000000000000000000000000000000000000600052601160045260246000fd5b7f4e487b7100000000000000000000000000000000000000000000000000000000600052604160045260246000fd5b6000601f19601f8301169050919050565b7f506c65617365207370656369667920796f757220617265610000000000000000600082015250565b620006728162000559565b81146200067e57600080fd5b50565b613b1980620006916000396000f3fe608060405234801561001057600080fd5b50600436106100ea5760003560e01c80639e7b8d611161008c578063b38b25ad11610066578063b38b25ad1461023a578063ceff34c21461026a578063cf99cd1e1461029a578063dc703cf2146102ca576100ea565b80639e7b8d61146101e3578063a8e15990146101ff578063aecb181b1461021b576100ea565b806348a8f010116100c857806348a8f0101461015757806362845caa146101895780638412e667146101a757806399cab9da146101b1576100ea565b80630891d358146100ef57806325d3a09d1461010b5780634512e9081461013b575b600080fd5b61010960048036038101906101049190612793565b6102e6565b005b61012560048036038101906101209190612525565b610af4565b6040516101329190612e68565b60405180910390f35b610155600480360381019061015091906125d2565b610b8c565b005b610171600480360381019061016c91906124e9565b610c7d565b60405161018093929190612ec8565b60405180910390f35b610191610cc4565b60405161019e9190612eff565b60405180910390f35b6101af610cdb565b005b6101cb60048036038101906101c69190612566565b610f79565b6040516101da93929190612e8a565b60405180910390f35b6101fd60048036038101906101f891906124c0565b611121565b005b61021960048036038101906102149190612651565b611480565b005b610223611665565b604051610231929190612e31565b60405180910390f35b610254600480360381019061024f9190612525565b611a4e565b6040516102619190613215565b60405180910390f35b610284600480360381019061027f9190612525565b611a73565b60405161029191906131fa565b60405180910390f35b6102b460048036038101906102af9190612525565b611b8d565b6040516102c19190613215565b60405180910390f35b6102e460048036038101906102df91906126e8565b611bb2565b005b6102ef836120fd565b82826002600381111561032b577f4e487b7100000000000000000000000000000000000000000000000000000000600052602160045260246000fd5b600360009054906101000a900460ff166003811115610373577f4e487b7100000000000000000000000000000000000000000000000000000000600052602160045260246000fd5b146103b3576040517f08c379a00000000000000000000000000000000000000000000000000000000081526004016103aa90612fda565b60405180910390fd5b3373ffffffffffffffffffffffffffffffffffffffff16600c600085815260200190815260200160002060010160009054906101000a900473ffffffffffffffffffffffffffffffffffffffff1673ffffffffffffffffffffffffffffffffffffffff16148061047b57508260025414801561047a57503373ffffffffffffffffffffffffffffffffffffffff1660008054906101000a900473ffffffffffffffffffffffffffffffffffffffff1673ffffffffffffffffffffffffffffffffffffffff16145b5b6104ba576040517f08c379a00000000000000000000000000000000000000000000000000000000081526004016104b19061311a565b60405180910390fd5b6000600560003373ffffffffffffffffffffffffffffffffffffffff1673ffffffffffffffffffffffffffffffffffffffff1681526020019081526020016000206040518060c00160405290816000820160009054906101000a900460ff161515151581526020016000820160019054906101000a900460ff161515151581526020016000820160029054906101000a900460ff161515151581526020016001820154815260200160028201548152602001600382015481525050905080600001516105bb576040517f08c379a00000000000000000000000000000000000000000000000000000000081526004016105b29061301a565b60405180910390fd5b80602001516105ff576040517f08c379a00000000000000000000000000000000000000000000000000000000081526004016105f69061317a565b60405180910390fd5b806040015115610644576040517f08c379a000000000000000000000000000000000000000000000000000000000815260040161063b9061303a565b60405180910390fd5b828160a001511461068a576040517f08c379a000000000000000000000000000000000000000000000000000000000815260040161068190612f7a565b60405180910390fd5b600060066000836080015181526020019081526020016000208054905014156106e8576040517f08c379a00000000000000000000000000000000000000000000000000000000081526004016106df9061313a565b60405180910390fd5b816006600083608001518152602001908152602001600020805490501015610745576040517f08c379a000000000000000000000000000000000000000000000000000000000815260040161073c906130ba565b60405180910390fd5b6000600560003373ffffffffffffffffffffffffffffffffffffffff1673ffffffffffffffffffffffffffffffffffffffff1681526020019081526020016000206040518060c00160405290816000820160009054906101000a900460ff161515151581526020016000820160019054906101000a900460ff161515151581526020016000820160029054906101000a900460ff161515151581526020016001820154815260200160028201548152602001600382015481525050905060018160400190151590811515815250508581606001818152505060006006600083608001518152602001908152602001600020878154811061086e577f4e487b7100000000000000000000000000000000000000000000000000000000600052603260045260246000fd5b9060005260206000209060030201604051806060016040529081600082015481526020016001820154815260200160028201548152505090506001816040018181516108ba919061334d565b915081815250508060066000846080015181526020019081526020016000208881548110610911577f4e487b7100000000000000000000000000000000000000000000000000000000600052603260045260246000fd5b906000526020600020906003020160008201518160000155602082015181600101556040820151816002015590505081600560003373ffffffffffffffffffffffffffffffffffffffff1673ffffffffffffffffffffffffffffffffffffffff16815260200190815260200160002060008201518160000160006101000a81548160ff02191690831515021790555060208201518160000160016101000a81548160ff02191690831515021790555060408201518160000160026101000a81548160ff021916908315150217905550606082015181600101556080820151816002015560a08201518160030155905050600160086000846080015181526020019081526020016000206000828254610a29919061334d565b925050819055506000600960008460800151815260200190815260200160002060405180606001604052908160008201548152602001600182015481526020016002820154815250509050816040015181604001511015610ae8578160000151816000018181525050816040015181604001818152505081602001518160200181815250508060096000856080015181526020019081526020016000206000820151816000015560208201518160010155604082015181600201559050505b50505050505050505050565b606060066000610b03846120fd565b8152602001908152602001600020805480602002602001604051908101604052809291908181526020016000905b82821015610b815783829060005260206000209060030201604051806060016040529081600082015481526020016001820154815260200160028201548152505081526020019060010190610b31565b505050509050919050565b60008054906101000a900473ffffffffffffffffffffffffffffffffffffffff1673ffffffffffffffffffffffffffffffffffffffff163373ffffffffffffffffffffffffffffffffffffffff1614610c1a576040517f08c379a0000000000000000000000000000000000000000000000000000000008152600401610c119061307a565b60405180910390fd5b806000806101000a81548173ffffffffffffffffffffffffffffffffffffffff021916908373ffffffffffffffffffffffffffffffffffffffff160217905550610c63836120fd565b600281905550610c72826120fd565b600181905550505050565b60066020528160005260406000208181548110610c9957600080fd5b9060005260206000209060030201600091509150508060000154908060010154908060020154905083565b6000600360009054906101000a900460ff16905090565b60008054906101000a900473ffffffffffffffffffffffffffffffffffffffff1673ffffffffffffffffffffffffffffffffffffffff163373ffffffffffffffffffffffffffffffffffffffff1614610d69576040517f08c379a0000000000000000000000000000000000000000000000000000000008152600401610d609061315a565b60405180910390fd5b60006003811115610da3577f4e487b7100000000000000000000000000000000000000000000000000000000600052602160045260246000fd5b600360009054906101000a900460ff166003811115610deb577f4e487b7100000000000000000000000000000000000000000000000000000000600052602160045260246000fd5b1415610e47576001600360006101000a81548160ff02191690836003811115610e3d577f4e487b7100000000000000000000000000000000000000000000000000000000600052602160045260246000fd5b0217905550610f77565b60016003811115610e81577f4e487b7100000000000000000000000000000000000000000000000000000000600052602160045260246000fd5b600360009054906101000a900460ff166003811115610ec9577f4e487b7100000000000000000000000000000000000000000000000000000000600052602160045260246000fd5b1415610f25576002600360006101000a81548160ff02191690836003811115610f1b577f4e487b7100000000000000000000000000000000000000000000000000000000600052602160045260246000fd5b0217905550610f76565b60038060006101000a81548160ff02191690836003811115610f70577f4e487b7100000000000000000000000000000000000000000000000000000000600052602160045260246000fd5b02179055505b5b565b60008060606000600c6000610f8d886120fd565b8152602001908152602001600020604051806040016040529081600082015481526020016001820160009054906101000a900473ffffffffffffffffffffffffffffffffffffffff1673ffffffffffffffffffffffffffffffffffffffff1673ffffffffffffffffffffffffffffffffffffffff16815250509050600060056000836020015173ffffffffffffffffffffffffffffffffffffffff1673ffffffffffffffffffffffffffffffffffffffff1681526020019081526020016000206040518060c00160405290816000820160009054906101000a900460ff161515151581526020016000820160019054906101000a900460ff161515151581526020016000820160029054906101000a900460ff16151515158152602001600182015481526020016002820154815260200160038201548152505090506110d2866120fd565b826000015114156110fe5760018160a001516110f18360800151612127565b945094509450505061111a565b6000806040518060200160405280600081525094509450945050505b9250925092565b8060008054906101000a900473ffffffffffffffffffffffffffffffffffffffff1673ffffffffffffffffffffffffffffffffffffffff163373ffffffffffffffffffffffffffffffffffffffff16146111b0576040517f08c379a00000000000000000000000000000000000000000000000000000000081526004016111a79061309a565b60405180910390fd5b600160038111156111ea577f4e487b7100000000000000000000000000000000000000000000000000000000600052602160045260246000fd5b600360009054906101000a900460ff166003811115611232577f4e487b7100000000000000000000000000000000000000000000000000000000600052602160045260246000fd5b14611272576040517f08c379a000000000000000000000000000000000000000000000000000000000815260040161126990612f3a565b60405180910390fd5b600560008273ffffffffffffffffffffffffffffffffffffffff1673ffffffffffffffffffffffffffffffffffffffff16815260200190815260200160002060000160009054906101000a900460ff16611301576040517f08c379a00000000000000000000000000000000000000000000000000000000081526004016112f890612f5a565b60405180910390fd5b600560008273ffffffffffffffffffffffffffffffffffffffff1673ffffffffffffffffffffffffffffffffffffffff16815260200190815260200160002060000160029054906101000a900460ff1615611391576040517f08c379a0000000000000000000000000000000000000000000000000000000008152600401611388906131ba565b60405180910390fd5b600560008273ffffffffffffffffffffffffffffffffffffffff1673ffffffffffffffffffffffffffffffffffffffff16815260200190815260200160002060000160019054906101000a900460ff1615611421576040517f08c379a000000000000000000000000000000000000000000000000000000000815260040161141890612ffa565b60405180910390fd5b6001600560008473ffffffffffffffffffffffffffffffffffffffff1673ffffffffffffffffffffffffffffffffffffffff16815260200190815260200160002060000160016101000a81548160ff0219169083151502179055505050565b60008054906101000a900473ffffffffffffffffffffffffffffffffffffffff1673ffffffffffffffffffffffffffffffffffffffff163373ffffffffffffffffffffffffffffffffffffffff161461150e576040517f08c379a0000000000000000000000000000000000000000000000000000000008152600401611505906130da565b60405180910390fd5b60006003811115611548577f4e487b7100000000000000000000000000000000000000000000000000000000600052602160045260246000fd5b600360009054906101000a900460ff166003811115611590577f4e487b7100000000000000000000000000000000000000000000000000000000600052602160045260246000fd5b146115d0576040517f08c379a00000000000000000000000000000000000000000000000000000000081526004016115c7906131da565b60405180910390fd5b600660006115dd836120fd565b815260200190815260200160002060405180606001604052806115ff866120fd565b815260200161160d856120fd565b8152602001600081525090806001815401808255809150506001900390600052602060002090600302016000909190919091506000820151816000015560208201518160010155604082015181600201555050505050565b60608060008054906101000a900473ffffffffffffffffffffffffffffffffffffffff1673ffffffffffffffffffffffffffffffffffffffff163373ffffffffffffffffffffffffffffffffffffffff16146116f6576040517f08c379a00000000000000000000000000000000000000000000000000000000081526004016116ed9061305a565b60405180910390fd5b60048054905067ffffffffffffffff81111561173b577f4e487b7100000000000000000000000000000000000000000000000000000000600052604160045260246000fd5b6040519080825280602002602001820160405280156117695781602001602082028036833780820191505090505b50915060048054905067ffffffffffffffff8111156117b1577f4e487b7100000000000000000000000000000000000000000000000000000000600052604160045260246000fd5b6040519080825280602002602001820160405280156117ea57816020015b6117d7612380565b8152602001906001900390816117cf5790505b50905060005b600480549050811015611a495760048181548110611837577f4e487b7100000000000000000000000000000000000000000000000000000000600052603260045260246000fd5b9060005260206000200160009054906101000a900473ffffffffffffffffffffffffffffffffffffffff1683828151811061189b577f4e487b7100000000000000000000000000000000000000000000000000000000600052603260045260246000fd5b602002602001019073ffffffffffffffffffffffffffffffffffffffff16908173ffffffffffffffffffffffffffffffffffffffff16815250506005600060048381548110611913577f4e487b7100000000000000000000000000000000000000000000000000000000600052603260045260246000fd5b9060005260206000200160009054906101000a900473ffffffffffffffffffffffffffffffffffffffff1673ffffffffffffffffffffffffffffffffffffffff1673ffffffffffffffffffffffffffffffffffffffff1681526020019081526020016000206040518060c00160405290816000820160009054906101000a900460ff161515151581526020016000820160019054906101000a900460ff161515151581526020016000820160029054906101000a900460ff161515151581526020016001820154815260200160028201548152602001600382015481525050828281518110611a2b577f4e487b7100000000000000000000000000000000000000000000000000000000600052603260045260246000fd5b60200260200101819052508080611a419061349a565b9150506117f0565b509091565b600060076000611a5d846120fd565b8152602001908152602001600020549050919050565b611a7b6123bf565b600380811115611ab4577f4e487b7100000000000000000000000000000000000000000000000000000000600052602160045260246000fd5b600360009054906101000a900460ff166003811115611afc577f4e487b7100000000000000000000000000000000000000000000000000000000600052602160045260246000fd5b14611b3c576040517f08c379a0000000000000000000000000000000000000000000000000000000008152600401611b33906130fa565b60405180910390fd5b600060096000611b4b856120fd565b81526020019081526020016000206040518060600160405290816000820154815260200160018201548152602001600282015481525050905080915050919050565b600060086000611b9c846120fd565b8152602001908152602001600020549050919050565b600560003373ffffffffffffffffffffffffffffffffffffffff1673ffffffffffffffffffffffffffffffffffffffff1681526020019081526020016000206040518060c00160405290816000820160009054906101000a900460ff161515151581526020016000820160019054906101000a900460ff161515151581526020016000820160029054906101000a900460ff161515151581526020016001820154815260200160028201548152602001600382015481525050611c74856120fd565b8360006003811115611caf577f4e487b7100000000000000000000000000000000000000000000000000000000600052602160045260246000fd5b600360009054906101000a900460ff166003811115611cf7577f4e487b7100000000000000000000000000000000000000000000000000000000600052602160045260246000fd5b14611d37576040517f08c379a0000000000000000000000000000000000000000000000000000000008152600401611d2e9061319a565b60405180910390fd5b600a600083815260200190815260200160002060009054906101000a900460ff1615611d98576040517f08c379a0000000000000000000000000000000000000000000000000000000008152600401611d8f90612f9a565b60405180910390fd5b600b600082815260200190815260200160002060009054906101000a900460ff1615611df9576040517f08c379a0000000000000000000000000000000000000000000000000000000008152600401611df090612f1a565b60405180910390fd5b826000015115611e3e576040517f08c379a0000000000000000000000000000000000000000000000000000000008152600401611e3590612fba565b60405180910390fd5b6040518060c0016040528060011515815260200160001515815260200160001515815260200160008152602001611e74866120fd565b815260200186815250600560003373ffffffffffffffffffffffffffffffffffffffff1673ffffffffffffffffffffffffffffffffffffffff16815260200190815260200160002060008201518160000160006101000a81548160ff02191690831515021790555060208201518160000160016101000a81548160ff02191690831515021790555060408201518160000160026101000a81548160ff021916908315150217905550606082015181600101556080820151816002015560a08201518160030155905050600160076000611f4c876120fd565b81526020019081526020016000206000828254611f69919061334d565b925050819055506000611f7b886120fd565b90506001600a600083815260200190815260200160002060006101000a81548160ff0219169083151502179055506001600b600088815260200190815260200160002060006101000a81548160ff0219169083151502179055506004339080600181540180825580915050600190039060005260206000200160009091909190916101000a81548173ffffffffffffffffffffffffffffffffffffffff021916908373ffffffffffffffffffffffffffffffffffffffff1602179055506120406123e6565b612049886120fd565b81600001818152505033816020019073ffffffffffffffffffffffffffffffffffffffff16908173ffffffffffffffffffffffffffffffffffffffff168152505080600c60008481526020019081526020016000206000820151816000015560208201518160010160006101000a81548173ffffffffffffffffffffffffffffffffffffffff021916908373ffffffffffffffffffffffffffffffffffffffff160217905550905050505050505050505050565b600080829050600081511415612119576000801b915050612122565b60208301519150505b919050565b606060005b60208160ff161080156121a45750600060f81b838260ff166020811061217b577f4e487b7100000000000000000000000000000000000000000000000000000000600052603260045260246000fd5b1a60f81b7effffffffffffffffffffffffffffffffffffffffffffffffffffffffffffff191614155b156121bc5780806121b4906134e3565b91505061212c565b60008160ff1667ffffffffffffffff811115612201577f4e487b7100000000000000000000000000000000000000000000000000000000600052604160045260246000fd5b6040519080825280601f01601f1916602001820160405280156122335781602001600182028036833780820191505090505b509050600091505b60208260ff161080156122b35750600060f81b848360ff166020811061228a577f4e487b7100000000000000000000000000000000000000000000000000000000600052603260045260246000fd5b1a60f81b7effffffffffffffffffffffffffffffffffffffffffffffffffffffffffffff191614155b1561237657838260ff16602081106122f4577f4e487b7100000000000000000000000000000000000000000000000000000000600052603260045260246000fd5b1a60f81b818360ff1681518110612334577f4e487b7100000000000000000000000000000000000000000000000000000000600052603260045260246000fd5b60200101907effffffffffffffffffffffffffffffffffffffffffffffffffffffffffffff1916908160001a905350818061236e906134e3565b92505061223b565b8092505050919050565b6040518060c001604052806000151581526020016000151581526020016000151581526020016000815260200160008019168152602001600081525090565b60405180606001604052806000801916815260200160008019168152602001600081525090565b604051806040016040528060008019168152602001600073ffffffffffffffffffffffffffffffffffffffff1681525090565b600061242c61242784613255565b613230565b90508281526020810184848401111561244457600080fd5b61244f848285613427565b509392505050565b60008135905061246681613a9e565b92915050565b60008135905061247b81613ab5565b92915050565b600082601f83011261249257600080fd5b81356124a2848260208601612419565b91505092915050565b6000813590506124ba81613acc565b92915050565b6000602082840312156124d257600080fd5b60006124e084828501612457565b91505092915050565b600080604083850312156124fc57600080fd5b600061250a8582860161246c565b925050602061251b858286016124ab565b9150509250929050565b60006020828403121561253757600080fd5b600082013567ffffffffffffffff81111561255157600080fd5b61255d84828501612481565b91505092915050565b6000806040838503121561257957600080fd5b600083013567ffffffffffffffff81111561259357600080fd5b61259f85828601612481565b925050602083013567ffffffffffffffff8111156125bc57600080fd5b6125c885828601612481565b9150509250929050565b6000806000606084860312156125e757600080fd5b600084013567ffffffffffffffff81111561260157600080fd5b61260d86828701612481565b935050602084013567ffffffffffffffff81111561262a57600080fd5b61263686828701612481565b925050604061264786828701612457565b9150509250925092565b60008060006060848603121561266657600080fd5b600084013567ffffffffffffffff81111561268057600080fd5b61268c86828701612481565b935050602084013567ffffffffffffffff8111156126a957600080fd5b6126b586828701612481565b925050604084013567ffffffffffffffff8111156126d257600080fd5b6126de86828701612481565b9150509250925092565b600080600080608085870312156126fe57600080fd5b600085013567ffffffffffffffff81111561271857600080fd5b61272487828801612481565b945050602085013567ffffffffffffffff81111561274157600080fd5b61274d87828801612481565b935050604061275e878288016124ab565b925050606085013567ffffffffffffffff81111561277b57600080fd5b61278787828801612481565b91505092959194509250565b6000806000606084860312156127a857600080fd5b600084013567ffffffffffffffff8111156127c257600080fd5b6127ce86828701612481565b93505060206127df868287016124ab565b92505060406127f0868287016124ab565b9150509250925092565b60006128068383612842565b60208301905092915050565b600061281e8383612d14565b60608301905092915050565b60006128368383612d56565b60c08301905092915050565b61284b816133a3565b82525050565b600061285c826132b6565b6128668185613309565b935061287183613286565b8060005b838110156128a257815161288988826127fa565b9750612894836132e2565b925050600181019050612875565b5085935050505092915050565b60006128ba826132c1565b6128c4818561331a565b93506128cf83613296565b8060005b838110156129005781516128e78882612812565b97506128f2836132ef565b9250506001810190506128d3565b5085935050505092915050565b6000612918826132cc565b612922818561332b565b935061292d836132a6565b8060005b8381101561295e578151612945888261282a565b9750612950836132fc565b925050600181019050612931565b5085935050505092915050565b612974816133b5565b82525050565b612983816133b5565b82525050565b612992816133c1565b82525050565b6129a1816133c1565b82525050565b6129b081613415565b82525050565b60006129c1826132d7565b6129cb818561333c565b93506129db818560208601613436565b6129e48161359a565b840191505092915050565b60006129fc60228361333c565b9150612a07826135ab565b604082019050919050565b6000612a1f60278361333c565b9150612a2a826135fa565b604082019050919050565b6000612a4260198361333c565b9150612a4d82613649565b602082019050919050565b6000612a65603f8361333c565b9150612a7082613672565b604082019050919050565b6000612a88601c8361333c565b9150612a93826136c1565b602082019050919050565b6000612aab601b8361333c565b9150612ab6826136ea565b602082019050919050565b6000612ace60198361333c565b9150612ad982613713565b602082019050919050565b6000612af1601e8361333c565b9150612afc8261373c565b602082019050919050565b6000612b1460198361333c565b9150612b1f82613765565b602082019050919050565b6000612b37600e8361333c565b9150612b428261378e565b602082019050919050565b6000612b5a60328361333c565b9150612b65826137b7565b604082019050919050565b6000612b7d602b8361333c565b9150612b8882613806565b604082019050919050565b6000612ba060288361333c565b9150612bab82613855565b604082019050919050565b6000612bc3601f8361333c565b9150612bce826138a4565b602082019050919050565b6000612be660278361333c565b9150612bf1826138cd565b604082019050919050565b6000612c0960188361333c565b9150612c148261391c565b602082019050919050565b6000612c2c60208361333c565b9150612c3782613945565b602082019050919050565b6000612c4f601d8361333c565b9150612c5a8261396e565b602082019050919050565b6000612c7260258361333c565b9150612c7d82613997565b604082019050919050565b6000612c9560158361333c565b9150612ca0826139e6565b602082019050919050565b6000612cb860148361333c565b9150612cc382613a0f565b602082019050919050565b6000612cdb60188361333c565b9150612ce682613a38565b602082019050919050565b6000612cfe60148361333c565b9150612d0982613a61565b602082019050919050565b606082016000820151612d2a6000850182612989565b506020820151612d3d6020850182612989565b506040820151612d506040850182612e13565b50505050565b60c082016000820151612d6c600085018261296b565b506020820151612d7f602085018261296b565b506040820151612d92604085018261296b565b506060820151612da56060850182612e13565b506080820151612db86080850182612989565b5060a0820151612dcb60a0850182612e13565b50505050565b606082016000820151612de76000850182612989565b506020820151612dfa6020850182612989565b506040820151612e0d6040850182612e13565b50505050565b612e1c816133fe565b82525050565b612e2b816133fe565b82525050565b60006040820190508181036000830152612e4b8185612851565b90508181036020830152612e5f818461290d565b90509392505050565b60006020820190508181036000830152612e8281846128af565b905092915050565b6000606082019050612e9f600083018661297a565b612eac6020830185612e22565b8181036040830152612ebe81846129b6565b9050949350505050565b6000606082019050612edd6000830186612998565b612eea6020830185612998565b612ef76040830184612e22565b949350505050565b6000602082019050612f1460008301846129a7565b92915050565b60006020820190508181036000830152612f33816129ef565b9050919050565b60006020820190508181036000830152612f5381612a12565b9050919050565b60006020820190508181036000830152612f7381612a35565b9050919050565b60006020820190508181036000830152612f9381612a58565b9050919050565b60006020820190508181036000830152612fb381612a7b565b9050919050565b60006020820190508181036000830152612fd381612a9e565b9050919050565b60006020820190508181036000830152612ff381612ac1565b9050919050565b6000602082019050818103600083015261301381612ae4565b9050919050565b6000602082019050818103600083015261303381612b07565b9050919050565b6000602082019050818103600083015261305381612b2a565b9050919050565b6000602082019050818103600083015261307381612b4d565b9050919050565b6000602082019050818103600083015261309381612b70565b9050919050565b600060208201905081810360008301526130b381612b93565b9050919050565b600060208201905081810360008301526130d381612bb6565b9050919050565b600060208201905081810360008301526130f381612bd9565b9050919050565b6000602082019050818103600083015261311381612bfc565b9050919050565b6000602082019050818103600083015261313381612c1f565b9050919050565b6000602082019050818103600083015261315381612c42565b9050919050565b6000602082019050818103600083015261317381612c65565b9050919050565b6000602082019050818103600083015261319381612c88565b9050919050565b600060208201905081810360008301526131b381612cab565b9050919050565b600060208201905081810360008301526131d381612cce565b9050919050565b600060208201905081810360008301526131f381612cf1565b9050919050565b600060608201905061320f6000830184612dd1565b92915050565b600060208201905061322a6000830184612e22565b92915050565b600061323a61324b565b90506132468282613469565b919050565b6000604051905090565b600067ffffffffffffffff8211156132705761326f61356b565b5b6132798261359a565b9050602081019050919050565b6000819050602082019050919050565b6000819050602082019050919050565b6000819050602082019050919050565b600081519050919050565b600081519050919050565b600081519050919050565b600081519050919050565b6000602082019050919050565b6000602082019050919050565b6000602082019050919050565b600082825260208201905092915050565b600082825260208201905092915050565b600082825260208201905092915050565b600082825260208201905092915050565b6000613358826133fe565b9150613363836133fe565b9250827fffffffffffffffffffffffffffffffffffffffffffffffffffffffffffffffff038211156133985761339761350d565b5b828201905092915050565b60006133ae826133de565b9050919050565b60008115159050919050565b6000819050919050565b60008190506133d982613a8a565b919050565b600073ffffffffffffffffffffffffffffffffffffffff82169050919050565b6000819050919050565b600060ff82169050919050565b6000613420826133cb565b9050919050565b82818337600083830152505050565b60005b83811015613454578082015181840152602081019050613439565b83811115613463576000848401525b50505050565b6134728261359a565b810181811067ffffffffffffffff821117156134915761349061356b565b5b80604052505050565b60006134a5826133fe565b91507fffffffffffffffffffffffffffffffffffffffffffffffffffffffffffffffff8214156134d8576134d761350d565b5b600182019050919050565b60006134ee82613408565b915060ff8214156135025761350161350d565b5b600182019050919050565b7f4e487b7100000000000000000000000000000000000000000000000000000000600052601160045260246000fd5b7f4e487b7100000000000000000000000000000000000000000000000000000000600052602160045260246000fd5b7f4e487b7100000000000000000000000000000000000000000000000000000000600052604160045260246000fd5b6000601f19601f8301169050919050565b7f54686973204164686172204e756d62657220697320616c72656479207072657360008201527f6574000000000000000000000000000000000000000000000000000000000000602082015250565b7f56616c69646174696f6e2070726f6365737320686173206e6f74206265656e2060008201527f7374617274656400000000000000000000000000000000000000000000000000602082015250565b7f766f746572206973206e6f742072656769737465722079657400000000000000600082015250565b7f416164686172204e756d626572206d697373206d6174636820706c656173652060008201527f656e746572207265676973746572656420416164686172204e756d6265722e00602082015250565b7f5468697320456d61696c20697320616c726564792070726573656e7400000000600082015250565b7f596f75206861766520616c726561647920726567697374657265640000000000600082015250565b7f566f74696e67207374616765206973206e6f7420737461727400000000000000600082015250565b7f54686520766f74657220697320616c7265647920617574686f72697a65640000600082015250565b7f596f7520617265206e6f74207265676973746572207965742e00000000000000600082015250565b7f416c726561647920766f7465642e000000000000000000000000000000000000600082015250565b7f4f6e6c7920436861697220706572736f6e206861766520726967687420746f2060008201527f63616c6c20746869732066756e6374696f6e0000000000000000000000000000602082015250565b7f4f6e6c79204368616972706572736f6e2063616e2061737369676e206e65772060008201527f4368616972706572736f6e000000000000000000000000000000000000000000602082015250565b7f4f6e6c79206368616972706572736f6e2063616e20676976652072696768742060008201527f746f20766f74652e000000000000000000000000000000000000000000000000602082015250565b7f596f7520686176652063686f6f736520776f726e672070726f706f73616c2e00600082015250565b7f4f6e6c79206368616972706572736f6e2072696768747320746f20616464207060008201527f726f706f73616c00000000000000000000000000000000000000000000000000602082015250565b7f566f74696e672070726f63657373206e6f7420636c6f73650000000000000000600082015250565b7f77652063616e6e27742076616c69646174657320796f7572206163636f756e74600082015250565b7f5468657265206973206e6f2070726f706f73616c20746f20766f74652e000000600082015250565b7f4f6e6c79204368616972706572736f6e2063616e206368616e6765207468652060008201527f7374617465000000000000000000000000000000000000000000000000000000602082015250565b7f486173206e6f20726967687420746f20766f74652e0000000000000000000000600082015250565b7f526567697374726174696f6e206973204f766572000000000000000000000000600082015250565b7f54686520766f74657220616c726561647920766f7465642e0000000000000000600082015250565b7f526567697374726174696f6e206973206f766572000000000000000000000000600082015250565b60048110613a9b57613a9a61353c565b5b50565b613aa7816133a3565b8114613ab257600080fd5b50565b613abe816133c1565b8114613ac957600080fd5b50565b613ad5816133fe565b8114613ae057600080fd5b5056fea26469706673582212208314dd78db68d69e1c37eb345d7d1d05a214ec15629c94cb540924583089fcde64736f6c63430008040033",
  "immutableReferences": {},
  "source": "// SPDX-License-Identifier: MIT\r\npragma solidity >=0.4.22 <0.9.0;\r\n\r\n/**\r\n * @title Ballot\r\n * @dev Implements voting process along with vote delegation\r\n */\r\ncontract E_voting_system {\r\n    //variable declaration\r\n\r\n    struct Voter_login_details {\r\n        bytes32 pass;\r\n        address voter;\r\n    }\r\n\r\n    struct Voter {\r\n        bool is_reg;\r\n        bool is_authorized; // is voter is authorize to vote\r\n        bool voted; // if true, that person already voted\r\n        uint256 vote; // index of the voted proposal\r\n        bytes32 area; // area of voter\r\n        uint256 Aadhar; //Aadhar card number\r\n    }\r\n\r\n    struct Proposal {\r\n        // If you can limit the length to a certain number of bytes,\r\n        // always use one of bytes1 to bytes32 because they are much cheaper\r\n        bytes32 name; // short name (up to 32 bytes)\r\n        bytes32 party;\r\n        uint256 voteCount; // number of accumulated votes\r\n    }\r\n    struct winner_in_area {\r\n        bytes32 name;\r\n        bytes32 party;\r\n        uint256 voteCount;\r\n    }\r\n\r\n    address private chairperson;\r\n    bytes32 private chair_pass;\r\n    bytes32 private chair_email;\r\n\r\n    enum voting_state {\r\n        reg,\r\n        validation,\r\n        voting,\r\n        close\r\n    }\r\n\r\n    voting_state private state;\r\n    address[] voter_address;\r\n    mapping(address => Voter) private voters;\r\n    mapping(bytes32 => Proposal[]) public area_proposal;\r\n    mapping(bytes32 => uint256) private reg_voter_count_per_area;\r\n    mapping(bytes32 => uint256) private vote_count_per_area;\r\n    mapping(bytes32 => winner_in_area) private winner_per_area;\r\n    mapping(bytes32 => bool) private email_validation;\r\n    mapping(uint256 => bool) private Aadhar_validation;\r\n    mapping(bytes32 => Voter_login_details) private login_details;\r\n\r\n    /**\r\n     * @dev constructor create an owner an set the right to vote for the owner.\r\n     */\r\n    constructor(\r\n        string memory email,\r\n        string memory pass,\r\n        uint256 Aadhar,\r\n        string memory area\r\n    ) {\r\n        require(bytes(area).length != 0, \"Please specify your area\");\r\n        chairperson = msg.sender;\r\n        chair_email = stringToBytes32(email);\r\n        chair_pass = stringToBytes32(pass);\r\n        Voter memory sender;\r\n        sender.is_authorized = true;\r\n        sender.is_reg = true;\r\n        sender.area = stringToBytes32(area);\r\n        sender.Aadhar = Aadhar;\r\n        voters[msg.sender] = sender;\r\n        reg_voter_count_per_area[stringToBytes32(area)] += 1;\r\n        state = voting_state.reg;\r\n    }\r\n\r\n    // Modifiers\r\n\r\n    modifier Only_chairperson() {\r\n        require(\r\n            msg.sender == chairperson,\r\n            \"Only chairperson rights to add proposal\"\r\n        );\r\n        require(state == voting_state.reg, \"Registration is over\");\r\n        _;\r\n    }\r\n\r\n    modifier check_for_right(address voter) {\r\n        require(\r\n            msg.sender == chairperson,\r\n            \"Only chairperson can give right to vote.\"\r\n        );\r\n        require(\r\n            state == voting_state.validation,\r\n            \"Validation process has not been started\"\r\n        );\r\n        require(voters[voter].is_reg, \"voter is not register yet\");\r\n        require(!voters[voter].voted, \"The voter already voted.\");\r\n        require(!voters[voter].is_authorized,\"The voter is alredy authorized\");\r\n        _;\r\n    }\r\n\r\n    modifier check_status(\r\n        Voter memory voter,\r\n        bytes32 email,\r\n        uint256 Aadhar\r\n    ) {\r\n        require(state == voting_state.reg, \"Registration is Over\");\r\n        require(!email_validation[email], \"This Email is alredy present\");\r\n        require(\r\n            !Aadhar_validation[Aadhar],\r\n            \"This Adhar Number is alredy preset\"\r\n        );\r\n        require(!voter.is_reg, \"You have already registered\");\r\n        _;\r\n    }\r\n\r\n    modifier Only_auth_non_voted_voters(\r\n        bytes32 email,\r\n        uint256 Aadhar,\r\n        uint256 proposal\r\n    ) {\r\n        require(state == voting_state.voting, \"Voting stage is not start\");\r\n        require(\r\n            ((login_details[email].voter == msg.sender) ||\r\n                (chair_email == email && chairperson == msg.sender)),\r\n            \"we cann't validates your account\"\r\n        );\r\n        Voter memory sender = voters[msg.sender];\r\n        require(sender.is_reg, \"You are not register yet.\");\r\n        require(sender.is_authorized, \"Has no right to vote.\");\r\n        require(!sender.voted, \"Already voted.\");\r\n        require(\r\n            sender.Aadhar == Aadhar,\r\n            \"Aadhar Number miss match please enter registered Aadhar Number.\"\r\n        );\r\n        require(\r\n            area_proposal[sender.area].length != 0,\r\n            \"There is no proposal to vote.\"\r\n        );\r\n        require(\r\n            area_proposal[sender.area].length >= proposal,\r\n            \"You have choose worng proposal.\"\r\n        );\r\n        _;\r\n    }\r\n\r\n    //event\r\n    // event state_change(voting_state state);\r\n\r\n    // Functions\r\n\r\n    // This function is used by the chairperson only to add the Proposal\r\n    function addProposal(\r\n        string memory nme,\r\n        string memory prty,\r\n        string memory area\r\n    ) public Only_chairperson {\r\n        area_proposal[stringToBytes32(area)].push(\r\n            Proposal({\r\n                name: stringToBytes32(nme),\r\n                party: stringToBytes32(prty),\r\n                voteCount: 0\r\n            })\r\n        );\r\n    }\r\n\r\n    /**\r\n     * @dev Give 'voter' the right to vote on this ballot. May only be called by 'chairperson'.\r\n     * @param voter address of voter\r\n     */\r\n\r\n    function giveRightToVote(address voter) public check_for_right(voter) {\r\n        voters[voter].is_authorized = true;\r\n    }\r\n\r\n    // This function is used by the voter to register yourself\r\n    function voter_reg(\r\n        string memory email,\r\n        string memory pass,\r\n        uint256 Aadhar,\r\n        string memory ara\r\n    ) public check_status(voters[msg.sender], stringToBytes32(email), Aadhar) {\r\n        voters[msg.sender] = Voter({\r\n            is_reg: true,\r\n            is_authorized: false,\r\n            voted: false,\r\n            vote: 0,\r\n            area: stringToBytes32(ara),\r\n            Aadhar: Aadhar\r\n        });\r\n        reg_voter_count_per_area[stringToBytes32(ara)] += 1;\r\n        bytes32 em = stringToBytes32(email);\r\n        email_validation[em] = true;\r\n        Aadhar_validation[Aadhar] = true;\r\n        voter_address.push(msg.sender);\r\n        Voter_login_details memory vrdt;\r\n        vrdt.pass = stringToBytes32(pass);\r\n        vrdt.voter = msg.sender;\r\n        login_details[em] = vrdt;\r\n    }\r\n\r\n    /**\r\n     * @dev Give your vote (including votes delegated to you) to proposal 'proposals[proposal].name'.\r\n     * @param proposal index of proposal in the proposals array\r\n     */\r\n\r\n    function vote(\r\n        string memory email,\r\n        uint256 Aadhar,\r\n        uint256 proposal\r\n    )\r\n        public\r\n        Only_auth_non_voted_voters(stringToBytes32(email), Aadhar, proposal)\r\n    {\r\n        Voter memory sender = voters[msg.sender];\r\n        sender.voted = true;\r\n        sender.vote = proposal;\r\n        Proposal memory p = area_proposal[sender.area][proposal];\r\n        p.voteCount += 1;\r\n        area_proposal[sender.area][proposal] = p;\r\n        voters[msg.sender] = sender;\r\n        vote_count_per_area[sender.area] += 1;\r\n        winner_in_area memory w = winner_per_area[sender.area];\r\n        if (w.voteCount < p.voteCount) {\r\n            w.name = p.name;\r\n            w.voteCount = p.voteCount;\r\n            w.party = p.party;\r\n            winner_per_area[sender.area] = w;\r\n        }\r\n    }\r\n\r\n    /**\r\n     * @return winnerName_ the name of the winner\r\n     */\r\n    function winnerNME_Vcount(string memory area)\r\n        public\r\n        view\r\n        returns (winner_in_area memory)\r\n    {\r\n        require(state == voting_state.close, \"Voting process not close\");\r\n        winner_in_area memory w = winner_per_area[stringToBytes32(area)];\r\n        return (w);\r\n    }\r\n\r\n    function changeState() public {\r\n        require(\r\n            msg.sender == chairperson,\r\n            \"Only Chairperson can change the state\"\r\n        );\r\n        if (state == voting_state.reg) {\r\n            state = voting_state.validation;\r\n        } else if (state == voting_state.validation) {\r\n            state = voting_state.voting;\r\n        } else {\r\n            state = voting_state.close;\r\n        }\r\n    }\r\n\r\n    function changeChairperson(\r\n        string memory newEmail,\r\n        string memory newPass,\r\n        address newChairperson\r\n    ) public {\r\n        require(\r\n            msg.sender == chairperson,\r\n            \"Only Chairperson can assign new Chairperson\"\r\n        );\r\n        chairperson = newChairperson;\r\n        chair_email = stringToBytes32(newEmail);\r\n        chair_pass = stringToBytes32(newPass);\r\n    }\r\n\r\n    function check_state() public view returns (voting_state st) {\r\n        return state;\r\n    }\r\n\r\n    function vote_count(string memory area) public view returns (uint256) {\r\n        return vote_count_per_area[stringToBytes32(area)];\r\n    }\r\n\r\n    function voter_count(string memory area) public view returns (uint256) {\r\n        return reg_voter_count_per_area[stringToBytes32(area)];\r\n    }\r\n\r\n    function voterLogin(string memory email, string memory pass)\r\n        public\r\n        view\r\n        returns (\r\n            bool status,\r\n            uint256 Aadhar,\r\n            string memory area\r\n        )\r\n    {\r\n        Voter_login_details memory v_details = login_details[\r\n            stringToBytes32(email)\r\n        ];\r\n        Voter memory voter = voters[v_details.voter];\r\n        if (v_details.pass == stringToBytes32(pass))\r\n            return (true, voter.Aadhar, bytes32ToString(voter.area));\r\n        else return (false, 0, \"\");\r\n    }\r\n\r\n    function unauth_voters() public view returns (address[] memory address_list,Voter[] memory voter_detils) {\r\n        require(\r\n            msg.sender == chairperson,\r\n            \"Only Chair person have right to call this function\"\r\n        );\r\n        address_list = new address[](voter_address.length);\r\n        voter_detils = new Voter[](voter_address.length);\r\n        for(uint i=0;i<voter_address.length;i++){\r\n            address_list[i] = voter_address[i];\r\n            voter_detils[i] = voters[voter_address[i]];\r\n        }\r\n    }\r\n\r\n    function chair_login(string memory email, string memory pass)\r\n        private\r\n        view\r\n        returns (bool)\r\n    {\r\n        return\r\n            chair_email == stringToBytes32(email) &&\r\n            chair_pass == stringToBytes32(pass);\r\n    }\r\n\r\n    function getProposal(string memory area)\r\n        public\r\n        view\r\n        returns (Proposal[] memory)\r\n    {\r\n        return area_proposal[stringToBytes32(area)];\r\n    }\r\n\r\n    function stringToBytes32(string memory source)\r\n        private\r\n        pure\r\n        returns (bytes32 result)\r\n    {\r\n        bytes memory tempEmptyStringTest = bytes(source);\r\n        if (tempEmptyStringTest.length == 0) {\r\n            return 0x0;\r\n        }\r\n\r\n        assembly {\r\n            result := mload(add(source, 32))\r\n        }\r\n    }\r\n\r\n    function bytes32ToString(bytes32 _bytes32)\r\n        private\r\n        pure\r\n        returns (string memory)\r\n    {\r\n        uint8 i = 0;\r\n        while (i < 32 && _bytes32[i] != 0) {\r\n            i++;\r\n        }\r\n        bytes memory bytesArray = new bytes(i);\r\n        for (i = 0; i < 32 && _bytes32[i] != 0; i++) {\r\n            bytesArray[i] = _bytes32[i];\r\n        }\r\n        return string(bytesArray);\r\n    }\r\n}\r\n",
  "sourcePath": "C:/Users/Bismay Kumar Rana/Desktop/Block chain dev/contracts/E_voting_system.sol",
  "compiler": {
    "name": "solc",
    "version": "0.8.4+commit.c7e474f2.Emscripten.clang"
  },
  "schemaVersion": "3.3.4",
  "updatedAt": "2022-06-22T12:34:52.021Z",
  "networkType": "ethereum",
  "devdoc": {
    "details": "Implements voting process along with vote delegation",
    "kind": "dev",
    "methods": {
      "constructor": {
        "details": "constructor create an owner an set the right to vote for the owner."
      },
      "giveRightToVote(address)": {
        "details": "Give 'voter' the right to vote on this ballot. May only be called by 'chairperson'.",
        "params": {
          "voter": "address of voter"
        }
      },
      "vote(string,uint256,uint256)": {
        "details": "Give your vote (including votes delegated to you) to proposal 'proposals[proposal].name'.",
        "params": {
          "proposal": "index of proposal in the proposals array"
        }
      },
      "winnerNME_Vcount(string)": {
        "returns": {
          "_0": "winnerName_ the name of the winner"
        }
      }
    },
    "title": "Ballot",
    "version": 1
  },
  "userdoc": {
    "kind": "user",
    "methods": {},
    "version": 1
  }
}