{
  "contractName": "E_voting_system",
  "abi": [
    {
      "inputs": [
        {
          "internalType": "string",
          "name": "email",
          "type": "string"
        },
        {
          "internalType": "string",
          "name": "pass",
          "type": "string"
        },
        {
          "internalType": "uint256",
          "name": "Aadhar",
          "type": "uint256"
        },
        {
          "internalType": "string",
          "name": "area",
          "type": "string"
        }
      ],
      "stateMutability": "nonpayable",
      "type": "constructor"
    },
    {
      "inputs": [
        {
          "internalType": "bytes32",
          "name": "",
          "type": "bytes32"
        },
        {
          "internalType": "uint256",
          "name": "",
          "type": "uint256"
        }
      ],
      "name": "area_proposal",
      "outputs": [
        {
          "internalType": "bytes32",
          "name": "name",
          "type": "bytes32"
        },
        {
          "internalType": "bytes32",
          "name": "party",
          "type": "bytes32"
        },
        {
          "internalType": "uint256",
          "name": "voteCount",
          "type": "uint256"
        }
      ],
      "stateMutability": "view",
      "type": "function",
      "constant": true
    },
    {
      "inputs": [
        {
          "internalType": "string",
          "name": "nme",
          "type": "string"
        },
        {
          "internalType": "string",
          "name": "prty",
          "type": "string"
        },
        {
          "internalType": "string",
          "name": "area",
          "type": "string"
        }
      ],
      "name": "addProposal",
      "outputs": [],
      "stateMutability": "nonpayable",
      "type": "function"
    },
    {
      "inputs": [
        {
          "internalType": "address",
          "name": "voter",
          "type": "address"
        }
      ],
      "name": "giveRightToVote",
      "outputs": [],
      "stateMutability": "nonpayable",
      "type": "function"
    },
    {
      "inputs": [
        {
          "internalType": "string",
          "name": "email",
          "type": "string"
        },
        {
          "internalType": "string",
          "name": "pass",
          "type": "string"
        },
        {
          "internalType": "string",
          "name": "name",
          "type": "string"
        },
        {
          "internalType": "uint256",
          "name": "Aadhar",
          "type": "uint256"
        },
        {
          "internalType": "string",
          "name": "ara",
          "type": "string"
        }
      ],
      "name": "voter_reg",
      "outputs": [],
      "stateMutability": "nonpayable",
      "type": "function"
    },
    {
      "inputs": [
        {
          "internalType": "string",
          "name": "email",
          "type": "string"
        },
        {
          "internalType": "uint256",
          "name": "Aadhar",
          "type": "uint256"
        },
        {
          "internalType": "uint256",
          "name": "proposal",
          "type": "uint256"
        }
      ],
      "name": "vote",
      "outputs": [],
      "stateMutability": "nonpayable",
      "type": "function"
    },
    {
      "inputs": [
        {
          "internalType": "string",
          "name": "area",
          "type": "string"
        }
      ],
      "name": "winnerNME_Vcount",
      "outputs": [
        {
          "components": [
            {
              "internalType": "bytes32",
              "name": "name",
              "type": "bytes32"
            },
            {
              "internalType": "bytes32",
              "name": "party",
              "type": "bytes32"
            },
            {
              "internalType": "uint256",
              "name": "voteCount",
              "type": "uint256"
            }
          ],
          "internalType": "struct E_voting_system.winner_in_area",
          "name": "",
          "type": "tuple"
        }
      ],
      "stateMutability": "view",
      "type": "function",
      "constant": true
    },
    {
      "inputs": [],
      "name": "changeState",
      "outputs": [],
      "stateMutability": "nonpayable",
      "type": "function"
    },
    {
      "inputs": [
        {
          "internalType": "string",
          "name": "newEmail",
          "type": "string"
        },
        {
          "internalType": "string",
          "name": "newPass",
          "type": "string"
        },
        {
          "internalType": "address",
          "name": "newChairperson",
          "type": "address"
        }
      ],
      "name": "changeChairperson",
      "outputs": [],
      "stateMutability": "nonpayable",
      "type": "function"
    },
    {
      "inputs": [],
      "name": "check_state",
      "outputs": [
        {
          "internalType": "enum E_voting_system.voting_state",
          "name": "st",
          "type": "uint8"
        }
      ],
      "stateMutability": "view",
      "type": "function",
      "constant": true
    },
    {
      "inputs": [
        {
          "internalType": "string",
          "name": "area",
          "type": "string"
        }
      ],
      "name": "vote_count",
      "outputs": [
        {
          "internalType": "uint256",
          "name": "",
          "type": "uint256"
        }
      ],
      "stateMutability": "view",
      "type": "function",
      "constant": true
    },
    {
      "inputs": [
        {
          "internalType": "string",
          "name": "area",
          "type": "string"
        }
      ],
      "name": "voter_count",
      "outputs": [
        {
          "internalType": "uint256",
          "name": "",
          "type": "uint256"
        }
      ],
      "stateMutability": "view",
      "type": "function",
      "constant": true
    },
    {
      "inputs": [
        {
          "internalType": "string",
          "name": "email",
          "type": "string"
        },
        {
          "internalType": "string",
          "name": "pass",
          "type": "string"
        }
      ],
      "name": "voterLogin",
      "outputs": [
        {
          "internalType": "bool",
          "name": "status",
          "type": "bool"
        },
        {
          "internalType": "uint256",
          "name": "Aadhar",
          "type": "uint256"
        },
        {
          "internalType": "string",
          "name": "area",
          "type": "string"
        }
      ],
      "stateMutability": "view",
      "type": "function",
      "constant": true
    },
    {
      "inputs": [],
      "name": "unauth_voters",
      "outputs": [
        {
          "internalType": "address[]",
          "name": "address_list",
          "type": "address[]"
        },
        {
          "components": [
            {
              "internalType": "bool",
              "name": "is_reg",
              "type": "bool"
            },
            {
              "internalType": "bool",
              "name": "is_authorized",
              "type": "bool"
            },
            {
              "internalType": "bool",
              "name": "voted",
              "type": "bool"
            },
            {
              "internalType": "uint256",
              "name": "vote",
              "type": "uint256"
            },
            {
              "internalType": "bytes32",
              "name": "name",
              "type": "bytes32"
            },
            {
              "internalType": "bytes32",
              "name": "area",
              "type": "bytes32"
            },
            {
              "internalType": "uint256",
              "name": "Aadhar",
              "type": "uint256"
            }
          ],
          "internalType": "struct E_voting_system.Voter[]",
          "name": "voter_detils",
          "type": "tuple[]"
        }
      ],
      "stateMutability": "view",
      "type": "function",
      "constant": true
    },
    {
      "inputs": [
        {
          "internalType": "string",
          "name": "area",
          "type": "string"
        }
      ],
      "name": "getProposal",
      "outputs": [
        {
          "components": [
            {
              "internalType": "bytes32",
              "name": "name",
              "type": "bytes32"
            },
            {
              "internalType": "bytes32",
              "name": "party",
              "type": "bytes32"
            },
            {
              "internalType": "uint256",
              "name": "voteCount",
              "type": "uint256"
            }
          ],
          "internalType": "struct E_voting_system.Proposal[]",
          "name": "",
          "type": "tuple[]"
        }
      ],
      "stateMutability": "view",
      "type": "function",
      "constant": true
    }
  ],
  "bytecode": "0x60806040523480156200001157600080fd5b506040516200425c3803806200425c8339818101604052810190620000379190620003a0565b6000815114156200007f576040517f08c379a000000000000000000000000000000000000000000000000000000000815260040162000076906200047e565b60405180910390fd5b336000806101000a81548173ffffffffffffffffffffffffffffffffffffffff021916908373ffffffffffffffffffffffffffffffffffffffff160217905550620000d084620002a260201b60201c565b600281905550620000e783620002a260201b60201c565b600181905550620000f7620002ce565b600181602001901515908115158152505060018160000190151590811515815250506200012a82620002a260201b60201c565b8160a0018181525050828160c001818152505080600560003373ffffffffffffffffffffffffffffffffffffffff1673ffffffffffffffffffffffffffffffffffffffff16815260200190815260200160002060008201518160000160006101000a81548160ff02191690831515021790555060208201518160000160016101000a81548160ff02191690831515021790555060408201518160000160026101000a81548160ff021916908315150217905550606082015181600101556080820151816002015560a0820151816003015560c082015181600401559050506001600760006200021f85620002a260201b60201c565b815260200190815260200160002060008282546200023e919062000510565b925050819055506000600360006101000a81548160ff0219169083600381111562000292577f4e487b7100000000000000000000000000000000000000000000000000000000600052602160045260246000fd5b0217905550505050505062000695565b600080829050600081511415620002c0576000801b915050620002c9565b60208301519150505b919050565b6040518060e00160405280600015158152602001600015158152602001600015158152602001600081526020016000801916815260200160008019168152602001600081525090565b60006200032e6200032884620004c9565b620004a0565b9050828152602081018484840111156200034757600080fd5b6200035484828562000577565b509392505050565b600082601f8301126200036e57600080fd5b81516200038084826020860162000317565b91505092915050565b6000815190506200039a816200067b565b92915050565b60008060008060808587031215620003b757600080fd5b600085015167ffffffffffffffff811115620003d257600080fd5b620003e0878288016200035c565b945050602085015167ffffffffffffffff811115620003fe57600080fd5b6200040c878288016200035c565b93505060406200041f8782880162000389565b925050606085015167ffffffffffffffff8111156200043d57600080fd5b6200044b878288016200035c565b91505092959194509250565b600062000466601883620004ff565b9150620004738262000652565b602082019050919050565b60006020820190508181036000830152620004998162000457565b9050919050565b6000620004ac620004bf565b9050620004ba8282620005ad565b919050565b6000604051905090565b600067ffffffffffffffff821115620004e757620004e662000612565b5b620004f28262000641565b9050602081019050919050565b600082825260208201905092915050565b60006200051d826200056d565b91506200052a836200056d565b9250827fffffffffffffffffffffffffffffffffffffffffffffffffffffffffffffffff03821115620005625762000561620005e3565b5b828201905092915050565b6000819050919050565b60005b83811015620005975780820151818401526020810190506200057a565b83811115620005a7576000848401525b50505050565b620005b88262000641565b810181811067ffffffffffffffff82111715620005da57620005d962000612565b5b80604052505050565b7f4e487b7100000000000000000000000000000000000000000000000000000000600052601160045260246000fd5b7f4e487b7100000000000000000000000000000000000000000000000000000000600052604160045260246000fd5b6000601f19601f8301169050919050565b7f506c65617365207370656369667920796f757220617265610000000000000000600082015250565b62000686816200056d565b81146200069257600080fd5b50565b613bb780620006a56000396000f3fe608060405234801561001057600080fd5b50600436106100ea5760003560e01c80639e7b8d611161008c578063aecb181b11610066578063aecb181b14610237578063b38b25ad14610256578063ceff34c214610286578063cf99cd1e146102b6576100ea565b80639e7b8d61146101e3578063a432547b146101ff578063a8e159901461021b576100ea565b806348a8f010116100c857806348a8f0101461015757806362845caa146101895780638412e667146101a757806399cab9da146101b1576100ea565b80630891d358146100ef57806325d3a09d1461010b5780634512e9081461013b575b600080fd5b6101096004803603810190610104919061281e565b6102e6565b005b61012560048036038101906101209190612584565b610b12565b6040516101329190612f06565b60405180910390f35b61015560048036038101906101509190612631565b610baa565b005b610171600480360381019061016c9190612548565b610c9b565b60405161018093929190612f66565b60405180910390f35b610191610ce2565b60405161019e9190612f9d565b60405180910390f35b6101af610cf9565b005b6101cb60048036038101906101c691906125c5565b610f97565b6040516101da93929190612f28565b60405180910390f35b6101fd60048036038101906101f8919061251f565b611149565b005b61021960048036038101906102149190612747565b6114a8565b005b610235600480360381019061023091906126b0565b611a16565b005b61023f611bfb565b60405161024d929190612ecf565b60405180910390f35b610270600480360381019061026b9190612584565b611fee565b60405161027d91906132b3565b60405180910390f35b6102a0600480360381019061029b9190612584565b612013565b6040516102ad9190613298565b60405180910390f35b6102d060048036038101906102cb9190612584565b61212d565b6040516102dd91906132b3565b60405180910390f35b6102ef83612152565b82826002600381111561032b577f4e487b7100000000000000000000000000000000000000000000000000000000600052602160045260246000fd5b600360009054906101000a900460ff166003811115610373577f4e487b7100000000000000000000000000000000000000000000000000000000600052602160045260246000fd5b146103b3576040517f08c379a00000000000000000000000000000000000000000000000000000000081526004016103aa90613078565b60405180910390fd5b3373ffffffffffffffffffffffffffffffffffffffff16600c600085815260200190815260200160002060010160009054906101000a900473ffffffffffffffffffffffffffffffffffffffff1673ffffffffffffffffffffffffffffffffffffffff16148061047b57508260025414801561047a57503373ffffffffffffffffffffffffffffffffffffffff1660008054906101000a900473ffffffffffffffffffffffffffffffffffffffff1673ffffffffffffffffffffffffffffffffffffffff16145b5b6104ba576040517f08c379a00000000000000000000000000000000000000000000000000000000081526004016104b1906131b8565b60405180910390fd5b6000600560003373ffffffffffffffffffffffffffffffffffffffff1673ffffffffffffffffffffffffffffffffffffffff1681526020019081526020016000206040518060e00160405290816000820160009054906101000a900460ff161515151581526020016000820160019054906101000a900460ff161515151581526020016000820160029054906101000a900460ff16151515158152602001600182015481526020016002820154815260200160038201548152602001600482015481525050905080600001516105c5576040517f08c379a00000000000000000000000000000000000000000000000000000000081526004016105bc906130b8565b60405180910390fd5b8060200151610609576040517f08c379a000000000000000000000000000000000000000000000000000000000815260040161060090613218565b60405180910390fd5b80604001511561064e576040517f08c379a0000000000000000000000000000000000000000000000000000000008152600401610645906130d8565b60405180910390fd5b828160c0015114610694576040517f08c379a000000000000000000000000000000000000000000000000000000000815260040161068b90613018565b60405180910390fd5b6000600660008360a0015181526020019081526020016000208054905014156106f2576040517f08c379a00000000000000000000000000000000000000000000000000000000081526004016106e9906131d8565b60405180910390fd5b81600660008360a00151815260200190815260200160002080549050101561074f576040517f08c379a000000000000000000000000000000000000000000000000000000000815260040161074690613158565b60405180910390fd5b6000600560003373ffffffffffffffffffffffffffffffffffffffff1673ffffffffffffffffffffffffffffffffffffffff1681526020019081526020016000206040518060e00160405290816000820160009054906101000a900460ff161515151581526020016000820160019054906101000a900460ff161515151581526020016000820160029054906101000a900460ff1615151515815260200160018201548152602001600282015481526020016003820154815260200160048201548152505090506001816040019015159081151581525050858160600181815250506000600660008360a0015181526020019081526020016000208781548110610882577f4e487b7100000000000000000000000000000000000000000000000000000000600052603260045260246000fd5b9060005260206000209060030201604051806060016040529081600082015481526020016001820154815260200160028201548152505090506001816040018181516108ce91906133eb565b9150818152505080600660008460a0015181526020019081526020016000208881548110610925577f4e487b7100000000000000000000000000000000000000000000000000000000600052603260045260246000fd5b906000526020600020906003020160008201518160000155602082015181600101556040820151816002015590505081600560003373ffffffffffffffffffffffffffffffffffffffff1673ffffffffffffffffffffffffffffffffffffffff16815260200190815260200160002060008201518160000160006101000a81548160ff02191690831515021790555060208201518160000160016101000a81548160ff02191690831515021790555060408201518160000160026101000a81548160ff021916908315150217905550606082015181600101556080820151816002015560a0820151816003015560c082015181600401559050506001600860008460a0015181526020019081526020016000206000828254610a4791906133eb565b925050819055506000600960008460a00151815260200190815260200160002060405180606001604052908160008201548152602001600182015481526020016002820154815250509050816040015181604001511015610b065781600001518160000181815250508160400151816040018181525050816020015181602001818152505080600960008560a0015181526020019081526020016000206000820151816000015560208201518160010155604082015181600201559050505b50505050505050505050565b606060066000610b2184612152565b8152602001908152602001600020805480602002602001604051908101604052809291908181526020016000905b82821015610b9f5783829060005260206000209060030201604051806060016040529081600082015481526020016001820154815260200160028201548152505081526020019060010190610b4f565b505050509050919050565b60008054906101000a900473ffffffffffffffffffffffffffffffffffffffff1673ffffffffffffffffffffffffffffffffffffffff163373ffffffffffffffffffffffffffffffffffffffff1614610c38576040517f08c379a0000000000000000000000000000000000000000000000000000000008152600401610c2f90613118565b60405180910390fd5b806000806101000a81548173ffffffffffffffffffffffffffffffffffffffff021916908373ffffffffffffffffffffffffffffffffffffffff160217905550610c8183612152565b600281905550610c9082612152565b600181905550505050565b60066020528160005260406000208181548110610cb757600080fd5b9060005260206000209060030201600091509150508060000154908060010154908060020154905083565b6000600360009054906101000a900460ff16905090565b60008054906101000a900473ffffffffffffffffffffffffffffffffffffffff1673ffffffffffffffffffffffffffffffffffffffff163373ffffffffffffffffffffffffffffffffffffffff1614610d87576040517f08c379a0000000000000000000000000000000000000000000000000000000008152600401610d7e906131f8565b60405180910390fd5b60006003811115610dc1577f4e487b7100000000000000000000000000000000000000000000000000000000600052602160045260246000fd5b600360009054906101000a900460ff166003811115610e09577f4e487b7100000000000000000000000000000000000000000000000000000000600052602160045260246000fd5b1415610e65576001600360006101000a81548160ff02191690836003811115610e5b577f4e487b7100000000000000000000000000000000000000000000000000000000600052602160045260246000fd5b0217905550610f95565b60016003811115610e9f577f4e487b7100000000000000000000000000000000000000000000000000000000600052602160045260246000fd5b600360009054906101000a900460ff166003811115610ee7577f4e487b7100000000000000000000000000000000000000000000000000000000600052602160045260246000fd5b1415610f43576002600360006101000a81548160ff02191690836003811115610f39577f4e487b7100000000000000000000000000000000000000000000000000000000600052602160045260246000fd5b0217905550610f94565b60038060006101000a81548160ff02191690836003811115610f8e577f4e487b7100000000000000000000000000000000000000000000000000000000600052602160045260246000fd5b02179055505b5b565b60008060606000600c6000610fab88612152565b8152602001908152602001600020604051806040016040529081600082015481526020016001820160009054906101000a900473ffffffffffffffffffffffffffffffffffffffff1673ffffffffffffffffffffffffffffffffffffffff1673ffffffffffffffffffffffffffffffffffffffff16815250509050600060056000836020015173ffffffffffffffffffffffffffffffffffffffff1673ffffffffffffffffffffffffffffffffffffffff1681526020019081526020016000206040518060e00160405290816000820160009054906101000a900460ff161515151581526020016000820160019054906101000a900460ff161515151581526020016000820160029054906101000a900460ff1615151515815260200160018201548152602001600282015481526020016003820154815260200160048201548152505090506110fa86612152565b826000015114156111265760018160c001516111198360a0015161217c565b9450945094505050611142565b6000806040518060200160405280600081525094509450945050505b9250925092565b8060008054906101000a900473ffffffffffffffffffffffffffffffffffffffff1673ffffffffffffffffffffffffffffffffffffffff163373ffffffffffffffffffffffffffffffffffffffff16146111d8576040517f08c379a00000000000000000000000000000000000000000000000000000000081526004016111cf90613138565b60405180910390fd5b60016003811115611212577f4e487b7100000000000000000000000000000000000000000000000000000000600052602160045260246000fd5b600360009054906101000a900460ff16600381111561125a577f4e487b7100000000000000000000000000000000000000000000000000000000600052602160045260246000fd5b1461129a576040517f08c379a000000000000000000000000000000000000000000000000000000000815260040161129190612fd8565b60405180910390fd5b600560008273ffffffffffffffffffffffffffffffffffffffff1673ffffffffffffffffffffffffffffffffffffffff16815260200190815260200160002060000160009054906101000a900460ff16611329576040517f08c379a000000000000000000000000000000000000000000000000000000000815260040161132090612ff8565b60405180910390fd5b600560008273ffffffffffffffffffffffffffffffffffffffff1673ffffffffffffffffffffffffffffffffffffffff16815260200190815260200160002060000160029054906101000a900460ff16156113b9576040517f08c379a00000000000000000000000000000000000000000000000000000000081526004016113b090613258565b60405180910390fd5b600560008273ffffffffffffffffffffffffffffffffffffffff1673ffffffffffffffffffffffffffffffffffffffff16815260200190815260200160002060000160019054906101000a900460ff1615611449576040517f08c379a000000000000000000000000000000000000000000000000000000000815260040161144090613098565b60405180910390fd5b6001600560008473ffffffffffffffffffffffffffffffffffffffff1673ffffffffffffffffffffffffffffffffffffffff16815260200190815260200160002060000160016101000a81548160ff0219169083151502179055505050565b600560003373ffffffffffffffffffffffffffffffffffffffff1673ffffffffffffffffffffffffffffffffffffffff1681526020019081526020016000206040518060e00160405290816000820160009054906101000a900460ff161515151581526020016000820160019054906101000a900460ff161515151581526020016000820160029054906101000a900460ff1615151515815260200160018201548152602001600282015481526020016003820154815260200160048201548152505061157486612152565b83600060038111156115af577f4e487b7100000000000000000000000000000000000000000000000000000000600052602160045260246000fd5b600360009054906101000a900460ff1660038111156115f7577f4e487b7100000000000000000000000000000000000000000000000000000000600052602160045260246000fd5b14611637576040517f08c379a000000000000000000000000000000000000000000000000000000000815260040161162e90613238565b60405180910390fd5b600a600083815260200190815260200160002060009054906101000a900460ff1615611698576040517f08c379a000000000000000000000000000000000000000000000000000000000815260040161168f90613038565b60405180910390fd5b600b600082815260200190815260200160002060009054906101000a900460ff16156116f9576040517f08c379a00000000000000000000000000000000000000000000000000000000081526004016116f090612fb8565b60405180910390fd5b82600001511561173e576040517f08c379a000000000000000000000000000000000000000000000000000000000815260040161173590613058565b60405180910390fd5b6040518060e001604052806001151581526020016000151581526020016000151581526020016000815260200161177488612152565b815260200161178286612152565b815260200186815250600560003373ffffffffffffffffffffffffffffffffffffffff1673ffffffffffffffffffffffffffffffffffffffff16815260200190815260200160002060008201518160000160006101000a81548160ff02191690831515021790555060208201518160000160016101000a81548160ff02191690831515021790555060408201518160000160026101000a81548160ff021916908315150217905550606082015181600101556080820151816002015560a0820151816003015560c0820151816004015590505060016007600061186487612152565b8152602001908152602001600020600082825461188191906133eb565b92505081905550600061189389612152565b90506001600a600083815260200190815260200160002060006101000a81548160ff0219169083151502179055506001600b600088815260200190815260200160002060006101000a81548160ff0219169083151502179055506004339080600181540180825580915050600190039060005260206000200160009091909190916101000a81548173ffffffffffffffffffffffffffffffffffffffff021916908373ffffffffffffffffffffffffffffffffffffffff1602179055506119586123d5565b61196189612152565b81600001818152505033816020019073ffffffffffffffffffffffffffffffffffffffff16908173ffffffffffffffffffffffffffffffffffffffff168152505080600c60008481526020019081526020016000206000820151816000015560208201518160010160006101000a81548173ffffffffffffffffffffffffffffffffffffffff021916908373ffffffffffffffffffffffffffffffffffffffff16021790555090505050505050505050505050565b60008054906101000a900473ffffffffffffffffffffffffffffffffffffffff1673ffffffffffffffffffffffffffffffffffffffff163373ffffffffffffffffffffffffffffffffffffffff1614611aa4576040517f08c379a0000000000000000000000000000000000000000000000000000000008152600401611a9b90613178565b60405180910390fd5b60006003811115611ade577f4e487b7100000000000000000000000000000000000000000000000000000000600052602160045260246000fd5b600360009054906101000a900460ff166003811115611b26577f4e487b7100000000000000000000000000000000000000000000000000000000600052602160045260246000fd5b14611b66576040517f08c379a0000000000000000000000000000000000000000000000000000000008152600401611b5d90613278565b60405180910390fd5b60066000611b7383612152565b81526020019081526020016000206040518060600160405280611b9586612152565b8152602001611ba385612152565b8152602001600081525090806001815401808255809150506001900390600052602060002090600302016000909190919091506000820151816000015560208201518160010155604082015181600201555050505050565b60608060008054906101000a900473ffffffffffffffffffffffffffffffffffffffff1673ffffffffffffffffffffffffffffffffffffffff163373ffffffffffffffffffffffffffffffffffffffff1614611c8c576040517f08c379a0000000000000000000000000000000000000000000000000000000008152600401611c83906130f8565b60405180910390fd5b60048054905067ffffffffffffffff811115611cd1577f4e487b7100000000000000000000000000000000000000000000000000000000600052604160045260246000fd5b604051908082528060200260200182016040528015611cff5781602001602082028036833780820191505090505b50915060048054905067ffffffffffffffff811115611d47577f4e487b7100000000000000000000000000000000000000000000000000000000600052604160045260246000fd5b604051908082528060200260200182016040528015611d8057816020015b611d6d612408565b815260200190600190039081611d655790505b50905060005b600480549050811015611fe95760048181548110611dcd577f4e487b7100000000000000000000000000000000000000000000000000000000600052603260045260246000fd5b9060005260206000200160009054906101000a900473ffffffffffffffffffffffffffffffffffffffff16838281518110611e31577f4e487b7100000000000000000000000000000000000000000000000000000000600052603260045260246000fd5b602002602001019073ffffffffffffffffffffffffffffffffffffffff16908173ffffffffffffffffffffffffffffffffffffffff16815250506005600060048381548110611ea9577f4e487b7100000000000000000000000000000000000000000000000000000000600052603260045260246000fd5b9060005260206000200160009054906101000a900473ffffffffffffffffffffffffffffffffffffffff1673ffffffffffffffffffffffffffffffffffffffff1673ffffffffffffffffffffffffffffffffffffffff1681526020019081526020016000206040518060e00160405290816000820160009054906101000a900460ff161515151581526020016000820160019054906101000a900460ff161515151581526020016000820160029054906101000a900460ff16151515158152602001600182015481526020016002820154815260200160038201548152602001600482015481525050828281518110611fcb577f4e487b7100000000000000000000000000000000000000000000000000000000600052603260045260246000fd5b60200260200101819052508080611fe190613538565b915050611d86565b509091565b600060076000611ffd84612152565b8152602001908152602001600020549050919050565b61201b612451565b600380811115612054577f4e487b7100000000000000000000000000000000000000000000000000000000600052602160045260246000fd5b600360009054906101000a900460ff16600381111561209c577f4e487b7100000000000000000000000000000000000000000000000000000000600052602160045260246000fd5b146120dc576040517f08c379a00000000000000000000000000000000000000000000000000000000081526004016120d390613198565b60405180910390fd5b6000600960006120eb85612152565b81526020019081526020016000206040518060600160405290816000820154815260200160018201548152602001600282015481525050905080915050919050565b60006008600061213c84612152565b8152602001908152602001600020549050919050565b60008082905060008151141561216e576000801b915050612177565b60208301519150505b919050565b606060005b60208160ff161080156121f95750600060f81b838260ff16602081106121d0577f4e487b7100000000000000000000000000000000000000000000000000000000600052603260045260246000fd5b1a60f81b7effffffffffffffffffffffffffffffffffffffffffffffffffffffffffffff191614155b1561221157808061220990613581565b915050612181565b60008160ff1667ffffffffffffffff811115612256577f4e487b7100000000000000000000000000000000000000000000000000000000600052604160045260246000fd5b6040519080825280601f01601f1916602001820160405280156122885781602001600182028036833780820191505090505b509050600091505b60208260ff161080156123085750600060f81b848360ff16602081106122df577f4e487b7100000000000000000000000000000000000000000000000000000000600052603260045260246000fd5b1a60f81b7effffffffffffffffffffffffffffffffffffffffffffffffffffffffffffff191614155b156123cb57838260ff1660208110612349577f4e487b7100000000000000000000000000000000000000000000000000000000600052603260045260246000fd5b1a60f81b818360ff1681518110612389577f4e487b7100000000000000000000000000000000000000000000000000000000600052603260045260246000fd5b60200101907effffffffffffffffffffffffffffffffffffffffffffffffffffffffffffff1916908160001a90535081806123c390613581565b925050612290565b8092505050919050565b604051806040016040528060008019168152602001600073ffffffffffffffffffffffffffffffffffffffff1681525090565b6040518060e00160405280600015158152602001600015158152602001600015158152602001600081526020016000801916815260200160008019168152602001600081525090565b60405180606001604052806000801916815260200160008019168152602001600081525090565b600061248b612486846132f3565b6132ce565b9050828152602081018484840111156124a357600080fd5b6124ae8482856134c5565b509392505050565b6000813590506124c581613b3c565b92915050565b6000813590506124da81613b53565b92915050565b600082601f8301126124f157600080fd5b8135612501848260208601612478565b91505092915050565b60008135905061251981613b6a565b92915050565b60006020828403121561253157600080fd5b600061253f848285016124b6565b91505092915050565b6000806040838503121561255b57600080fd5b6000612569858286016124cb565b925050602061257a8582860161250a565b9150509250929050565b60006020828403121561259657600080fd5b600082013567ffffffffffffffff8111156125b057600080fd5b6125bc848285016124e0565b91505092915050565b600080604083850312156125d857600080fd5b600083013567ffffffffffffffff8111156125f257600080fd5b6125fe858286016124e0565b925050602083013567ffffffffffffffff81111561261b57600080fd5b612627858286016124e0565b9150509250929050565b60008060006060848603121561264657600080fd5b600084013567ffffffffffffffff81111561266057600080fd5b61266c868287016124e0565b935050602084013567ffffffffffffffff81111561268957600080fd5b612695868287016124e0565b92505060406126a6868287016124b6565b9150509250925092565b6000806000606084860312156126c557600080fd5b600084013567ffffffffffffffff8111156126df57600080fd5b6126eb868287016124e0565b935050602084013567ffffffffffffffff81111561270857600080fd5b612714868287016124e0565b925050604084013567ffffffffffffffff81111561273157600080fd5b61273d868287016124e0565b9150509250925092565b600080600080600060a0868803121561275f57600080fd5b600086013567ffffffffffffffff81111561277957600080fd5b612785888289016124e0565b955050602086013567ffffffffffffffff8111156127a257600080fd5b6127ae888289016124e0565b945050604086013567ffffffffffffffff8111156127cb57600080fd5b6127d7888289016124e0565b93505060606127e88882890161250a565b925050608086013567ffffffffffffffff81111561280557600080fd5b612811888289016124e0565b9150509295509295909350565b60008060006060848603121561283357600080fd5b600084013567ffffffffffffffff81111561284d57600080fd5b612859868287016124e0565b935050602061286a8682870161250a565b925050604061287b8682870161250a565b9150509250925092565b600061289183836128cd565b60208301905092915050565b60006128a98383612d9f565b60608301905092915050565b60006128c18383612de1565b60e08301905092915050565b6128d681613441565b82525050565b60006128e782613354565b6128f181856133a7565b93506128fc83613324565b8060005b8381101561292d5781516129148882612885565b975061291f83613380565b925050600181019050612900565b5085935050505092915050565b60006129458261335f565b61294f81856133b8565b935061295a83613334565b8060005b8381101561298b578151612972888261289d565b975061297d8361338d565b92505060018101905061295e565b5085935050505092915050565b60006129a38261336a565b6129ad81856133c9565b93506129b883613344565b8060005b838110156129e95781516129d088826128b5565b97506129db8361339a565b9250506001810190506129bc565b5085935050505092915050565b6129ff81613453565b82525050565b612a0e81613453565b82525050565b612a1d8161345f565b82525050565b612a2c8161345f565b82525050565b612a3b816134b3565b82525050565b6000612a4c82613375565b612a5681856133da565b9350612a668185602086016134d4565b612a6f81613638565b840191505092915050565b6000612a876022836133da565b9150612a9282613649565b604082019050919050565b6000612aaa6027836133da565b9150612ab582613698565b604082019050919050565b6000612acd6019836133da565b9150612ad8826136e7565b602082019050919050565b6000612af0603f836133da565b9150612afb82613710565b604082019050919050565b6000612b13601c836133da565b9150612b1e8261375f565b602082019050919050565b6000612b36601b836133da565b9150612b4182613788565b602082019050919050565b6000612b596019836133da565b9150612b64826137b1565b602082019050919050565b6000612b7c601e836133da565b9150612b87826137da565b602082019050919050565b6000612b9f6019836133da565b9150612baa82613803565b602082019050919050565b6000612bc2600e836133da565b9150612bcd8261382c565b602082019050919050565b6000612be56032836133da565b9150612bf082613855565b604082019050919050565b6000612c08602b836133da565b9150612c13826138a4565b604082019050919050565b6000612c2b6028836133da565b9150612c36826138f3565b604082019050919050565b6000612c4e601f836133da565b9150612c5982613942565b602082019050919050565b6000612c716027836133da565b9150612c7c8261396b565b604082019050919050565b6000612c946018836133da565b9150612c9f826139ba565b602082019050919050565b6000612cb76020836133da565b9150612cc2826139e3565b602082019050919050565b6000612cda601d836133da565b9150612ce582613a0c565b602082019050919050565b6000612cfd6025836133da565b9150612d0882613a35565b604082019050919050565b6000612d206015836133da565b9150612d2b82613a84565b602082019050919050565b6000612d436014836133da565b9150612d4e82613aad565b602082019050919050565b6000612d666018836133da565b9150612d7182613ad6565b602082019050919050565b6000612d896014836133da565b9150612d9482613aff565b602082019050919050565b606082016000820151612db56000850182612a14565b506020820151612dc86020850182612a14565b506040820151612ddb6040850182612eb1565b50505050565b60e082016000820151612df760008501826129f6565b506020820151612e0a60208501826129f6565b506040820151612e1d60408501826129f6565b506060820151612e306060850182612eb1565b506080820151612e436080850182612a14565b5060a0820151612e5660a0850182612a14565b5060c0820151612e6960c0850182612eb1565b50505050565b606082016000820151612e856000850182612a14565b506020820151612e986020850182612a14565b506040820151612eab6040850182612eb1565b50505050565b612eba8161349c565b82525050565b612ec98161349c565b82525050565b60006040820190508181036000830152612ee981856128dc565b90508181036020830152612efd8184612998565b90509392505050565b60006020820190508181036000830152612f20818461293a565b905092915050565b6000606082019050612f3d6000830186612a05565b612f4a6020830185612ec0565b8181036040830152612f5c8184612a41565b9050949350505050565b6000606082019050612f7b6000830186612a23565b612f886020830185612a23565b612f956040830184612ec0565b949350505050565b6000602082019050612fb26000830184612a32565b92915050565b60006020820190508181036000830152612fd181612a7a565b9050919050565b60006020820190508181036000830152612ff181612a9d565b9050919050565b6000602082019050818103600083015261301181612ac0565b9050919050565b6000602082019050818103600083015261303181612ae3565b9050919050565b6000602082019050818103600083015261305181612b06565b9050919050565b6000602082019050818103600083015261307181612b29565b9050919050565b6000602082019050818103600083015261309181612b4c565b9050919050565b600060208201905081810360008301526130b181612b6f565b9050919050565b600060208201905081810360008301526130d181612b92565b9050919050565b600060208201905081810360008301526130f181612bb5565b9050919050565b6000602082019050818103600083015261311181612bd8565b9050919050565b6000602082019050818103600083015261313181612bfb565b9050919050565b6000602082019050818103600083015261315181612c1e565b9050919050565b6000602082019050818103600083015261317181612c41565b9050919050565b6000602082019050818103600083015261319181612c64565b9050919050565b600060208201905081810360008301526131b181612c87565b9050919050565b600060208201905081810360008301526131d181612caa565b9050919050565b600060208201905081810360008301526131f181612ccd565b9050919050565b6000602082019050818103600083015261321181612cf0565b9050919050565b6000602082019050818103600083015261323181612d13565b9050919050565b6000602082019050818103600083015261325181612d36565b9050919050565b6000602082019050818103600083015261327181612d59565b9050919050565b6000602082019050818103600083015261329181612d7c565b9050919050565b60006060820190506132ad6000830184612e6f565b92915050565b60006020820190506132c86000830184612ec0565b92915050565b60006132d86132e9565b90506132e48282613507565b919050565b6000604051905090565b600067ffffffffffffffff82111561330e5761330d613609565b5b61331782613638565b9050602081019050919050565b6000819050602082019050919050565b6000819050602082019050919050565b6000819050602082019050919050565b600081519050919050565b600081519050919050565b600081519050919050565b600081519050919050565b6000602082019050919050565b6000602082019050919050565b6000602082019050919050565b600082825260208201905092915050565b600082825260208201905092915050565b600082825260208201905092915050565b600082825260208201905092915050565b60006133f68261349c565b91506134018361349c565b9250827fffffffffffffffffffffffffffffffffffffffffffffffffffffffffffffffff03821115613436576134356135ab565b5b828201905092915050565b600061344c8261347c565b9050919050565b60008115159050919050565b6000819050919050565b600081905061347782613b28565b919050565b600073ffffffffffffffffffffffffffffffffffffffff82169050919050565b6000819050919050565b600060ff82169050919050565b60006134be82613469565b9050919050565b82818337600083830152505050565b60005b838110156134f25780820151818401526020810190506134d7565b83811115613501576000848401525b50505050565b61351082613638565b810181811067ffffffffffffffff8211171561352f5761352e613609565b5b80604052505050565b60006135438261349c565b91507fffffffffffffffffffffffffffffffffffffffffffffffffffffffffffffffff821415613576576135756135ab565b5b600182019050919050565b600061358c826134a6565b915060ff8214156135a05761359f6135ab565b5b600182019050919050565b7f4e487b7100000000000000000000000000000000000000000000000000000000600052601160045260246000fd5b7f4e487b7100000000000000000000000000000000000000000000000000000000600052602160045260246000fd5b7f4e487b7100000000000000000000000000000000000000000000000000000000600052604160045260246000fd5b6000601f19601f8301169050919050565b7f54686973204164686172204e756d62657220697320616c72656479207072657360008201527f6574000000000000000000000000000000000000000000000000000000000000602082015250565b7f56616c69646174696f6e2070726f6365737320686173206e6f74206265656e2060008201527f7374617274656400000000000000000000000000000000000000000000000000602082015250565b7f766f746572206973206e6f742072656769737465722079657400000000000000600082015250565b7f416164686172204e756d626572206d697373206d6174636820706c656173652060008201527f656e746572207265676973746572656420416164686172204e756d6265722e00602082015250565b7f5468697320456d61696c20697320616c726564792070726573656e7400000000600082015250565b7f596f75206861766520616c726561647920726567697374657265640000000000600082015250565b7f566f74696e67207374616765206973206e6f7420737461727400000000000000600082015250565b7f54686520766f74657220697320616c7265647920617574686f72697a65640000600082015250565b7f596f7520617265206e6f74207265676973746572207965742e00000000000000600082015250565b7f416c726561647920766f7465642e000000000000000000000000000000000000600082015250565b7f4f6e6c7920436861697220706572736f6e206861766520726967687420746f2060008201527f63616c6c20746869732066756e6374696f6e0000000000000000000000000000602082015250565b7f4f6e6c79204368616972706572736f6e2063616e2061737369676e206e65772060008201527f4368616972706572736f6e000000000000000000000000000000000000000000602082015250565b7f4f6e6c79206368616972706572736f6e2063616e20676976652072696768742060008201527f746f20766f74652e000000000000000000000000000000000000000000000000602082015250565b7f596f7520686176652063686f6f736520776f726e672070726f706f73616c2e00600082015250565b7f4f6e6c79206368616972706572736f6e2072696768747320746f20616464207060008201527f726f706f73616c00000000000000000000000000000000000000000000000000602082015250565b7f566f74696e672070726f63657373206e6f7420636c6f73650000000000000000600082015250565b7f77652063616e6e27742076616c69646174657320796f7572206163636f756e74600082015250565b7f5468657265206973206e6f2070726f706f73616c20746f20766f74652e000000600082015250565b7f4f6e6c79204368616972706572736f6e2063616e206368616e6765207468652060008201527f7374617465000000000000000000000000000000000000000000000000000000602082015250565b7f486173206e6f20726967687420746f20766f74652e0000000000000000000000600082015250565b7f526567697374726174696f6e206973204f766572000000000000000000000000600082015250565b7f54686520766f74657220616c726561647920766f7465642e0000000000000000600082015250565b7f526567697374726174696f6e206973206f766572000000000000000000000000600082015250565b60048110613b3957613b386135da565b5b50565b613b4581613441565b8114613b5057600080fd5b50565b613b5c8161345f565b8114613b6757600080fd5b50565b613b738161349c565b8114613b7e57600080fd5b5056fea264697066735822122041638f4095240d02d76325d3d539087b47e0c8ea6eec8cccf03a3537d7e686b364736f6c63430008040033",
  "immutableReferences": {},
  "source": "// SPDX-License-Identifier: MIT\r\npragma solidity >=0.4.22 <0.9.0;\r\n\r\n/**\r\n * @title Ballot\r\n * @dev Implements voting process along with vote delegation\r\n */\r\ncontract E_voting_system {\r\n    //variable declaration\r\n\r\n    struct Voter_login_details {\r\n        bytes32 pass;\r\n        address voter;\r\n    }\r\n\r\n    struct Voter {\r\n        bool is_reg;\r\n        bool is_authorized; // is voter is authorize to vote\r\n        bool voted; // if true, that person already voted\r\n        uint256 vote; // index of the voted proposal\r\n        bytes32 name;\r\n        bytes32 area; // area of voter\r\n        uint256 Aadhar; //Aadhar card number\r\n    }\r\n\r\n    struct Proposal {\r\n        // If you can limit the length to a certain number of bytes,\r\n        // always use one of bytes1 to bytes32 because they are much cheaper\r\n        bytes32 name; // short name (up to 32 bytes)\r\n        bytes32 party;\r\n        uint256 voteCount; // number of accumulated votes\r\n    }\r\n    struct winner_in_area {\r\n        bytes32 name;\r\n        bytes32 party;\r\n        uint256 voteCount;\r\n    }\r\n\r\n    address private chairperson;\r\n    bytes32 private chair_pass;\r\n    bytes32 private chair_email;\r\n\r\n    enum voting_state {\r\n        reg,\r\n        validation,\r\n        voting,\r\n        close\r\n    }\r\n\r\n    voting_state private state;\r\n    address[] voter_address;\r\n    mapping(address => Voter) private voters;\r\n    mapping(bytes32 => Proposal[]) public area_proposal;\r\n    mapping(bytes32 => uint256) private reg_voter_count_per_area;\r\n    mapping(bytes32 => uint256) private vote_count_per_area;\r\n    mapping(bytes32 => winner_in_area) private winner_per_area;\r\n    mapping(bytes32 => bool) private email_validation;\r\n    mapping(uint256 => bool) private Aadhar_validation;\r\n    mapping(bytes32 => Voter_login_details) private login_details;\r\n\r\n    /**\r\n     * @dev constructor create an owner an set the right to vote for the owner.\r\n     */\r\n    constructor(\r\n        string memory email,\r\n        string memory pass,\r\n        uint256 Aadhar,\r\n        string memory area\r\n    ) {\r\n        require(bytes(area).length != 0, \"Please specify your area\");\r\n        chairperson = msg.sender;\r\n        chair_email = stringToBytes32(email);\r\n        chair_pass = stringToBytes32(pass);\r\n        Voter memory sender;\r\n        sender.is_authorized = true;\r\n        sender.is_reg = true;\r\n        sender.area = stringToBytes32(area);\r\n        sender.Aadhar = Aadhar;\r\n        voters[msg.sender] = sender;\r\n        reg_voter_count_per_area[stringToBytes32(area)] += 1;\r\n        state = voting_state.reg;\r\n    }\r\n\r\n    // Modifiers\r\n\r\n    modifier Only_chairperson() {\r\n        require(\r\n            msg.sender == chairperson,\r\n            \"Only chairperson rights to add proposal\"\r\n        );\r\n        require(state == voting_state.reg, \"Registration is over\");\r\n        _;\r\n    }\r\n\r\n    modifier check_for_right(address voter) {\r\n        require(\r\n            msg.sender == chairperson,\r\n            \"Only chairperson can give right to vote.\"\r\n        );\r\n        require(\r\n            state == voting_state.validation,\r\n            \"Validation process has not been started\"\r\n        );\r\n        require(voters[voter].is_reg, \"voter is not register yet\");\r\n        require(!voters[voter].voted, \"The voter already voted.\");\r\n        require(!voters[voter].is_authorized,\"The voter is alredy authorized\");\r\n        _;\r\n    }\r\n\r\n    modifier check_status(\r\n        Voter memory voter,\r\n        bytes32 email,\r\n        uint256 Aadhar\r\n    ) {\r\n        require(state == voting_state.reg, \"Registration is Over\");\r\n        require(!email_validation[email], \"This Email is alredy present\");\r\n        require(\r\n            !Aadhar_validation[Aadhar],\r\n            \"This Adhar Number is alredy preset\"\r\n        );\r\n        require(!voter.is_reg, \"You have already registered\");\r\n        _;\r\n    }\r\n\r\n    modifier Only_auth_non_voted_voters(\r\n        bytes32 email,\r\n        uint256 Aadhar,\r\n        uint256 proposal\r\n    ) {\r\n        require(state == voting_state.voting, \"Voting stage is not start\");\r\n        require(\r\n            ((login_details[email].voter == msg.sender) ||\r\n                (chair_email == email && chairperson == msg.sender)),\r\n            \"we cann't validates your account\"\r\n        );\r\n        Voter memory sender = voters[msg.sender];\r\n        require(sender.is_reg, \"You are not register yet.\");\r\n        require(sender.is_authorized, \"Has no right to vote.\");\r\n        require(!sender.voted, \"Already voted.\");\r\n        require(\r\n            sender.Aadhar == Aadhar,\r\n            \"Aadhar Number miss match please enter registered Aadhar Number.\"\r\n        );\r\n        require(\r\n            area_proposal[sender.area].length != 0,\r\n            \"There is no proposal to vote.\"\r\n        );\r\n        require(\r\n            area_proposal[sender.area].length >= proposal,\r\n            \"You have choose worng proposal.\"\r\n        );\r\n        _;\r\n    }\r\n\r\n    //event\r\n    // event state_change(voting_state state);\r\n\r\n    // Functions\r\n\r\n    // This function is used by the chairperson only to add the Proposal\r\n    function addProposal(\r\n        string memory nme,\r\n        string memory prty,\r\n        string memory area\r\n    ) public Only_chairperson {\r\n        area_proposal[stringToBytes32(area)].push(\r\n            Proposal({\r\n                name: stringToBytes32(nme),\r\n                party: stringToBytes32(prty),\r\n                voteCount: 0\r\n            })\r\n        );\r\n    }\r\n\r\n    /**\r\n     * @dev Give 'voter' the right to vote on this ballot. May only be called by 'chairperson'.\r\n     * @param voter address of voter\r\n     */\r\n\r\n    function giveRightToVote(address voter) public check_for_right(voter) {\r\n        voters[voter].is_authorized = true;\r\n    }\r\n\r\n    // This function is used by the voter to register yourself\r\n    function voter_reg(\r\n        string memory email,\r\n        string memory pass,\r\n        string memory name,\r\n        uint256 Aadhar,\r\n        string memory ara\r\n    ) public check_status(voters[msg.sender], stringToBytes32(email), Aadhar) {\r\n        voters[msg.sender] = Voter({\r\n            is_reg: true,\r\n            is_authorized: false,\r\n            voted: false,\r\n            vote: 0,\r\n            area: stringToBytes32(ara),\r\n            Aadhar: Aadhar,\r\n            name : stringToBytes32(name)\r\n        });\r\n        reg_voter_count_per_area[stringToBytes32(ara)] += 1;\r\n        bytes32 em = stringToBytes32(email);\r\n        email_validation[em] = true;\r\n        Aadhar_validation[Aadhar] = true;\r\n        voter_address.push(msg.sender);\r\n        Voter_login_details memory vrdt;\r\n        vrdt.pass = stringToBytes32(pass);\r\n        vrdt.voter = msg.sender;\r\n        login_details[em] = vrdt;\r\n    }\r\n\r\n    /**\r\n     * @dev Give your vote (including votes delegated to you) to proposal 'proposals[proposal].name'.\r\n     * @param proposal index of proposal in the proposals array\r\n     */\r\n\r\n    function vote(\r\n        string memory email,\r\n        uint256 Aadhar,\r\n        uint256 proposal\r\n    )\r\n        public\r\n        Only_auth_non_voted_voters(stringToBytes32(email), Aadhar, proposal)\r\n    {\r\n        Voter memory sender = voters[msg.sender];\r\n        sender.voted = true;\r\n        sender.vote = proposal;\r\n        Proposal memory p = area_proposal[sender.area][proposal];\r\n        p.voteCount += 1;\r\n        area_proposal[sender.area][proposal] = p;\r\n        voters[msg.sender] = sender;\r\n        vote_count_per_area[sender.area] += 1;\r\n        winner_in_area memory w = winner_per_area[sender.area];\r\n        if (w.voteCount < p.voteCount) {\r\n            w.name = p.name;\r\n            w.voteCount = p.voteCount;\r\n            w.party = p.party;\r\n            winner_per_area[sender.area] = w;\r\n        }\r\n    }\r\n\r\n    /**\r\n     * @return winnerName_ the name of the winner\r\n     */\r\n    function winnerNME_Vcount(string memory area)\r\n        public\r\n        view\r\n        returns (winner_in_area memory)\r\n    {\r\n        require(state == voting_state.close, \"Voting process not close\");\r\n        winner_in_area memory w = winner_per_area[stringToBytes32(area)];\r\n        return (w);\r\n    }\r\n\r\n    function changeState() public {\r\n        require(\r\n            msg.sender == chairperson,\r\n            \"Only Chairperson can change the state\"\r\n        );\r\n        if (state == voting_state.reg) {\r\n            state = voting_state.validation;\r\n        } else if (state == voting_state.validation) {\r\n            state = voting_state.voting;\r\n        } else {\r\n            state = voting_state.close;\r\n        }\r\n    }\r\n\r\n    function changeChairperson(\r\n        string memory newEmail,\r\n        string memory newPass,\r\n        address newChairperson\r\n    ) public {\r\n        require(\r\n            msg.sender == chairperson,\r\n            \"Only Chairperson can assign new Chairperson\"\r\n        );\r\n        chairperson = newChairperson;\r\n        chair_email = stringToBytes32(newEmail);\r\n        chair_pass = stringToBytes32(newPass);\r\n    }\r\n\r\n    function check_state() public view returns (voting_state st) {\r\n        return state;\r\n    }\r\n\r\n    function vote_count(string memory area) public view returns (uint256) {\r\n        return vote_count_per_area[stringToBytes32(area)];\r\n    }\r\n\r\n    function voter_count(string memory area) public view returns (uint256) {\r\n        return reg_voter_count_per_area[stringToBytes32(area)];\r\n    }\r\n\r\n    function voterLogin(string memory email, string memory pass)\r\n        public\r\n        view\r\n        returns (\r\n            bool status,\r\n            uint256 Aadhar,\r\n            string memory area\r\n        )\r\n    {\r\n        Voter_login_details memory v_details = login_details[\r\n            stringToBytes32(email)\r\n        ];\r\n        Voter memory voter = voters[v_details.voter];\r\n        if (v_details.pass == stringToBytes32(pass))\r\n            return (true, voter.Aadhar, bytes32ToString(voter.area));\r\n        else return (false, 0, \"\");\r\n    }\r\n\r\n    function unauth_voters() public view returns (address[] memory address_list,Voter[] memory voter_detils) {\r\n        require(\r\n            msg.sender == chairperson,\r\n            \"Only Chair person have right to call this function\"\r\n        );\r\n        address_list = new address[](voter_address.length);\r\n        voter_detils = new Voter[](voter_address.length);\r\n        for(uint i=0;i<voter_address.length;i++){\r\n            address_list[i] = voter_address[i];\r\n            voter_detils[i] = voters[voter_address[i]];\r\n        }\r\n    }\r\n\r\n    function chair_login(string memory email, string memory pass)\r\n        private\r\n        view\r\n        returns (bool)\r\n    {\r\n        return\r\n            chair_email == stringToBytes32(email) &&\r\n            chair_pass == stringToBytes32(pass);\r\n    }\r\n\r\n    function getProposal(string memory area)\r\n        public\r\n        view\r\n        returns (Proposal[] memory)\r\n    {\r\n        return area_proposal[stringToBytes32(area)];\r\n    }\r\n\r\n    function stringToBytes32(string memory source)\r\n        private\r\n        pure\r\n        returns (bytes32 result)\r\n    {\r\n        bytes memory tempEmptyStringTest = bytes(source);\r\n        if (tempEmptyStringTest.length == 0) {\r\n            return 0x0;\r\n        }\r\n\r\n        assembly {\r\n            result := mload(add(source, 32))\r\n        }\r\n    }\r\n\r\n    function bytes32ToString(bytes32 _bytes32)\r\n        private\r\n        pure\r\n        returns (string memory)\r\n    {\r\n        uint8 i = 0;\r\n        while (i < 32 && _bytes32[i] != 0) {\r\n            i++;\r\n        }\r\n        bytes memory bytesArray = new bytes(i);\r\n        for (i = 0; i < 32 && _bytes32[i] != 0; i++) {\r\n            bytesArray[i] = _bytes32[i];\r\n        }\r\n        return string(bytesArray);\r\n    }\r\n}\r\n",
  "sourcePath": "C:/Users/Bismay Kumar Rana/Desktop/Block chain dev/contracts/E_voting_system.sol",
  "compiler": {
    "name": "solc",
    "version": "0.8.4+commit.c7e474f2.Emscripten.clang"
  },
  "schemaVersion": "3.3.4",
  "updatedAt": "2022-06-23T14:50:59.329Z",
  "networkType": "ethereum",
  "devdoc": {
    "details": "Implements voting process along with vote delegation",
    "kind": "dev",
    "methods": {
      "constructor": {
        "details": "constructor create an owner an set the right to vote for the owner."
      },
      "giveRightToVote(address)": {
        "details": "Give 'voter' the right to vote on this ballot. May only be called by 'chairperson'.",
        "params": {
          "voter": "address of voter"
        }
      },
      "vote(string,uint256,uint256)": {
        "details": "Give your vote (including votes delegated to you) to proposal 'proposals[proposal].name'.",
        "params": {
          "proposal": "index of proposal in the proposals array"
        }
      },
      "winnerNME_Vcount(string)": {
        "returns": {
          "_0": "winnerName_ the name of the winner"
        }
      }
    },
    "title": "Ballot",
    "version": 1
  },
  "userdoc": {
    "kind": "user",
    "methods": {},
    "version": 1
  }
}