{
  "contractName": "E_voting_system",
  "abi": [
    {
      "inputs": [
        {
          "internalType": "string",
          "name": "email",
          "type": "string"
        },
        {
          "internalType": "string",
          "name": "pass",
          "type": "string"
        },
        {
          "internalType": "uint256",
          "name": "Aadhar",
          "type": "uint256"
        },
        {
          "internalType": "string",
          "name": "area",
          "type": "string"
        }
      ],
      "stateMutability": "nonpayable",
      "type": "constructor"
    },
    {
      "inputs": [
        {
          "internalType": "bytes32",
          "name": "",
          "type": "bytes32"
        },
        {
          "internalType": "uint256",
          "name": "",
          "type": "uint256"
        }
      ],
      "name": "area_proposal",
      "outputs": [
        {
          "internalType": "bytes32",
          "name": "name",
          "type": "bytes32"
        },
        {
          "internalType": "bytes32",
          "name": "party",
          "type": "bytes32"
        },
        {
          "internalType": "uint256",
          "name": "voteCount",
          "type": "uint256"
        }
      ],
      "stateMutability": "view",
      "type": "function",
      "constant": true
    },
    {
      "inputs": [
        {
          "internalType": "string",
          "name": "nme",
          "type": "string"
        },
        {
          "internalType": "string",
          "name": "prty",
          "type": "string"
        },
        {
          "internalType": "string",
          "name": "area",
          "type": "string"
        }
      ],
      "name": "addProposal",
      "outputs": [],
      "stateMutability": "nonpayable",
      "type": "function"
    },
    {
      "inputs": [
        {
          "internalType": "address",
          "name": "voter",
          "type": "address"
        }
      ],
      "name": "giveRightToVote",
      "outputs": [],
      "stateMutability": "nonpayable",
      "type": "function"
    },
    {
      "inputs": [
        {
          "internalType": "string",
          "name": "email",
          "type": "string"
        },
        {
          "internalType": "string",
          "name": "pass",
          "type": "string"
        },
        {
          "internalType": "uint256",
          "name": "Aadhar",
          "type": "uint256"
        },
        {
          "internalType": "string",
          "name": "ara",
          "type": "string"
        }
      ],
      "name": "voter_reg",
      "outputs": [],
      "stateMutability": "nonpayable",
      "type": "function"
    },
    {
      "inputs": [
        {
          "internalType": "string",
          "name": "email",
          "type": "string"
        },
        {
          "internalType": "uint256",
          "name": "Aadhar",
          "type": "uint256"
        },
        {
          "internalType": "uint256",
          "name": "proposal",
          "type": "uint256"
        }
      ],
      "name": "vote",
      "outputs": [],
      "stateMutability": "nonpayable",
      "type": "function"
    },
    {
      "inputs": [
        {
          "internalType": "string",
          "name": "area",
          "type": "string"
        }
      ],
      "name": "winnerNME_Vcount",
      "outputs": [
        {
          "internalType": "string",
          "name": "",
          "type": "string"
        },
        {
          "internalType": "uint256",
          "name": "",
          "type": "uint256"
        }
      ],
      "stateMutability": "view",
      "type": "function",
      "constant": true
    },
    {
      "inputs": [],
      "name": "changeState",
      "outputs": [],
      "stateMutability": "nonpayable",
      "type": "function"
    },
    {
      "inputs": [
        {
          "internalType": "string",
          "name": "newEmail",
          "type": "string"
        },
        {
          "internalType": "string",
          "name": "newPass",
          "type": "string"
        },
        {
          "internalType": "address",
          "name": "newChairperson",
          "type": "address"
        }
      ],
      "name": "changeChairperson",
      "outputs": [],
      "stateMutability": "nonpayable",
      "type": "function"
    },
    {
      "inputs": [],
      "name": "check_state",
      "outputs": [
        {
          "internalType": "enum E_voting_system.voting_state",
          "name": "st",
          "type": "uint8"
        }
      ],
      "stateMutability": "view",
      "type": "function",
      "constant": true
    },
    {
      "inputs": [
        {
          "internalType": "string",
          "name": "area",
          "type": "string"
        }
      ],
      "name": "vote_count",
      "outputs": [
        {
          "internalType": "uint256",
          "name": "",
          "type": "uint256"
        }
      ],
      "stateMutability": "view",
      "type": "function",
      "constant": true
    },
    {
      "inputs": [
        {
          "internalType": "string",
          "name": "area",
          "type": "string"
        }
      ],
      "name": "voter_count",
      "outputs": [
        {
          "internalType": "uint256",
          "name": "",
          "type": "uint256"
        }
      ],
      "stateMutability": "view",
      "type": "function",
      "constant": true
    },
    {
      "inputs": [
        {
          "internalType": "string",
          "name": "email",
          "type": "string"
        },
        {
          "internalType": "string",
          "name": "pass",
          "type": "string"
        }
      ],
      "name": "voterLogin",
      "outputs": [
        {
          "internalType": "bool",
          "name": "status",
          "type": "bool"
        },
        {
          "internalType": "uint256",
          "name": "Aadhar",
          "type": "uint256"
        },
        {
          "internalType": "string",
          "name": "area",
          "type": "string"
        }
      ],
      "stateMutability": "view",
      "type": "function",
      "constant": true
    },
    {
      "inputs": [],
      "name": "unauth_voters",
      "outputs": [
        {
          "internalType": "address[]",
          "name": "address_list",
          "type": "address[]"
        },
        {
          "components": [
            {
              "internalType": "bool",
              "name": "is_reg",
              "type": "bool"
            },
            {
              "internalType": "bool",
              "name": "is_authorized",
              "type": "bool"
            },
            {
              "internalType": "bool",
              "name": "voted",
              "type": "bool"
            },
            {
              "internalType": "uint256",
              "name": "vote",
              "type": "uint256"
            },
            {
              "internalType": "bytes32",
              "name": "area",
              "type": "bytes32"
            },
            {
              "internalType": "uint256",
              "name": "Aadhar",
              "type": "uint256"
            }
          ],
          "internalType": "struct E_voting_system.Voter[]",
          "name": "voter_detils",
          "type": "tuple[]"
        }
      ],
      "stateMutability": "view",
      "type": "function",
      "constant": true
    },
    {
      "inputs": [
        {
          "internalType": "string",
          "name": "area",
          "type": "string"
        }
      ],
      "name": "getProposal",
      "outputs": [
        {
          "components": [
            {
              "internalType": "bytes32",
              "name": "name",
              "type": "bytes32"
            },
            {
              "internalType": "bytes32",
              "name": "party",
              "type": "bytes32"
            },
            {
              "internalType": "uint256",
              "name": "voteCount",
              "type": "uint256"
            }
          ],
          "internalType": "struct E_voting_system.Proposal[]",
          "name": "",
          "type": "tuple[]"
        }
      ],
      "stateMutability": "view",
      "type": "function",
      "constant": true
    }
  ],
  "bytecode": "0x60806040523480156200001157600080fd5b506040516200413a3803806200413a83398181016040528101906200003791906200038c565b6000815114156200007f576040517f08c379a000000000000000000000000000000000000000000000000000000000815260040162000076906200046a565b60405180910390fd5b336000806101000a81548173ffffffffffffffffffffffffffffffffffffffff021916908373ffffffffffffffffffffffffffffffffffffffff160217905550620000d0846200029860201b60201c565b600281905550620000e7836200029860201b60201c565b600181905550620000f7620002c4565b600181602001901515908115158152505060018160000190151590811515815250506200012a826200029860201b60201c565b816080018181525050828160a001818152505080600560003373ffffffffffffffffffffffffffffffffffffffff1673ffffffffffffffffffffffffffffffffffffffff16815260200190815260200160002060008201518160000160006101000a81548160ff02191690831515021790555060208201518160000160016101000a81548160ff02191690831515021790555060408201518160000160026101000a81548160ff021916908315150217905550606082015181600101556080820151816002015560a0820151816003015590505060016007600062000215856200029860201b60201c565b81526020019081526020016000206000828254620002349190620004fc565b925050819055506000600360006101000a81548160ff0219169083600381111562000288577f4e487b7100000000000000000000000000000000000000000000000000000000600052602160045260246000fd5b0217905550505050505062000681565b600080829050600081511415620002b6576000801b915050620002bf565b60208301519150505b919050565b6040518060c001604052806000151581526020016000151581526020016000151581526020016000815260200160008019168152602001600081525090565b60006200031a6200031484620004b5565b6200048c565b9050828152602081018484840111156200033357600080fd5b6200034084828562000563565b509392505050565b600082601f8301126200035a57600080fd5b81516200036c84826020860162000303565b91505092915050565b600081519050620003868162000667565b92915050565b60008060008060808587031215620003a357600080fd5b600085015167ffffffffffffffff811115620003be57600080fd5b620003cc8782880162000348565b945050602085015167ffffffffffffffff811115620003ea57600080fd5b620003f88782880162000348565b93505060406200040b8782880162000375565b925050606085015167ffffffffffffffff8111156200042957600080fd5b620004378782880162000348565b91505092959194509250565b600062000452601883620004eb565b91506200045f826200063e565b602082019050919050565b60006020820190508181036000830152620004858162000443565b9050919050565b600062000498620004ab565b9050620004a6828262000599565b919050565b6000604051905090565b600067ffffffffffffffff821115620004d357620004d2620005fe565b5b620004de826200062d565b9050602081019050919050565b600082825260208201905092915050565b6000620005098262000559565b9150620005168362000559565b9250827fffffffffffffffffffffffffffffffffffffffffffffffffffffffffffffffff038211156200054e576200054d620005cf565b5b828201905092915050565b6000819050919050565b60005b838110156200058357808201518184015260208101905062000566565b8381111562000593576000848401525b50505050565b620005a4826200062d565b810181811067ffffffffffffffff82111715620005c657620005c5620005fe565b5b80604052505050565b7f4e487b7100000000000000000000000000000000000000000000000000000000600052601160045260246000fd5b7f4e487b7100000000000000000000000000000000000000000000000000000000600052604160045260246000fd5b6000601f19601f8301169050919050565b7f506c65617365207370656369667920796f757220617265610000000000000000600082015250565b620006728162000559565b81146200067e57600080fd5b50565b613aa980620006916000396000f3fe608060405234801561001057600080fd5b50600436106100ea5760003560e01c80639e7b8d611161008c578063b38b25ad11610066578063b38b25ad1461023a578063ceff34c21461026a578063cf99cd1e1461029b578063dc703cf2146102cb576100ea565b80639e7b8d61146101e3578063a8e15990146101ff578063aecb181b1461021b576100ea565b806348a8f010116100c857806348a8f0101461015757806362845caa146101895780638412e667146101a757806399cab9da146101b1576100ea565b80630891d358146100ef57806325d3a09d1461010b5780634512e9081461013b575b600080fd5b61010960048036038101906101049190612750565b6102e7565b005b610125600480360381019061012091906124e2565b610ad3565b6040516101329190612de3565b60405180910390f35b6101556004803603810190610150919061258f565b610b6b565b005b610171600480360381019061016c91906124a6565b610c5c565b60405161018093929190612e43565b60405180910390f35b610191610ca3565b60405161019e9190612e7a565b60405180910390f35b6101af610cba565b005b6101cb60048036038101906101c69190612523565b610f58565b6040516101da93929190612e05565b60405180910390f35b6101fd60048036038101906101f8919061247d565b611100565b005b6102196004803603810190610214919061260e565b61145f565b005b610223611644565b604051610231929190612dac565b60405180910390f35b610254600480360381019061024f91906124e2565b611a2d565b60405161026191906131a5565b60405180910390f35b610284600480360381019061027f91906124e2565b611a52565b604051610292929190612e95565b60405180910390f35b6102b560048036038101906102b091906124e2565b611b71565b6040516102c291906131a5565b60405180910390f35b6102e560048036038101906102e091906126a5565b611b96565b005b6102f0836120e1565b82826002600381111561032c577f4e487b7100000000000000000000000000000000000000000000000000000000600052602160045260246000fd5b600360009054906101000a900460ff166003811115610374577f4e487b7100000000000000000000000000000000000000000000000000000000600052602160045260246000fd5b146103b4576040517f08c379a00000000000000000000000000000000000000000000000000000000081526004016103ab90612f85565b60405180910390fd5b3373ffffffffffffffffffffffffffffffffffffffff16600c600085815260200190815260200160002060010160009054906101000a900473ffffffffffffffffffffffffffffffffffffffff1673ffffffffffffffffffffffffffffffffffffffff16148061047c57508260025414801561047b57503373ffffffffffffffffffffffffffffffffffffffff1660008054906101000a900473ffffffffffffffffffffffffffffffffffffffff1673ffffffffffffffffffffffffffffffffffffffff16145b5b6104bb576040517f08c379a00000000000000000000000000000000000000000000000000000000081526004016104b2906130c5565b60405180910390fd5b6000600560003373ffffffffffffffffffffffffffffffffffffffff1673ffffffffffffffffffffffffffffffffffffffff1681526020019081526020016000206040518060c00160405290816000820160009054906101000a900460ff161515151581526020016000820160019054906101000a900460ff161515151581526020016000820160029054906101000a900460ff161515151581526020016001820154815260200160028201548152602001600382015481525050905080600001516105bc576040517f08c379a00000000000000000000000000000000000000000000000000000000081526004016105b390612fc5565b60405180910390fd5b8060200151610600576040517f08c379a00000000000000000000000000000000000000000000000000000000081526004016105f790613125565b60405180910390fd5b806040015115610645576040517f08c379a000000000000000000000000000000000000000000000000000000000815260040161063c90612fe5565b60405180910390fd5b828160a001511461068b576040517f08c379a000000000000000000000000000000000000000000000000000000000815260040161068290612f25565b60405180910390fd5b600060066000836080015181526020019081526020016000208054905014156106e9576040517f08c379a00000000000000000000000000000000000000000000000000000000081526004016106e0906130e5565b60405180910390fd5b816006600083608001518152602001908152602001600020805490501015610746576040517f08c379a000000000000000000000000000000000000000000000000000000000815260040161073d90613065565b60405180910390fd5b6000600560003373ffffffffffffffffffffffffffffffffffffffff1673ffffffffffffffffffffffffffffffffffffffff1681526020019081526020016000206040518060c00160405290816000820160009054906101000a900460ff161515151581526020016000820160019054906101000a900460ff161515151581526020016000820160029054906101000a900460ff161515151581526020016001820154815260200160028201548152602001600382015481525050905060018160400190151590811515815250508581606001818152505060006006600083608001518152602001908152602001600020878154811061086f577f4e487b7100000000000000000000000000000000000000000000000000000000600052603260045260246000fd5b9060005260206000209060030201604051806060016040529081600082015481526020016001820154815260200160028201548152505090506001816040018181516108bb91906132dd565b915081815250508060066000846080015181526020019081526020016000208881548110610912577f4e487b7100000000000000000000000000000000000000000000000000000000600052603260045260246000fd5b906000526020600020906003020160008201518160000155602082015181600101556040820151816002015590505081600560003373ffffffffffffffffffffffffffffffffffffffff1673ffffffffffffffffffffffffffffffffffffffff16815260200190815260200160002060008201518160000160006101000a81548160ff02191690831515021790555060208201518160000160016101000a81548160ff02191690831515021790555060408201518160000160026101000a81548160ff021916908315150217905550606082015181600101556080820151816002015560a08201518160030155905050600160086000846080015181526020019081526020016000206000828254610a2a91906132dd565b9250508190555060006009600084608001518152602001908152602001600020604051806040016040529081600082015481526020016001820154815250509050816040015181602001511015610ac7578160000151816000018181525050816040015181602001818152505080600960008560800151815260200190815260200160002060008201518160000155602082015181600101559050505b50505050505050505050565b606060066000610ae2846120e1565b8152602001908152602001600020805480602002602001604051908101604052809291908181526020016000905b82821015610b605783829060005260206000209060030201604051806060016040529081600082015481526020016001820154815260200160028201548152505081526020019060010190610b10565b505050509050919050565b60008054906101000a900473ffffffffffffffffffffffffffffffffffffffff1673ffffffffffffffffffffffffffffffffffffffff163373ffffffffffffffffffffffffffffffffffffffff1614610bf9576040517f08c379a0000000000000000000000000000000000000000000000000000000008152600401610bf090613025565b60405180910390fd5b806000806101000a81548173ffffffffffffffffffffffffffffffffffffffff021916908373ffffffffffffffffffffffffffffffffffffffff160217905550610c42836120e1565b600281905550610c51826120e1565b600181905550505050565b60066020528160005260406000208181548110610c7857600080fd5b9060005260206000209060030201600091509150508060000154908060010154908060020154905083565b6000600360009054906101000a900460ff16905090565b60008054906101000a900473ffffffffffffffffffffffffffffffffffffffff1673ffffffffffffffffffffffffffffffffffffffff163373ffffffffffffffffffffffffffffffffffffffff1614610d48576040517f08c379a0000000000000000000000000000000000000000000000000000000008152600401610d3f90613105565b60405180910390fd5b60006003811115610d82577f4e487b7100000000000000000000000000000000000000000000000000000000600052602160045260246000fd5b600360009054906101000a900460ff166003811115610dca577f4e487b7100000000000000000000000000000000000000000000000000000000600052602160045260246000fd5b1415610e26576001600360006101000a81548160ff02191690836003811115610e1c577f4e487b7100000000000000000000000000000000000000000000000000000000600052602160045260246000fd5b0217905550610f56565b60016003811115610e60577f4e487b7100000000000000000000000000000000000000000000000000000000600052602160045260246000fd5b600360009054906101000a900460ff166003811115610ea8577f4e487b7100000000000000000000000000000000000000000000000000000000600052602160045260246000fd5b1415610f04576002600360006101000a81548160ff02191690836003811115610efa577f4e487b7100000000000000000000000000000000000000000000000000000000600052602160045260246000fd5b0217905550610f55565b60038060006101000a81548160ff02191690836003811115610f4f577f4e487b7100000000000000000000000000000000000000000000000000000000600052602160045260246000fd5b02179055505b5b565b60008060606000600c6000610f6c886120e1565b8152602001908152602001600020604051806040016040529081600082015481526020016001820160009054906101000a900473ffffffffffffffffffffffffffffffffffffffff1673ffffffffffffffffffffffffffffffffffffffff1673ffffffffffffffffffffffffffffffffffffffff16815250509050600060056000836020015173ffffffffffffffffffffffffffffffffffffffff1673ffffffffffffffffffffffffffffffffffffffff1681526020019081526020016000206040518060c00160405290816000820160009054906101000a900460ff161515151581526020016000820160019054906101000a900460ff161515151581526020016000820160029054906101000a900460ff16151515158152602001600182015481526020016002820154815260200160038201548152505090506110b1866120e1565b826000015114156110dd5760018160a001516110d0836080015161210b565b94509450945050506110f9565b6000806040518060200160405280600081525094509450945050505b9250925092565b8060008054906101000a900473ffffffffffffffffffffffffffffffffffffffff1673ffffffffffffffffffffffffffffffffffffffff163373ffffffffffffffffffffffffffffffffffffffff161461118f576040517f08c379a000000000000000000000000000000000000000000000000000000000815260040161118690613045565b60405180910390fd5b600160038111156111c9577f4e487b7100000000000000000000000000000000000000000000000000000000600052602160045260246000fd5b600360009054906101000a900460ff166003811115611211577f4e487b7100000000000000000000000000000000000000000000000000000000600052602160045260246000fd5b14611251576040517f08c379a000000000000000000000000000000000000000000000000000000000815260040161124890612ee5565b60405180910390fd5b600560008273ffffffffffffffffffffffffffffffffffffffff1673ffffffffffffffffffffffffffffffffffffffff16815260200190815260200160002060000160009054906101000a900460ff166112e0576040517f08c379a00000000000000000000000000000000000000000000000000000000081526004016112d790612f05565b60405180910390fd5b600560008273ffffffffffffffffffffffffffffffffffffffff1673ffffffffffffffffffffffffffffffffffffffff16815260200190815260200160002060000160029054906101000a900460ff1615611370576040517f08c379a000000000000000000000000000000000000000000000000000000000815260040161136790613165565b60405180910390fd5b600560008273ffffffffffffffffffffffffffffffffffffffff1673ffffffffffffffffffffffffffffffffffffffff16815260200190815260200160002060000160019054906101000a900460ff1615611400576040517f08c379a00000000000000000000000000000000000000000000000000000000081526004016113f790612fa5565b60405180910390fd5b6001600560008473ffffffffffffffffffffffffffffffffffffffff1673ffffffffffffffffffffffffffffffffffffffff16815260200190815260200160002060000160016101000a81548160ff0219169083151502179055505050565b60008054906101000a900473ffffffffffffffffffffffffffffffffffffffff1673ffffffffffffffffffffffffffffffffffffffff163373ffffffffffffffffffffffffffffffffffffffff16146114ed576040517f08c379a00000000000000000000000000000000000000000000000000000000081526004016114e490613085565b60405180910390fd5b60006003811115611527577f4e487b7100000000000000000000000000000000000000000000000000000000600052602160045260246000fd5b600360009054906101000a900460ff16600381111561156f577f4e487b7100000000000000000000000000000000000000000000000000000000600052602160045260246000fd5b146115af576040517f08c379a00000000000000000000000000000000000000000000000000000000081526004016115a690613185565b60405180910390fd5b600660006115bc836120e1565b815260200190815260200160002060405180606001604052806115de866120e1565b81526020016115ec856120e1565b8152602001600081525090806001815401808255809150506001900390600052602060002090600302016000909190919091506000820151816000015560208201518160010155604082015181600201555050505050565b60608060008054906101000a900473ffffffffffffffffffffffffffffffffffffffff1673ffffffffffffffffffffffffffffffffffffffff163373ffffffffffffffffffffffffffffffffffffffff16146116d5576040517f08c379a00000000000000000000000000000000000000000000000000000000081526004016116cc90613005565b60405180910390fd5b60048054905067ffffffffffffffff81111561171a577f4e487b7100000000000000000000000000000000000000000000000000000000600052604160045260246000fd5b6040519080825280602002602001820160405280156117485781602001602082028036833780820191505090505b50915060048054905067ffffffffffffffff811115611790577f4e487b7100000000000000000000000000000000000000000000000000000000600052604160045260246000fd5b6040519080825280602002602001820160405280156117c957816020015b6117b6612364565b8152602001906001900390816117ae5790505b50905060005b600480549050811015611a285760048181548110611816577f4e487b7100000000000000000000000000000000000000000000000000000000600052603260045260246000fd5b9060005260206000200160009054906101000a900473ffffffffffffffffffffffffffffffffffffffff1683828151811061187a577f4e487b7100000000000000000000000000000000000000000000000000000000600052603260045260246000fd5b602002602001019073ffffffffffffffffffffffffffffffffffffffff16908173ffffffffffffffffffffffffffffffffffffffff168152505060056000600483815481106118f2577f4e487b7100000000000000000000000000000000000000000000000000000000600052603260045260246000fd5b9060005260206000200160009054906101000a900473ffffffffffffffffffffffffffffffffffffffff1673ffffffffffffffffffffffffffffffffffffffff1673ffffffffffffffffffffffffffffffffffffffff1681526020019081526020016000206040518060c00160405290816000820160009054906101000a900460ff161515151581526020016000820160019054906101000a900460ff161515151581526020016000820160029054906101000a900460ff161515151581526020016001820154815260200160028201548152602001600382015481525050828281518110611a0a577f4e487b7100000000000000000000000000000000000000000000000000000000600052603260045260246000fd5b60200260200101819052508080611a209061342a565b9150506117cf565b509091565b600060076000611a3c846120e1565b8152602001908152602001600020549050919050565b60606000600380811115611a8f577f4e487b7100000000000000000000000000000000000000000000000000000000600052602160045260246000fd5b600360009054906101000a900460ff166003811115611ad7577f4e487b7100000000000000000000000000000000000000000000000000000000600052602160045260246000fd5b14611b17576040517f08c379a0000000000000000000000000000000000000000000000000000000008152600401611b0e906130a5565b60405180910390fd5b600060096000611b26866120e1565b8152602001908152602001600020604051806040016040529081600082015481526020016001820154815250509050611b62816000015161210b565b81602001519250925050915091565b600060086000611b80846120e1565b8152602001908152602001600020549050919050565b600560003373ffffffffffffffffffffffffffffffffffffffff1673ffffffffffffffffffffffffffffffffffffffff1681526020019081526020016000206040518060c00160405290816000820160009054906101000a900460ff161515151581526020016000820160019054906101000a900460ff161515151581526020016000820160029054906101000a900460ff161515151581526020016001820154815260200160028201548152602001600382015481525050611c58856120e1565b8360006003811115611c93577f4e487b7100000000000000000000000000000000000000000000000000000000600052602160045260246000fd5b600360009054906101000a900460ff166003811115611cdb577f4e487b7100000000000000000000000000000000000000000000000000000000600052602160045260246000fd5b14611d1b576040517f08c379a0000000000000000000000000000000000000000000000000000000008152600401611d1290613145565b60405180910390fd5b600a600083815260200190815260200160002060009054906101000a900460ff1615611d7c576040517f08c379a0000000000000000000000000000000000000000000000000000000008152600401611d7390612f45565b60405180910390fd5b600b600082815260200190815260200160002060009054906101000a900460ff1615611ddd576040517f08c379a0000000000000000000000000000000000000000000000000000000008152600401611dd490612ec5565b60405180910390fd5b826000015115611e22576040517f08c379a0000000000000000000000000000000000000000000000000000000008152600401611e1990612f65565b60405180910390fd5b6040518060c0016040528060011515815260200160001515815260200160001515815260200160008152602001611e58866120e1565b815260200186815250600560003373ffffffffffffffffffffffffffffffffffffffff1673ffffffffffffffffffffffffffffffffffffffff16815260200190815260200160002060008201518160000160006101000a81548160ff02191690831515021790555060208201518160000160016101000a81548160ff02191690831515021790555060408201518160000160026101000a81548160ff021916908315150217905550606082015181600101556080820151816002015560a08201518160030155905050600160076000611f30876120e1565b81526020019081526020016000206000828254611f4d91906132dd565b925050819055506000611f5f886120e1565b90506001600a600083815260200190815260200160002060006101000a81548160ff0219169083151502179055506001600b600088815260200190815260200160002060006101000a81548160ff0219169083151502179055506004339080600181540180825580915050600190039060005260206000200160009091909190916101000a81548173ffffffffffffffffffffffffffffffffffffffff021916908373ffffffffffffffffffffffffffffffffffffffff1602179055506120246123a3565b61202d886120e1565b81600001818152505033816020019073ffffffffffffffffffffffffffffffffffffffff16908173ffffffffffffffffffffffffffffffffffffffff168152505080600c60008481526020019081526020016000206000820151816000015560208201518160010160006101000a81548173ffffffffffffffffffffffffffffffffffffffff021916908373ffffffffffffffffffffffffffffffffffffffff160217905550905050505050505050505050565b6000808290506000815114156120fd576000801b915050612106565b60208301519150505b919050565b606060005b60208160ff161080156121885750600060f81b838260ff166020811061215f577f4e487b7100000000000000000000000000000000000000000000000000000000600052603260045260246000fd5b1a60f81b7effffffffffffffffffffffffffffffffffffffffffffffffffffffffffffff191614155b156121a057808061219890613473565b915050612110565b60008160ff1667ffffffffffffffff8111156121e5577f4e487b7100000000000000000000000000000000000000000000000000000000600052604160045260246000fd5b6040519080825280601f01601f1916602001820160405280156122175781602001600182028036833780820191505090505b509050600091505b60208260ff161080156122975750600060f81b848360ff166020811061226e577f4e487b7100000000000000000000000000000000000000000000000000000000600052603260045260246000fd5b1a60f81b7effffffffffffffffffffffffffffffffffffffffffffffffffffffffffffff191614155b1561235a57838260ff16602081106122d8577f4e487b7100000000000000000000000000000000000000000000000000000000600052603260045260246000fd5b1a60f81b818360ff1681518110612318577f4e487b7100000000000000000000000000000000000000000000000000000000600052603260045260246000fd5b60200101907effffffffffffffffffffffffffffffffffffffffffffffffffffffffffffff1916908160001a905350818061235290613473565b92505061221f565b8092505050919050565b6040518060c001604052806000151581526020016000151581526020016000151581526020016000815260200160008019168152602001600081525090565b604051806040016040528060008019168152602001600073ffffffffffffffffffffffffffffffffffffffff1681525090565b60006123e96123e4846131e5565b6131c0565b90508281526020810184848401111561240157600080fd5b61240c8482856133b7565b509392505050565b60008135905061242381613a2e565b92915050565b60008135905061243881613a45565b92915050565b600082601f83011261244f57600080fd5b813561245f8482602086016123d6565b91505092915050565b60008135905061247781613a5c565b92915050565b60006020828403121561248f57600080fd5b600061249d84828501612414565b91505092915050565b600080604083850312156124b957600080fd5b60006124c785828601612429565b92505060206124d885828601612468565b9150509250929050565b6000602082840312156124f457600080fd5b600082013567ffffffffffffffff81111561250e57600080fd5b61251a8482850161243e565b91505092915050565b6000806040838503121561253657600080fd5b600083013567ffffffffffffffff81111561255057600080fd5b61255c8582860161243e565b925050602083013567ffffffffffffffff81111561257957600080fd5b6125858582860161243e565b9150509250929050565b6000806000606084860312156125a457600080fd5b600084013567ffffffffffffffff8111156125be57600080fd5b6125ca8682870161243e565b935050602084013567ffffffffffffffff8111156125e757600080fd5b6125f38682870161243e565b925050604061260486828701612414565b9150509250925092565b60008060006060848603121561262357600080fd5b600084013567ffffffffffffffff81111561263d57600080fd5b6126498682870161243e565b935050602084013567ffffffffffffffff81111561266657600080fd5b6126728682870161243e565b925050604084013567ffffffffffffffff81111561268f57600080fd5b61269b8682870161243e565b9150509250925092565b600080600080608085870312156126bb57600080fd5b600085013567ffffffffffffffff8111156126d557600080fd5b6126e18782880161243e565b945050602085013567ffffffffffffffff8111156126fe57600080fd5b61270a8782880161243e565b935050604061271b87828801612468565b925050606085013567ffffffffffffffff81111561273857600080fd5b6127448782880161243e565b91505092959194509250565b60008060006060848603121561276557600080fd5b600084013567ffffffffffffffff81111561277f57600080fd5b61278b8682870161243e565b935050602061279c86828701612468565b92505060406127ad86828701612468565b9150509250925092565b60006127c383836127ff565b60208301905092915050565b60006127db8383612cd1565b60608301905092915050565b60006127f38383612d13565b60c08301905092915050565b61280881613333565b82525050565b600061281982613246565b6128238185613299565b935061282e83613216565b8060005b8381101561285f57815161284688826127b7565b975061285183613272565b925050600181019050612832565b5085935050505092915050565b600061287782613251565b61288181856132aa565b935061288c83613226565b8060005b838110156128bd5781516128a488826127cf565b97506128af8361327f565b925050600181019050612890565b5085935050505092915050565b60006128d58261325c565b6128df81856132bb565b93506128ea83613236565b8060005b8381101561291b57815161290288826127e7565b975061290d8361328c565b9250506001810190506128ee565b5085935050505092915050565b61293181613345565b82525050565b61294081613345565b82525050565b61294f81613351565b82525050565b61295e81613351565b82525050565b61296d816133a5565b82525050565b600061297e82613267565b61298881856132cc565b93506129988185602086016133c6565b6129a18161352a565b840191505092915050565b60006129b96022836132cc565b91506129c48261353b565b604082019050919050565b60006129dc6027836132cc565b91506129e78261358a565b604082019050919050565b60006129ff6019836132cc565b9150612a0a826135d9565b602082019050919050565b6000612a22603f836132cc565b9150612a2d82613602565b604082019050919050565b6000612a45601c836132cc565b9150612a5082613651565b602082019050919050565b6000612a68601b836132cc565b9150612a738261367a565b602082019050919050565b6000612a8b6019836132cc565b9150612a96826136a3565b602082019050919050565b6000612aae601e836132cc565b9150612ab9826136cc565b602082019050919050565b6000612ad16019836132cc565b9150612adc826136f5565b602082019050919050565b6000612af4600e836132cc565b9150612aff8261371e565b602082019050919050565b6000612b176032836132cc565b9150612b2282613747565b604082019050919050565b6000612b3a602b836132cc565b9150612b4582613796565b604082019050919050565b6000612b5d6028836132cc565b9150612b68826137e5565b604082019050919050565b6000612b80601f836132cc565b9150612b8b82613834565b602082019050919050565b6000612ba36027836132cc565b9150612bae8261385d565b604082019050919050565b6000612bc66018836132cc565b9150612bd1826138ac565b602082019050919050565b6000612be96020836132cc565b9150612bf4826138d5565b602082019050919050565b6000612c0c601d836132cc565b9150612c17826138fe565b602082019050919050565b6000612c2f6025836132cc565b9150612c3a82613927565b604082019050919050565b6000612c526015836132cc565b9150612c5d82613976565b602082019050919050565b6000612c756014836132cc565b9150612c808261399f565b602082019050919050565b6000612c986018836132cc565b9150612ca3826139c8565b602082019050919050565b6000612cbb6014836132cc565b9150612cc6826139f1565b602082019050919050565b606082016000820151612ce76000850182612946565b506020820151612cfa6020850182612946565b506040820151612d0d6040850182612d8e565b50505050565b60c082016000820151612d296000850182612928565b506020820151612d3c6020850182612928565b506040820151612d4f6040850182612928565b506060820151612d626060850182612d8e565b506080820151612d756080850182612946565b5060a0820151612d8860a0850182612d8e565b50505050565b612d978161338e565b82525050565b612da68161338e565b82525050565b60006040820190508181036000830152612dc6818561280e565b90508181036020830152612dda81846128ca565b90509392505050565b60006020820190508181036000830152612dfd818461286c565b905092915050565b6000606082019050612e1a6000830186612937565b612e276020830185612d9d565b8181036040830152612e398184612973565b9050949350505050565b6000606082019050612e586000830186612955565b612e656020830185612955565b612e726040830184612d9d565b949350505050565b6000602082019050612e8f6000830184612964565b92915050565b60006040820190508181036000830152612eaf8185612973565b9050612ebe6020830184612d9d565b9392505050565b60006020820190508181036000830152612ede816129ac565b9050919050565b60006020820190508181036000830152612efe816129cf565b9050919050565b60006020820190508181036000830152612f1e816129f2565b9050919050565b60006020820190508181036000830152612f3e81612a15565b9050919050565b60006020820190508181036000830152612f5e81612a38565b9050919050565b60006020820190508181036000830152612f7e81612a5b565b9050919050565b60006020820190508181036000830152612f9e81612a7e565b9050919050565b60006020820190508181036000830152612fbe81612aa1565b9050919050565b60006020820190508181036000830152612fde81612ac4565b9050919050565b60006020820190508181036000830152612ffe81612ae7565b9050919050565b6000602082019050818103600083015261301e81612b0a565b9050919050565b6000602082019050818103600083015261303e81612b2d565b9050919050565b6000602082019050818103600083015261305e81612b50565b9050919050565b6000602082019050818103600083015261307e81612b73565b9050919050565b6000602082019050818103600083015261309e81612b96565b9050919050565b600060208201905081810360008301526130be81612bb9565b9050919050565b600060208201905081810360008301526130de81612bdc565b9050919050565b600060208201905081810360008301526130fe81612bff565b9050919050565b6000602082019050818103600083015261311e81612c22565b9050919050565b6000602082019050818103600083015261313e81612c45565b9050919050565b6000602082019050818103600083015261315e81612c68565b9050919050565b6000602082019050818103600083015261317e81612c8b565b9050919050565b6000602082019050818103600083015261319e81612cae565b9050919050565b60006020820190506131ba6000830184612d9d565b92915050565b60006131ca6131db565b90506131d682826133f9565b919050565b6000604051905090565b600067ffffffffffffffff821115613200576131ff6134fb565b5b6132098261352a565b9050602081019050919050565b6000819050602082019050919050565b6000819050602082019050919050565b6000819050602082019050919050565b600081519050919050565b600081519050919050565b600081519050919050565b600081519050919050565b6000602082019050919050565b6000602082019050919050565b6000602082019050919050565b600082825260208201905092915050565b600082825260208201905092915050565b600082825260208201905092915050565b600082825260208201905092915050565b60006132e88261338e565b91506132f38361338e565b9250827fffffffffffffffffffffffffffffffffffffffffffffffffffffffffffffffff038211156133285761332761349d565b5b828201905092915050565b600061333e8261336e565b9050919050565b60008115159050919050565b6000819050919050565b600081905061336982613a1a565b919050565b600073ffffffffffffffffffffffffffffffffffffffff82169050919050565b6000819050919050565b600060ff82169050919050565b60006133b08261335b565b9050919050565b82818337600083830152505050565b60005b838110156133e45780820151818401526020810190506133c9565b838111156133f3576000848401525b50505050565b6134028261352a565b810181811067ffffffffffffffff82111715613421576134206134fb565b5b80604052505050565b60006134358261338e565b91507fffffffffffffffffffffffffffffffffffffffffffffffffffffffffffffffff8214156134685761346761349d565b5b600182019050919050565b600061347e82613398565b915060ff8214156134925761349161349d565b5b600182019050919050565b7f4e487b7100000000000000000000000000000000000000000000000000000000600052601160045260246000fd5b7f4e487b7100000000000000000000000000000000000000000000000000000000600052602160045260246000fd5b7f4e487b7100000000000000000000000000000000000000000000000000000000600052604160045260246000fd5b6000601f19601f8301169050919050565b7f54686973204164686172204e756d62657220697320616c72656479207072657360008201527f6574000000000000000000000000000000000000000000000000000000000000602082015250565b7f56616c69646174696f6e2070726f6365737320686173206e6f74206265656e2060008201527f7374617274656400000000000000000000000000000000000000000000000000602082015250565b7f766f746572206973206e6f742072656769737465722079657400000000000000600082015250565b7f416164686172204e756d626572206d697373206d6174636820706c656173652060008201527f656e746572207265676973746572656420416164686172204e756d6265722e00602082015250565b7f5468697320456d61696c20697320616c726564792070726573656e7400000000600082015250565b7f596f75206861766520616c726561647920726567697374657265640000000000600082015250565b7f566f74696e67207374616765206973206e6f7420737461727400000000000000600082015250565b7f54686520766f74657220697320616c7265647920617574686f72697a65640000600082015250565b7f596f7520617265206e6f74207265676973746572207965742e00000000000000600082015250565b7f416c726561647920766f7465642e000000000000000000000000000000000000600082015250565b7f4f6e6c7920436861697220706572736f6e206861766520726967687420746f2060008201527f63616c6c20746869732066756e6374696f6e0000000000000000000000000000602082015250565b7f4f6e6c79204368616972706572736f6e2063616e2061737369676e206e65772060008201527f4368616972706572736f6e000000000000000000000000000000000000000000602082015250565b7f4f6e6c79206368616972706572736f6e2063616e20676976652072696768742060008201527f746f20766f74652e000000000000000000000000000000000000000000000000602082015250565b7f596f7520686176652063686f6f736520776f726e672070726f706f73616c2e00600082015250565b7f4f6e6c79206368616972706572736f6e2072696768747320746f20616464207060008201527f726f706f73616c00000000000000000000000000000000000000000000000000602082015250565b7f566f74696e672070726f63657373206e6f7420636c6f73650000000000000000600082015250565b7f77652063616e6e27742076616c69646174657320796f7572206163636f756e74600082015250565b7f5468657265206973206e6f2070726f706f73616c20746f20766f74652e000000600082015250565b7f4f6e6c79204368616972706572736f6e2063616e206368616e6765207468652060008201527f7374617465000000000000000000000000000000000000000000000000000000602082015250565b7f486173206e6f20726967687420746f20766f74652e0000000000000000000000600082015250565b7f526567697374726174696f6e206973204f766572000000000000000000000000600082015250565b7f54686520766f74657220616c726561647920766f7465642e0000000000000000600082015250565b7f526567697374726174696f6e206973206f766572000000000000000000000000600082015250565b60048110613a2b57613a2a6134cc565b5b50565b613a3781613333565b8114613a4257600080fd5b50565b613a4e81613351565b8114613a5957600080fd5b50565b613a658161338e565b8114613a7057600080fd5b5056fea264697066735822122037062b5faa8f6ae8f7964f112a357f3d093ec777ad3b1ce73a639fc8ae18b65a64736f6c63430008040033",
  "immutableReferences": {},
  "source": "// SPDX-License-Identifier: MIT\r\npragma solidity >=0.4.22 <0.9.0;\r\n\r\n/**\r\n * @title Ballot\r\n * @dev Implements voting process along with vote delegation\r\n */\r\ncontract E_voting_system {\r\n    //variable declaration\r\n\r\n    struct Voter_login_details {\r\n        bytes32 pass;\r\n        address voter;\r\n    }\r\n\r\n    struct Voter {\r\n        bool is_reg;\r\n        bool is_authorized; // is voter is authorize to vote\r\n        bool voted; // if true, that person already voted\r\n        uint256 vote; // index of the voted proposal\r\n        bytes32 area; // area of voter\r\n        uint256 Aadhar; //Aadhar card number\r\n    }\r\n\r\n    struct Proposal {\r\n        // If you can limit the length to a certain number of bytes,\r\n        // always use one of bytes1 to bytes32 because they are much cheaper\r\n        bytes32 name; // short name (up to 32 bytes)\r\n        bytes32 party;\r\n        uint256 voteCount; // number of accumulated votes\r\n    }\r\n    struct winner_in_area {\r\n        bytes32 name;\r\n        uint256 voteCount;\r\n    }\r\n\r\n    address private chairperson;\r\n    bytes32 private chair_pass;\r\n    bytes32 private chair_email;\r\n\r\n    enum voting_state {\r\n        reg,\r\n        validation,\r\n        voting,\r\n        close\r\n    }\r\n\r\n    voting_state private state;\r\n    address[] voter_address;\r\n    mapping(address => Voter) private voters;\r\n    mapping(bytes32 => Proposal[]) public area_proposal;\r\n    mapping(bytes32 => uint256) private reg_voter_count_per_area;\r\n    mapping(bytes32 => uint256) private vote_count_per_area;\r\n    mapping(bytes32 => winner_in_area) private winner_per_area;\r\n    mapping(bytes32 => bool) private email_validation;\r\n    mapping(uint256 => bool) private Aadhar_validation;\r\n    mapping(bytes32 => Voter_login_details) private login_details;\r\n\r\n    /**\r\n     * @dev constructor create an owner an set the right to vote for the owner.\r\n     */\r\n    constructor(\r\n        string memory email,\r\n        string memory pass,\r\n        uint256 Aadhar,\r\n        string memory area\r\n    ) {\r\n        require(bytes(area).length != 0, \"Please specify your area\");\r\n        chairperson = msg.sender;\r\n        chair_email = stringToBytes32(email);\r\n        chair_pass = stringToBytes32(pass);\r\n        Voter memory sender;\r\n        sender.is_authorized = true;\r\n        sender.is_reg = true;\r\n        sender.area = stringToBytes32(area);\r\n        sender.Aadhar = Aadhar;\r\n        voters[msg.sender] = sender;\r\n        reg_voter_count_per_area[stringToBytes32(area)] += 1;\r\n        state = voting_state.reg;\r\n    }\r\n\r\n    // Modifiers\r\n\r\n    modifier Only_chairperson() {\r\n        require(\r\n            msg.sender == chairperson,\r\n            \"Only chairperson rights to add proposal\"\r\n        );\r\n        require(state == voting_state.reg, \"Registration is over\");\r\n        _;\r\n    }\r\n\r\n    modifier check_for_right(address voter) {\r\n        require(\r\n            msg.sender == chairperson,\r\n            \"Only chairperson can give right to vote.\"\r\n        );\r\n        require(\r\n            state == voting_state.validation,\r\n            \"Validation process has not been started\"\r\n        );\r\n        require(voters[voter].is_reg, \"voter is not register yet\");\r\n        require(!voters[voter].voted, \"The voter already voted.\");\r\n        require(!voters[voter].is_authorized,\"The voter is alredy authorized\");\r\n        _;\r\n    }\r\n\r\n    modifier check_status(\r\n        Voter memory voter,\r\n        bytes32 email,\r\n        uint256 Aadhar\r\n    ) {\r\n        require(state == voting_state.reg, \"Registration is Over\");\r\n        require(!email_validation[email], \"This Email is alredy present\");\r\n        require(\r\n            !Aadhar_validation[Aadhar],\r\n            \"This Adhar Number is alredy preset\"\r\n        );\r\n        require(!voter.is_reg, \"You have already registered\");\r\n        _;\r\n    }\r\n\r\n    modifier Only_auth_non_voted_voters(\r\n        bytes32 email,\r\n        uint256 Aadhar,\r\n        uint256 proposal\r\n    ) {\r\n        require(state == voting_state.voting, \"Voting stage is not start\");\r\n        require(\r\n            ((login_details[email].voter == msg.sender) ||\r\n                (chair_email == email && chairperson == msg.sender)),\r\n            \"we cann't validates your account\"\r\n        );\r\n        Voter memory sender = voters[msg.sender];\r\n        require(sender.is_reg, \"You are not register yet.\");\r\n        require(sender.is_authorized, \"Has no right to vote.\");\r\n        require(!sender.voted, \"Already voted.\");\r\n        require(\r\n            sender.Aadhar == Aadhar,\r\n            \"Aadhar Number miss match please enter registered Aadhar Number.\"\r\n        );\r\n        require(\r\n            area_proposal[sender.area].length != 0,\r\n            \"There is no proposal to vote.\"\r\n        );\r\n        require(\r\n            area_proposal[sender.area].length >= proposal,\r\n            \"You have choose worng proposal.\"\r\n        );\r\n        _;\r\n    }\r\n\r\n    //event\r\n    // event state_change(voting_state state);\r\n\r\n    // Functions\r\n\r\n    // This function is used by the chairperson only to add the Proposal\r\n    function addProposal(\r\n        string memory nme,\r\n        string memory prty,\r\n        string memory area\r\n    ) public Only_chairperson {\r\n        area_proposal[stringToBytes32(area)].push(\r\n            Proposal({\r\n                name: stringToBytes32(nme),\r\n                party: stringToBytes32(prty),\r\n                voteCount: 0\r\n            })\r\n        );\r\n    }\r\n\r\n    /**\r\n     * @dev Give 'voter' the right to vote on this ballot. May only be called by 'chairperson'.\r\n     * @param voter address of voter\r\n     */\r\n\r\n    function giveRightToVote(address voter) public check_for_right(voter) {\r\n        voters[voter].is_authorized = true;\r\n    }\r\n\r\n    // This function is used by the voter to register yourself\r\n    function voter_reg(\r\n        string memory email,\r\n        string memory pass,\r\n        uint256 Aadhar,\r\n        string memory ara\r\n    ) public check_status(voters[msg.sender], stringToBytes32(email), Aadhar) {\r\n        voters[msg.sender] = Voter({\r\n            is_reg: true,\r\n            is_authorized: false,\r\n            voted: false,\r\n            vote: 0,\r\n            area: stringToBytes32(ara),\r\n            Aadhar: Aadhar\r\n        });\r\n        reg_voter_count_per_area[stringToBytes32(ara)] += 1;\r\n        bytes32 em = stringToBytes32(email);\r\n        email_validation[em] = true;\r\n        Aadhar_validation[Aadhar] = true;\r\n        voter_address.push(msg.sender);\r\n        Voter_login_details memory vrdt;\r\n        vrdt.pass = stringToBytes32(pass);\r\n        vrdt.voter = msg.sender;\r\n        login_details[em] = vrdt;\r\n    }\r\n\r\n    /**\r\n     * @dev Give your vote (including votes delegated to you) to proposal 'proposals[proposal].name'.\r\n     * @param proposal index of proposal in the proposals array\r\n     */\r\n\r\n    function vote(\r\n        string memory email,\r\n        uint256 Aadhar,\r\n        uint256 proposal\r\n    )\r\n        public\r\n        Only_auth_non_voted_voters(stringToBytes32(email), Aadhar, proposal)\r\n    {\r\n        Voter memory sender = voters[msg.sender];\r\n        sender.voted = true;\r\n        sender.vote = proposal;\r\n        Proposal memory p = area_proposal[sender.area][proposal];\r\n        p.voteCount += 1;\r\n        area_proposal[sender.area][proposal] = p;\r\n        voters[msg.sender] = sender;\r\n        vote_count_per_area[sender.area] += 1;\r\n        winner_in_area memory w = winner_per_area[sender.area];\r\n        if (w.voteCount < p.voteCount) {\r\n            w.name = p.name;\r\n            w.voteCount = p.voteCount;\r\n            winner_per_area[sender.area] = w;\r\n        }\r\n    }\r\n\r\n    /**\r\n     * @return winnerName_ the name of the winner\r\n     */\r\n    function winnerNME_Vcount(string memory area)\r\n        public\r\n        view\r\n        returns (string memory, uint256)\r\n    {\r\n        require(state == voting_state.close, \"Voting process not close\");\r\n        winner_in_area memory w = winner_per_area[stringToBytes32(area)];\r\n        return (bytes32ToString(w.name), w.voteCount);\r\n    }\r\n\r\n    function changeState() public {\r\n        require(\r\n            msg.sender == chairperson,\r\n            \"Only Chairperson can change the state\"\r\n        );\r\n        if (state == voting_state.reg) {\r\n            state = voting_state.validation;\r\n        } else if (state == voting_state.validation) {\r\n            state = voting_state.voting;\r\n        } else {\r\n            state = voting_state.close;\r\n        }\r\n    }\r\n\r\n    function changeChairperson(\r\n        string memory newEmail,\r\n        string memory newPass,\r\n        address newChairperson\r\n    ) public {\r\n        require(\r\n            msg.sender == chairperson,\r\n            \"Only Chairperson can assign new Chairperson\"\r\n        );\r\n        chairperson = newChairperson;\r\n        chair_email = stringToBytes32(newEmail);\r\n        chair_pass = stringToBytes32(newPass);\r\n    }\r\n\r\n    function check_state() public view returns (voting_state st) {\r\n        return state;\r\n    }\r\n\r\n    function vote_count(string memory area) public view returns (uint256) {\r\n        return vote_count_per_area[stringToBytes32(area)];\r\n    }\r\n\r\n    function voter_count(string memory area) public view returns (uint256) {\r\n        return reg_voter_count_per_area[stringToBytes32(area)];\r\n    }\r\n\r\n    function voterLogin(string memory email, string memory pass)\r\n        public\r\n        view\r\n        returns (\r\n            bool status,\r\n            uint256 Aadhar,\r\n            string memory area\r\n        )\r\n    {\r\n        Voter_login_details memory v_details = login_details[\r\n            stringToBytes32(email)\r\n        ];\r\n        Voter memory voter = voters[v_details.voter];\r\n        if (v_details.pass == stringToBytes32(pass))\r\n            return (true, voter.Aadhar, bytes32ToString(voter.area));\r\n        else return (false, 0, \"\");\r\n    }\r\n\r\n    function unauth_voters() public view returns (address[] memory address_list,Voter[] memory voter_detils) {\r\n        require(\r\n            msg.sender == chairperson,\r\n            \"Only Chair person have right to call this function\"\r\n        );\r\n        address_list = new address[](voter_address.length);\r\n        voter_detils = new Voter[](voter_address.length);\r\n        for(uint i=0;i<voter_address.length;i++){\r\n            address_list[i] = voter_address[i];\r\n            voter_detils[i] = voters[voter_address[i]];\r\n        }\r\n    }\r\n\r\n    function chair_login(string memory email, string memory pass)\r\n        private\r\n        view\r\n        returns (bool)\r\n    {\r\n        return\r\n            chair_email == stringToBytes32(email) &&\r\n            chair_pass == stringToBytes32(pass);\r\n    }\r\n\r\n    function getProposal(string memory area)\r\n        public\r\n        view\r\n        returns (Proposal[] memory)\r\n    {\r\n        return area_proposal[stringToBytes32(area)];\r\n    }\r\n\r\n    function stringToBytes32(string memory source)\r\n        private\r\n        pure\r\n        returns (bytes32 result)\r\n    {\r\n        bytes memory tempEmptyStringTest = bytes(source);\r\n        if (tempEmptyStringTest.length == 0) {\r\n            return 0x0;\r\n        }\r\n\r\n        assembly {\r\n            result := mload(add(source, 32))\r\n        }\r\n    }\r\n\r\n    function bytes32ToString(bytes32 _bytes32)\r\n        private\r\n        pure\r\n        returns (string memory)\r\n    {\r\n        uint8 i = 0;\r\n        while (i < 32 && _bytes32[i] != 0) {\r\n            i++;\r\n        }\r\n        bytes memory bytesArray = new bytes(i);\r\n        for (i = 0; i < 32 && _bytes32[i] != 0; i++) {\r\n            bytesArray[i] = _bytes32[i];\r\n        }\r\n        return string(bytesArray);\r\n    }\r\n}\r\n",
  "sourcePath": "C:/Users/Bismay Kumar Rana/Desktop/Block chain dev/contracts/E_voting_system.sol",
  "compiler": {
    "name": "solc",
    "version": "0.8.4+commit.c7e474f2.Emscripten.clang"
  },
  "schemaVersion": "3.3.4",
  "updatedAt": "2022-06-21T19:08:50.258Z",
  "networkType": "ethereum",
  "devdoc": {
    "details": "Implements voting process along with vote delegation",
    "kind": "dev",
    "methods": {
      "constructor": {
        "details": "constructor create an owner an set the right to vote for the owner."
      },
      "giveRightToVote(address)": {
        "details": "Give 'voter' the right to vote on this ballot. May only be called by 'chairperson'.",
        "params": {
          "voter": "address of voter"
        }
      },
      "vote(string,uint256,uint256)": {
        "details": "Give your vote (including votes delegated to you) to proposal 'proposals[proposal].name'.",
        "params": {
          "proposal": "index of proposal in the proposals array"
        }
      },
      "winnerNME_Vcount(string)": {
        "returns": {
          "_0": "winnerName_ the name of the winner"
        }
      }
    },
    "title": "Ballot",
    "version": 1
  },
  "userdoc": {
    "kind": "user",
    "methods": {},
    "version": 1
  }
}