{
  "contractName": "E_voting_system",
  "abi": [
    {
      "inputs": [
        {
          "internalType": "string",
          "name": "email",
          "type": "string"
        },
        {
          "internalType": "string",
          "name": "pass",
          "type": "string"
        },
        {
          "internalType": "uint256",
          "name": "Aadhar",
          "type": "uint256"
        },
        {
          "internalType": "string",
          "name": "area",
          "type": "string"
        }
      ],
      "stateMutability": "nonpayable",
      "type": "constructor"
    },
    {
      "inputs": [
        {
          "internalType": "bytes32",
          "name": "",
          "type": "bytes32"
        },
        {
          "internalType": "uint256",
          "name": "",
          "type": "uint256"
        }
      ],
      "name": "area_proposal",
      "outputs": [
        {
          "internalType": "bytes32",
          "name": "name",
          "type": "bytes32"
        },
        {
          "internalType": "bytes32",
          "name": "party",
          "type": "bytes32"
        },
        {
          "internalType": "uint256",
          "name": "voteCount",
          "type": "uint256"
        }
      ],
      "stateMutability": "view",
      "type": "function",
      "constant": true
    },
    {
      "inputs": [
        {
          "internalType": "string",
          "name": "nme",
          "type": "string"
        },
        {
          "internalType": "string",
          "name": "prty",
          "type": "string"
        },
        {
          "internalType": "string",
          "name": "area",
          "type": "string"
        }
      ],
      "name": "addProposal",
      "outputs": [],
      "stateMutability": "nonpayable",
      "type": "function"
    },
    {
      "inputs": [
        {
          "internalType": "address",
          "name": "voter",
          "type": "address"
        }
      ],
      "name": "giveRightToVote",
      "outputs": [],
      "stateMutability": "nonpayable",
      "type": "function"
    },
    {
      "inputs": [
        {
          "internalType": "string",
          "name": "email",
          "type": "string"
        },
        {
          "internalType": "string",
          "name": "pass",
          "type": "string"
        },
        {
          "internalType": "uint256",
          "name": "Aadhar",
          "type": "uint256"
        },
        {
          "internalType": "string",
          "name": "ara",
          "type": "string"
        }
      ],
      "name": "voter_reg",
      "outputs": [],
      "stateMutability": "nonpayable",
      "type": "function"
    },
    {
      "inputs": [
        {
          "internalType": "string",
          "name": "email",
          "type": "string"
        },
        {
          "internalType": "uint256",
          "name": "Aadhar",
          "type": "uint256"
        },
        {
          "internalType": "uint256",
          "name": "proposal",
          "type": "uint256"
        }
      ],
      "name": "vote",
      "outputs": [],
      "stateMutability": "nonpayable",
      "type": "function"
    },
    {
      "inputs": [
        {
          "internalType": "string",
          "name": "area",
          "type": "string"
        }
      ],
      "name": "winnerNME_Vcount",
      "outputs": [
        {
          "internalType": "string",
          "name": "",
          "type": "string"
        },
        {
          "internalType": "uint256",
          "name": "",
          "type": "uint256"
        }
      ],
      "stateMutability": "view",
      "type": "function",
      "constant": true
    },
    {
      "inputs": [],
      "name": "changeState",
      "outputs": [],
      "stateMutability": "nonpayable",
      "type": "function"
    },
    {
      "inputs": [
        {
          "internalType": "string",
          "name": "newEmail",
          "type": "string"
        },
        {
          "internalType": "string",
          "name": "newPass",
          "type": "string"
        },
        {
          "internalType": "address",
          "name": "newChairperson",
          "type": "address"
        }
      ],
      "name": "changeChairperson",
      "outputs": [],
      "stateMutability": "nonpayable",
      "type": "function"
    },
    {
      "inputs": [],
      "name": "check_state",
      "outputs": [
        {
          "internalType": "enum E_voting_system.voting_state",
          "name": "st",
          "type": "uint8"
        }
      ],
      "stateMutability": "view",
      "type": "function",
      "constant": true
    },
    {
      "inputs": [
        {
          "internalType": "string",
          "name": "area",
          "type": "string"
        }
      ],
      "name": "vote_count",
      "outputs": [
        {
          "internalType": "uint256",
          "name": "",
          "type": "uint256"
        }
      ],
      "stateMutability": "view",
      "type": "function",
      "constant": true
    },
    {
      "inputs": [
        {
          "internalType": "string",
          "name": "area",
          "type": "string"
        }
      ],
      "name": "voter_count",
      "outputs": [
        {
          "internalType": "uint256",
          "name": "",
          "type": "uint256"
        }
      ],
      "stateMutability": "view",
      "type": "function",
      "constant": true
    },
    {
      "inputs": [
        {
          "internalType": "string",
          "name": "email",
          "type": "string"
        },
        {
          "internalType": "string",
          "name": "pass",
          "type": "string"
        }
      ],
      "name": "voterLogin",
      "outputs": [
        {
          "internalType": "bool",
          "name": "status",
          "type": "bool"
        },
        {
          "internalType": "uint256",
          "name": "Aadhar",
          "type": "uint256"
        },
        {
          "internalType": "string",
          "name": "area",
          "type": "string"
        }
      ],
      "stateMutability": "view",
      "type": "function",
      "constant": true
    },
    {
      "inputs": [],
      "name": "unreg_voters",
      "outputs": [
        {
          "internalType": "address[]",
          "name": "",
          "type": "address[]"
        }
      ],
      "stateMutability": "view",
      "type": "function",
      "constant": true
    }
  ],
  "bytecode": "0x60806040523480156200001157600080fd5b5060405162003a8838038062003a8883398181016040528101906200003791906200038c565b6000815114156200007f576040517f08c379a000000000000000000000000000000000000000000000000000000000815260040162000076906200046a565b60405180910390fd5b336000806101000a81548173ffffffffffffffffffffffffffffffffffffffff021916908373ffffffffffffffffffffffffffffffffffffffff160217905550620000d0846200029860201b60201c565b600281905550620000e7836200029860201b60201c565b600181905550620000f7620002c4565b600181602001901515908115158152505060018160000190151590811515815250506200012a826200029860201b60201c565b816080018181525050828160a001818152505080600560003373ffffffffffffffffffffffffffffffffffffffff1673ffffffffffffffffffffffffffffffffffffffff16815260200190815260200160002060008201518160000160006101000a81548160ff02191690831515021790555060208201518160000160016101000a81548160ff02191690831515021790555060408201518160000160026101000a81548160ff021916908315150217905550606082015181600101556080820151816002015560a0820151816003015590505060016007600062000215856200029860201b60201c565b81526020019081526020016000206000828254620002349190620004fc565b925050819055506000600360006101000a81548160ff0219169083600381111562000288577f4e487b7100000000000000000000000000000000000000000000000000000000600052602160045260246000fd5b0217905550505050505062000681565b600080829050600081511415620002b6576000801b915050620002bf565b60208301519150505b919050565b6040518060c001604052806000151581526020016000151581526020016000151581526020016000815260200160008019168152602001600081525090565b60006200031a6200031484620004b5565b6200048c565b9050828152602081018484840111156200033357600080fd5b6200034084828562000563565b509392505050565b600082601f8301126200035a57600080fd5b81516200036c84826020860162000303565b91505092915050565b600081519050620003868162000667565b92915050565b60008060008060808587031215620003a357600080fd5b600085015167ffffffffffffffff811115620003be57600080fd5b620003cc8782880162000348565b945050602085015167ffffffffffffffff811115620003ea57600080fd5b620003f88782880162000348565b93505060406200040b8782880162000375565b925050606085015167ffffffffffffffff8111156200042957600080fd5b620004378782880162000348565b91505092959194509250565b600062000452601883620004eb565b91506200045f826200063e565b602082019050919050565b60006020820190508181036000830152620004858162000443565b9050919050565b600062000498620004ab565b9050620004a6828262000599565b919050565b6000604051905090565b600067ffffffffffffffff821115620004d357620004d2620005fe565b5b620004de826200062d565b9050602081019050919050565b600082825260208201905092915050565b6000620005098262000559565b9150620005168362000559565b9250827fffffffffffffffffffffffffffffffffffffffffffffffffffffffffffffffff038211156200054e576200054d620005cf565b5b828201905092915050565b6000819050919050565b60005b838110156200058357808201518184015260208101905062000566565b8381111562000593576000848401525b50505050565b620005a4826200062d565b810181811067ffffffffffffffff82111715620005c657620005c5620005fe565b5b80604052505050565b7f4e487b7100000000000000000000000000000000000000000000000000000000600052601160045260246000fd5b7f4e487b7100000000000000000000000000000000000000000000000000000000600052604160045260246000fd5b6000601f19601f8301169050919050565b7f506c65617365207370656369667920796f757220617265610000000000000000600082015250565b620006728162000559565b81146200067e57600080fd5b50565b6133f780620006916000396000f3fe608060405234801561001057600080fd5b50600436106100cf5760003560e01c80639e7b8d611161008c578063b38b25ad11610066578063b38b25ad146101ee578063ceff34c21461021e578063cf99cd1e1461024f578063dc703cf21461027f576100cf565b80639e7b8d6114610198578063a8e15990146101b4578063afd710b6146101d0576100cf565b80630891d358146100d45780634512e908146100f057806348a8f0101461010c57806362845caa1461013e5780638412e6671461015c57806399cab9da14610166575b600080fd5b6100ee60048036038101906100e99190612366565b61029b565b005b61010a600480360381019061010591906121a5565b610a87565b005b610126600480360381019061012191906120bc565b610b78565b6040516101359392919061284c565b60405180910390f35b610146610bbf565b6040516101539190612883565b60405180910390f35b610164610bd6565b005b610180600480360381019061017b9190612139565b610e74565b60405161018f9392919061280e565b60405180910390f35b6101b260048036038101906101ad9190612093565b61101c565b005b6101ce60048036038101906101c99190612224565b611381565b005b6101d8611566565b6040516101e591906127ec565b60405180910390f35b610208600480360381019061020391906120f8565b611682565b6040516102159190612bae565b60405180910390f35b610238600480360381019061023391906120f8565b6116a7565b60405161024692919061289e565b60405180910390f35b610269600480360381019061026491906120f8565b6117c6565b6040516102769190612bae565b60405180910390f35b610299600480360381019061029491906122bb565b6117eb565b005b6102a483611d36565b8282600260038111156102e0577f4e487b7100000000000000000000000000000000000000000000000000000000600052602160045260246000fd5b600360009054906101000a900460ff166003811115610328577f4e487b7100000000000000000000000000000000000000000000000000000000600052602160045260246000fd5b14610368576040517f08c379a000000000000000000000000000000000000000000000000000000000815260040161035f9061298e565b60405180910390fd5b3373ffffffffffffffffffffffffffffffffffffffff16600c600085815260200190815260200160002060010160009054906101000a900473ffffffffffffffffffffffffffffffffffffffff1673ffffffffffffffffffffffffffffffffffffffff16148061043057508260025414801561042f57503373ffffffffffffffffffffffffffffffffffffffff1660008054906101000a900473ffffffffffffffffffffffffffffffffffffffff1673ffffffffffffffffffffffffffffffffffffffff16145b5b61046f576040517f08c379a000000000000000000000000000000000000000000000000000000000815260040161046690612ace565b60405180910390fd5b6000600560003373ffffffffffffffffffffffffffffffffffffffff1673ffffffffffffffffffffffffffffffffffffffff1681526020019081526020016000206040518060c00160405290816000820160009054906101000a900460ff161515151581526020016000820160019054906101000a900460ff161515151581526020016000820160029054906101000a900460ff16151515158152602001600182015481526020016002820154815260200160038201548152505090508060000151610570576040517f08c379a0000000000000000000000000000000000000000000000000000000008152600401610567906129ce565b60405180910390fd5b80602001516105b4576040517f08c379a00000000000000000000000000000000000000000000000000000000081526004016105ab90612b2e565b60405180910390fd5b8060400151156105f9576040517f08c379a00000000000000000000000000000000000000000000000000000000081526004016105f0906129ee565b60405180910390fd5b828160a001511461063f576040517f08c379a00000000000000000000000000000000000000000000000000000000081526004016106369061292e565b60405180910390fd5b6000600660008360800151815260200190815260200160002080549050141561069d576040517f08c379a000000000000000000000000000000000000000000000000000000000815260040161069490612aee565b60405180910390fd5b8160066000836080015181526020019081526020016000208054905010156106fa576040517f08c379a00000000000000000000000000000000000000000000000000000000081526004016106f190612a6e565b60405180910390fd5b6000600560003373ffffffffffffffffffffffffffffffffffffffff1673ffffffffffffffffffffffffffffffffffffffff1681526020019081526020016000206040518060c00160405290816000820160009054906101000a900460ff161515151581526020016000820160019054906101000a900460ff161515151581526020016000820160029054906101000a900460ff1615151515815260200160018201548152602001600282015481526020016003820154815250509050600181604001901515908115158152505085816060018181525050600060066000836080015181526020019081526020016000208781548110610823577f4e487b7100000000000000000000000000000000000000000000000000000000600052603260045260246000fd5b90600052602060002090600302016040518060600160405290816000820154815260200160018201548152602001600282015481525050905060018160400181815161086f9190612c74565b9150818152505080600660008460800151815260200190815260200160002088815481106108c6577f4e487b7100000000000000000000000000000000000000000000000000000000600052603260045260246000fd5b906000526020600020906003020160008201518160000155602082015181600101556040820151816002015590505081600560003373ffffffffffffffffffffffffffffffffffffffff1673ffffffffffffffffffffffffffffffffffffffff16815260200190815260200160002060008201518160000160006101000a81548160ff02191690831515021790555060208201518160000160016101000a81548160ff02191690831515021790555060408201518160000160026101000a81548160ff021916908315150217905550606082015181600101556080820151816002015560a082015181600301559050506001600860008460800151815260200190815260200160002060008282546109de9190612c74565b9250508190555060006009600084608001518152602001908152602001600020604051806040016040529081600082015481526020016001820154815250509050816040015181602001511015610a7b578160000151816000018181525050816040015181602001818152505080600960008560800151815260200190815260200160002060008201518160000155602082015181600101559050505b50505050505050505050565b60008054906101000a900473ffffffffffffffffffffffffffffffffffffffff1673ffffffffffffffffffffffffffffffffffffffff163373ffffffffffffffffffffffffffffffffffffffff1614610b15576040517f08c379a0000000000000000000000000000000000000000000000000000000008152600401610b0c90612a2e565b60405180910390fd5b806000806101000a81548173ffffffffffffffffffffffffffffffffffffffff021916908373ffffffffffffffffffffffffffffffffffffffff160217905550610b5e83611d36565b600281905550610b6d82611d36565b600181905550505050565b60066020528160005260406000208181548110610b9457600080fd5b9060005260206000209060030201600091509150508060000154908060010154908060020154905083565b6000600360009054906101000a900460ff16905090565b60008054906101000a900473ffffffffffffffffffffffffffffffffffffffff1673ffffffffffffffffffffffffffffffffffffffff163373ffffffffffffffffffffffffffffffffffffffff1614610c64576040517f08c379a0000000000000000000000000000000000000000000000000000000008152600401610c5b90612b0e565b60405180910390fd5b60006003811115610c9e577f4e487b7100000000000000000000000000000000000000000000000000000000600052602160045260246000fd5b600360009054906101000a900460ff166003811115610ce6577f4e487b7100000000000000000000000000000000000000000000000000000000600052602160045260246000fd5b1415610d42576001600360006101000a81548160ff02191690836003811115610d38577f4e487b7100000000000000000000000000000000000000000000000000000000600052602160045260246000fd5b0217905550610e72565b60016003811115610d7c577f4e487b7100000000000000000000000000000000000000000000000000000000600052602160045260246000fd5b600360009054906101000a900460ff166003811115610dc4577f4e487b7100000000000000000000000000000000000000000000000000000000600052602160045260246000fd5b1415610e20576002600360006101000a81548160ff02191690836003811115610e16577f4e487b7100000000000000000000000000000000000000000000000000000000600052602160045260246000fd5b0217905550610e71565b60038060006101000a81548160ff02191690836003811115610e6b577f4e487b7100000000000000000000000000000000000000000000000000000000600052602160045260246000fd5b02179055505b5b565b60008060606000600c6000610e8888611d36565b8152602001908152602001600020604051806040016040529081600082015481526020016001820160009054906101000a900473ffffffffffffffffffffffffffffffffffffffff1673ffffffffffffffffffffffffffffffffffffffff1673ffffffffffffffffffffffffffffffffffffffff16815250509050600060056000836020015173ffffffffffffffffffffffffffffffffffffffff1673ffffffffffffffffffffffffffffffffffffffff1681526020019081526020016000206040518060c00160405290816000820160009054906101000a900460ff161515151581526020016000820160019054906101000a900460ff161515151581526020016000820160029054906101000a900460ff1615151515815260200160018201548152602001600282015481526020016003820154815250509050610fcd86611d36565b82600001511415610ff95760018160a00151610fec8360800151611d60565b9450945094505050611015565b6000806040518060200160405280600081525094509450945050505b9250925092565b8060008054906101000a900473ffffffffffffffffffffffffffffffffffffffff1673ffffffffffffffffffffffffffffffffffffffff163373ffffffffffffffffffffffffffffffffffffffff16146110ab576040517f08c379a00000000000000000000000000000000000000000000000000000000081526004016110a290612a4e565b60405180910390fd5b600160038111156110e5577f4e487b7100000000000000000000000000000000000000000000000000000000600052602160045260246000fd5b600360009054906101000a900460ff16600381111561112d577f4e487b7100000000000000000000000000000000000000000000000000000000600052602160045260246000fd5b1461116d576040517f08c379a0000000000000000000000000000000000000000000000000000000008152600401611164906128ee565b60405180910390fd5b600560008273ffffffffffffffffffffffffffffffffffffffff1673ffffffffffffffffffffffffffffffffffffffff16815260200190815260200160002060000160009054906101000a900460ff166111fc576040517f08c379a00000000000000000000000000000000000000000000000000000000081526004016111f39061290e565b60405180910390fd5b600560008273ffffffffffffffffffffffffffffffffffffffff1673ffffffffffffffffffffffffffffffffffffffff16815260200190815260200160002060000160029054906101000a900460ff161561128c576040517f08c379a000000000000000000000000000000000000000000000000000000000815260040161128390612b6e565b60405180910390fd5b60001515600560008373ffffffffffffffffffffffffffffffffffffffff1673ffffffffffffffffffffffffffffffffffffffff16815260200190815260200160002060000160019054906101000a900460ff16151514611322576040517f08c379a0000000000000000000000000000000000000000000000000000000008152600401611319906129ae565b60405180910390fd5b6001600560008473ffffffffffffffffffffffffffffffffffffffff1673ffffffffffffffffffffffffffffffffffffffff16815260200190815260200160002060000160016101000a81548160ff0219169083151502179055505050565b60008054906101000a900473ffffffffffffffffffffffffffffffffffffffff1673ffffffffffffffffffffffffffffffffffffffff163373ffffffffffffffffffffffffffffffffffffffff161461140f576040517f08c379a000000000000000000000000000000000000000000000000000000000815260040161140690612a8e565b60405180910390fd5b60006003811115611449577f4e487b7100000000000000000000000000000000000000000000000000000000600052602160045260246000fd5b600360009054906101000a900460ff166003811115611491577f4e487b7100000000000000000000000000000000000000000000000000000000600052602160045260246000fd5b146114d1576040517f08c379a00000000000000000000000000000000000000000000000000000000081526004016114c890612b8e565b60405180910390fd5b600660006114de83611d36565b8152602001908152602001600020604051806060016040528061150086611d36565b815260200161150e85611d36565b8152602001600081525090806001815401808255809150506001900390600052602060002090600302016000909190919091506000820151816000015560208201518160010155604082015181600201555050505050565b606060008054906101000a900473ffffffffffffffffffffffffffffffffffffffff1673ffffffffffffffffffffffffffffffffffffffff163373ffffffffffffffffffffffffffffffffffffffff16146115f6576040517f08c379a00000000000000000000000000000000000000000000000000000000081526004016115ed90612a0e565b60405180910390fd5b600480548060200260200160405190810160405280929190818152602001828054801561167857602002820191906000526020600020905b8160009054906101000a900473ffffffffffffffffffffffffffffffffffffffff1673ffffffffffffffffffffffffffffffffffffffff168152602001906001019080831161162e575b5050505050905090565b60006007600061169184611d36565b8152602001908152602001600020549050919050565b606060006003808111156116e4577f4e487b7100000000000000000000000000000000000000000000000000000000600052602160045260246000fd5b600360009054906101000a900460ff16600381111561172c577f4e487b7100000000000000000000000000000000000000000000000000000000600052602160045260246000fd5b1461176c576040517f08c379a000000000000000000000000000000000000000000000000000000000815260040161176390612aae565b60405180910390fd5b60006009600061177b86611d36565b81526020019081526020016000206040518060400160405290816000820154815260200160018201548152505090506117b78160000151611d60565b81602001519250925050915091565b6000600860006117d584611d36565b8152602001908152602001600020549050919050565b600560003373ffffffffffffffffffffffffffffffffffffffff1673ffffffffffffffffffffffffffffffffffffffff1681526020019081526020016000206040518060c00160405290816000820160009054906101000a900460ff161515151581526020016000820160019054906101000a900460ff161515151581526020016000820160029054906101000a900460ff1615151515815260200160018201548152602001600282015481526020016003820154815250506118ad85611d36565b83600060038111156118e8577f4e487b7100000000000000000000000000000000000000000000000000000000600052602160045260246000fd5b600360009054906101000a900460ff166003811115611930577f4e487b7100000000000000000000000000000000000000000000000000000000600052602160045260246000fd5b14611970576040517f08c379a000000000000000000000000000000000000000000000000000000000815260040161196790612b4e565b60405180910390fd5b600a600083815260200190815260200160002060009054906101000a900460ff16156119d1576040517f08c379a00000000000000000000000000000000000000000000000000000000081526004016119c89061294e565b60405180910390fd5b600b600082815260200190815260200160002060009054906101000a900460ff1615611a32576040517f08c379a0000000000000000000000000000000000000000000000000000000008152600401611a29906128ce565b60405180910390fd5b826000015115611a77576040517f08c379a0000000000000000000000000000000000000000000000000000000008152600401611a6e9061296e565b60405180910390fd5b6040518060c0016040528060011515815260200160001515815260200160001515815260200160008152602001611aad86611d36565b815260200186815250600560003373ffffffffffffffffffffffffffffffffffffffff1673ffffffffffffffffffffffffffffffffffffffff16815260200190815260200160002060008201518160000160006101000a81548160ff02191690831515021790555060208201518160000160016101000a81548160ff02191690831515021790555060408201518160000160026101000a81548160ff021916908315150217905550606082015181600101556080820151816002015560a08201518160030155905050600160076000611b8587611d36565b81526020019081526020016000206000828254611ba29190612c74565b925050819055506000611bb488611d36565b90506001600a600083815260200190815260200160002060006101000a81548160ff0219169083151502179055506001600b600088815260200190815260200160002060006101000a81548160ff0219169083151502179055506004339080600181540180825580915050600190039060005260206000200160009091909190916101000a81548173ffffffffffffffffffffffffffffffffffffffff021916908373ffffffffffffffffffffffffffffffffffffffff160217905550611c79611fb9565b611c8288611d36565b81600001818152505033816020019073ffffffffffffffffffffffffffffffffffffffff16908173ffffffffffffffffffffffffffffffffffffffff168152505080600c60008481526020019081526020016000206000820151816000015560208201518160010160006101000a81548173ffffffffffffffffffffffffffffffffffffffff021916908373ffffffffffffffffffffffffffffffffffffffff160217905550905050505050505050505050565b600080829050600081511415611d52576000801b915050611d5b565b60208301519150505b919050565b606060005b60208160ff16108015611ddd5750600060f81b838260ff1660208110611db4577f4e487b7100000000000000000000000000000000000000000000000000000000600052603260045260246000fd5b1a60f81b7effffffffffffffffffffffffffffffffffffffffffffffffffffffffffffff191614155b15611df5578080611ded90612dc1565b915050611d65565b60008160ff1667ffffffffffffffff811115611e3a577f4e487b7100000000000000000000000000000000000000000000000000000000600052604160045260246000fd5b6040519080825280601f01601f191660200182016040528015611e6c5781602001600182028036833780820191505090505b509050600091505b60208260ff16108015611eec5750600060f81b848360ff1660208110611ec3577f4e487b7100000000000000000000000000000000000000000000000000000000600052603260045260246000fd5b1a60f81b7effffffffffffffffffffffffffffffffffffffffffffffffffffffffffffff191614155b15611faf57838260ff1660208110611f2d577f4e487b7100000000000000000000000000000000000000000000000000000000600052603260045260246000fd5b1a60f81b818360ff1681518110611f6d577f4e487b7100000000000000000000000000000000000000000000000000000000600052603260045260246000fd5b60200101907effffffffffffffffffffffffffffffffffffffffffffffffffffffffffffff1916908160001a9053508180611fa790612dc1565b925050611e74565b8092505050919050565b604051806040016040528060008019168152602001600073ffffffffffffffffffffffffffffffffffffffff1681525090565b6000611fff611ffa84612bee565b612bc9565b90508281526020810184848401111561201757600080fd5b612022848285612d4e565b509392505050565b6000813590506120398161337c565b92915050565b60008135905061204e81613393565b92915050565b600082601f83011261206557600080fd5b8135612075848260208601611fec565b91505092915050565b60008135905061208d816133aa565b92915050565b6000602082840312156120a557600080fd5b60006120b38482850161202a565b91505092915050565b600080604083850312156120cf57600080fd5b60006120dd8582860161203f565b92505060206120ee8582860161207e565b9150509250929050565b60006020828403121561210a57600080fd5b600082013567ffffffffffffffff81111561212457600080fd5b61213084828501612054565b91505092915050565b6000806040838503121561214c57600080fd5b600083013567ffffffffffffffff81111561216657600080fd5b61217285828601612054565b925050602083013567ffffffffffffffff81111561218f57600080fd5b61219b85828601612054565b9150509250929050565b6000806000606084860312156121ba57600080fd5b600084013567ffffffffffffffff8111156121d457600080fd5b6121e086828701612054565b935050602084013567ffffffffffffffff8111156121fd57600080fd5b61220986828701612054565b925050604061221a8682870161202a565b9150509250925092565b60008060006060848603121561223957600080fd5b600084013567ffffffffffffffff81111561225357600080fd5b61225f86828701612054565b935050602084013567ffffffffffffffff81111561227c57600080fd5b61228886828701612054565b925050604084013567ffffffffffffffff8111156122a557600080fd5b6122b186828701612054565b9150509250925092565b600080600080608085870312156122d157600080fd5b600085013567ffffffffffffffff8111156122eb57600080fd5b6122f787828801612054565b945050602085013567ffffffffffffffff81111561231457600080fd5b61232087828801612054565b93505060406123318782880161207e565b925050606085013567ffffffffffffffff81111561234e57600080fd5b61235a87828801612054565b91505092959194509250565b60008060006060848603121561237b57600080fd5b600084013567ffffffffffffffff81111561239557600080fd5b6123a186828701612054565b93505060206123b28682870161207e565b92505060406123c38682870161207e565b9150509250925092565b60006123d983836123e5565b60208301905092915050565b6123ee81612cca565b82525050565b60006123ff82612c2f565b6124098185612c52565b935061241483612c1f565b8060005b8381101561244557815161242c88826123cd565b975061243783612c45565b925050600181019050612418565b5085935050505092915050565b61245b81612cdc565b82525050565b61246a81612ce8565b82525050565b61247981612d3c565b82525050565b600061248a82612c3a565b6124948185612c63565b93506124a4818560208601612d5d565b6124ad81612e78565b840191505092915050565b60006124c5602283612c63565b91506124d082612e89565b604082019050919050565b60006124e8602783612c63565b91506124f382612ed8565b604082019050919050565b600061250b601983612c63565b915061251682612f27565b602082019050919050565b600061252e603f83612c63565b915061253982612f50565b604082019050919050565b6000612551601c83612c63565b915061255c82612f9f565b602082019050919050565b6000612574601b83612c63565b915061257f82612fc8565b602082019050919050565b6000612597601983612c63565b91506125a282612ff1565b602082019050919050565b60006125ba601e83612c63565b91506125c58261301a565b602082019050919050565b60006125dd601983612c63565b91506125e882613043565b602082019050919050565b6000612600600e83612c63565b915061260b8261306c565b602082019050919050565b6000612623603283612c63565b915061262e82613095565b604082019050919050565b6000612646602b83612c63565b9150612651826130e4565b604082019050919050565b6000612669602883612c63565b915061267482613133565b604082019050919050565b600061268c601f83612c63565b915061269782613182565b602082019050919050565b60006126af602783612c63565b91506126ba826131ab565b604082019050919050565b60006126d2601883612c63565b91506126dd826131fa565b602082019050919050565b60006126f5602083612c63565b915061270082613223565b602082019050919050565b6000612718601d83612c63565b91506127238261324c565b602082019050919050565b600061273b602583612c63565b915061274682613275565b604082019050919050565b600061275e601583612c63565b9150612769826132c4565b602082019050919050565b6000612781601483612c63565b915061278c826132ed565b602082019050919050565b60006127a4601883612c63565b91506127af82613316565b602082019050919050565b60006127c7601483612c63565b91506127d28261333f565b602082019050919050565b6127e681612d25565b82525050565b6000602082019050818103600083015261280681846123f4565b905092915050565b60006060820190506128236000830186612452565b61283060208301856127dd565b8181036040830152612842818461247f565b9050949350505050565b60006060820190506128616000830186612461565b61286e6020830185612461565b61287b60408301846127dd565b949350505050565b60006020820190506128986000830184612470565b92915050565b600060408201905081810360008301526128b8818561247f565b90506128c760208301846127dd565b9392505050565b600060208201905081810360008301526128e7816124b8565b9050919050565b60006020820190508181036000830152612907816124db565b9050919050565b60006020820190508181036000830152612927816124fe565b9050919050565b6000602082019050818103600083015261294781612521565b9050919050565b6000602082019050818103600083015261296781612544565b9050919050565b6000602082019050818103600083015261298781612567565b9050919050565b600060208201905081810360008301526129a78161258a565b9050919050565b600060208201905081810360008301526129c7816125ad565b9050919050565b600060208201905081810360008301526129e7816125d0565b9050919050565b60006020820190508181036000830152612a07816125f3565b9050919050565b60006020820190508181036000830152612a2781612616565b9050919050565b60006020820190508181036000830152612a4781612639565b9050919050565b60006020820190508181036000830152612a678161265c565b9050919050565b60006020820190508181036000830152612a878161267f565b9050919050565b60006020820190508181036000830152612aa7816126a2565b9050919050565b60006020820190508181036000830152612ac7816126c5565b9050919050565b60006020820190508181036000830152612ae7816126e8565b9050919050565b60006020820190508181036000830152612b078161270b565b9050919050565b60006020820190508181036000830152612b278161272e565b9050919050565b60006020820190508181036000830152612b4781612751565b9050919050565b60006020820190508181036000830152612b6781612774565b9050919050565b60006020820190508181036000830152612b8781612797565b9050919050565b60006020820190508181036000830152612ba7816127ba565b9050919050565b6000602082019050612bc360008301846127dd565b92915050565b6000612bd3612be4565b9050612bdf8282612d90565b919050565b6000604051905090565b600067ffffffffffffffff821115612c0957612c08612e49565b5b612c1282612e78565b9050602081019050919050565b6000819050602082019050919050565b600081519050919050565b600081519050919050565b6000602082019050919050565b600082825260208201905092915050565b600082825260208201905092915050565b6000612c7f82612d25565b9150612c8a83612d25565b9250827fffffffffffffffffffffffffffffffffffffffffffffffffffffffffffffffff03821115612cbf57612cbe612deb565b5b828201905092915050565b6000612cd582612d05565b9050919050565b60008115159050919050565b6000819050919050565b6000819050612d0082613368565b919050565b600073ffffffffffffffffffffffffffffffffffffffff82169050919050565b6000819050919050565b600060ff82169050919050565b6000612d4782612cf2565b9050919050565b82818337600083830152505050565b60005b83811015612d7b578082015181840152602081019050612d60565b83811115612d8a576000848401525b50505050565b612d9982612e78565b810181811067ffffffffffffffff82111715612db857612db7612e49565b5b80604052505050565b6000612dcc82612d2f565b915060ff821415612de057612ddf612deb565b5b600182019050919050565b7f4e487b7100000000000000000000000000000000000000000000000000000000600052601160045260246000fd5b7f4e487b7100000000000000000000000000000000000000000000000000000000600052602160045260246000fd5b7f4e487b7100000000000000000000000000000000000000000000000000000000600052604160045260246000fd5b6000601f19601f8301169050919050565b7f54686973204164686172204e756d62657220697320616c72656479207072657360008201527f6574000000000000000000000000000000000000000000000000000000000000602082015250565b7f56616c69646174696f6e2070726f6365737320686173206e6f74206265656e2060008201527f7374617274656400000000000000000000000000000000000000000000000000602082015250565b7f766f746572206973206e6f742072656769737465722079657400000000000000600082015250565b7f416164686172204e756d626572206d697373206d6174636820706c656173652060008201527f656e746572207265676973746572656420416164686172204e756d6265722e00602082015250565b7f5468697320456d61696c20697320616c726564792070726573656e7400000000600082015250565b7f596f75206861766520616c726561647920726567697374657265640000000000600082015250565b7f566f74696e67207374616765206973206e6f7420737461727400000000000000600082015250565b7f54686520766f74657220697320616c7265647920617574686f72697a65640000600082015250565b7f596f7520617265206e6f74207265676973746572207965742e00000000000000600082015250565b7f416c726561647920766f7465642e000000000000000000000000000000000000600082015250565b7f4f6e6c7920436861697220706572736f6e206861766520726967687420746f2060008201527f63616c6c20746869732066756e6374696f6e0000000000000000000000000000602082015250565b7f4f6e6c79204368616972706572736f6e2063616e2061737369676e206e65772060008201527f4368616972706572736f6e000000000000000000000000000000000000000000602082015250565b7f4f6e6c79206368616972706572736f6e2063616e20676976652072696768742060008201527f746f20766f74652e000000000000000000000000000000000000000000000000602082015250565b7f596f7520686176652063686f6f736520776f726e672070726f706f73616c2e00600082015250565b7f4f6e6c79206368616972706572736f6e2072696768747320746f20616464207060008201527f726f706f73616c00000000000000000000000000000000000000000000000000602082015250565b7f566f74696e672070726f63657373206e6f7420636c6f73650000000000000000600082015250565b7f77652063616e6e27742076616c69646174657320796f7572206163636f756e74600082015250565b7f5468657265206973206e6f2070726f706f73616c20746f20766f74652e000000600082015250565b7f4f6e6c79204368616972706572736f6e2063616e206368616e6765207468652060008201527f7374617465000000000000000000000000000000000000000000000000000000602082015250565b7f486173206e6f20726967687420746f20766f74652e0000000000000000000000600082015250565b7f526567697374726174696f6e206973204f766572000000000000000000000000600082015250565b7f54686520766f74657220616c726561647920766f7465642e0000000000000000600082015250565b7f526567697374726174696f6e206973206f766572000000000000000000000000600082015250565b6004811061337957613378612e1a565b5b50565b61338581612cca565b811461339057600080fd5b50565b61339c81612ce8565b81146133a757600080fd5b50565b6133b381612d25565b81146133be57600080fd5b5056fea26469706673582212204df5c9dd96d706e792bbc33bef21c810173de2f123d75319532088eaf1b55a0a64736f6c63430008040033",
  "immutableReferences": {},
  "source": "// SPDX-License-Identifier: MIT\r\npragma solidity >=0.4.22 <0.9.0;\r\n\r\n/**\r\n * @title Ballot\r\n * @dev Implements voting process along with vote delegation\r\n */\r\ncontract E_voting_system {\r\n    //variable declaration\r\n\r\n    struct Voter_login_details {\r\n        bytes32 pass;\r\n        address voter;\r\n    }\r\n\r\n    struct Voter {\r\n        bool is_reg;\r\n        bool is_authorized; // is voter is authorize to vote\r\n        bool voted; // if true, that person already voted\r\n        uint256 vote; // index of the voted proposal\r\n        bytes32 area; // area of voter\r\n        uint256 Aadhar; //Aadhar card number\r\n    }\r\n\r\n    struct Proposal {\r\n        // If you can limit the length to a certain number of bytes,\r\n        // always use one of bytes1 to bytes32 because they are much cheaper\r\n        bytes32 name; // short name (up to 32 bytes)\r\n        bytes32 party;\r\n        uint256 voteCount; // number of accumulated votes\r\n    }\r\n    struct winner_in_area {\r\n        bytes32 name;\r\n        uint256 voteCount;\r\n    }\r\n\r\n    address private chairperson;\r\n    bytes32 private chair_pass;\r\n    bytes32 private chair_email;\r\n\r\n    enum voting_state {\r\n        reg,\r\n        validation,\r\n        voting,\r\n        close\r\n    }\r\n\r\n    voting_state private state;\r\n    address[] voter_address;\r\n    mapping(address => Voter) private voters;\r\n    mapping(bytes32 => Proposal[]) public area_proposal;\r\n    mapping(bytes32 => uint256) private reg_voter_count_per_area;\r\n    mapping(bytes32 => uint256) private vote_count_per_area;\r\n    mapping(bytes32 => winner_in_area) private winner_per_area;\r\n    mapping(bytes32 => bool) private email_validation;\r\n    mapping(uint256 => bool) private Aadhar_validation;\r\n    mapping(bytes32 => Voter_login_details) private login_details;\r\n\r\n    /**\r\n     * @dev constructor create an owner an set the right to vote for the owner.\r\n     */\r\n    constructor(\r\n        string memory email,\r\n        string memory pass,\r\n        uint256 Aadhar,\r\n        string memory area\r\n    ) {\r\n        require(bytes(area).length != 0, \"Please specify your area\");\r\n        chairperson = msg.sender;\r\n        chair_email = stringToBytes32(email);\r\n        chair_pass = stringToBytes32(pass);\r\n        Voter memory sender;\r\n        sender.is_authorized = true;\r\n        sender.is_reg = true;\r\n        sender.area = stringToBytes32(area);\r\n        sender.Aadhar = Aadhar;\r\n        voters[msg.sender] = sender;\r\n        reg_voter_count_per_area[stringToBytes32(area)] += 1;\r\n        state = voting_state.reg;\r\n    }\r\n\r\n    // Modifiers\r\n\r\n    modifier Only_chairperson() {\r\n        require(\r\n            msg.sender == chairperson,\r\n            \"Only chairperson rights to add proposal\"\r\n        );\r\n        require(state == voting_state.reg, \"Registration is over\");\r\n        _;\r\n    }\r\n\r\n    modifier check_for_right(address voter) {\r\n        require(\r\n            msg.sender == chairperson,\r\n            \"Only chairperson can give right to vote.\"\r\n        );\r\n        require(\r\n            state == voting_state.validation,\r\n            \"Validation process has not been started\"\r\n        );\r\n        require(voters[voter].is_reg, \"voter is not register yet\");\r\n        require(!voters[voter].voted, \"The voter already voted.\");\r\n        require(\r\n            voters[voter].is_authorized == false,\r\n            \"The voter is alredy authorized\"\r\n        );\r\n        _;\r\n    }\r\n\r\n    modifier check_status(\r\n        Voter memory voter,\r\n        bytes32 email,\r\n        uint256 Aadhar\r\n    ) {\r\n        require(state == voting_state.reg, \"Registration is Over\");\r\n        require(!email_validation[email], \"This Email is alredy present\");\r\n        require(\r\n            !Aadhar_validation[Aadhar],\r\n            \"This Adhar Number is alredy preset\"\r\n        );\r\n        require(!voter.is_reg, \"You have already registered\");\r\n        _;\r\n    }\r\n\r\n    modifier Only_auth_non_voted_voters(\r\n        bytes32 email,\r\n        uint256 Aadhar,\r\n        uint256 proposal\r\n    ) {\r\n        require(state == voting_state.voting, \"Voting stage is not start\");\r\n        require(\r\n            ((login_details[email].voter == msg.sender) ||\r\n                (chair_email == email && chairperson == msg.sender)),\r\n            \"we cann't validates your account\"\r\n        );\r\n        Voter memory sender = voters[msg.sender];\r\n        require(sender.is_reg, \"You are not register yet.\");\r\n        require(sender.is_authorized, \"Has no right to vote.\");\r\n        require(!sender.voted, \"Already voted.\");\r\n        require(\r\n            sender.Aadhar == Aadhar,\r\n            \"Aadhar Number miss match please enter registered Aadhar Number.\"\r\n        );\r\n        require(\r\n            area_proposal[sender.area].length != 0,\r\n            \"There is no proposal to vote.\"\r\n        );\r\n        require(\r\n            area_proposal[sender.area].length >= proposal,\r\n            \"You have choose worng proposal.\"\r\n        );\r\n        _;\r\n    }\r\n\r\n    //event\r\n    // event state_change(voting_state state);\r\n\r\n    // Functions\r\n\r\n    // This function is used by the chairperson only to add the Proposal\r\n    function addProposal(\r\n        string memory nme,\r\n        string memory prty,\r\n        string memory area\r\n    ) public Only_chairperson {\r\n        area_proposal[stringToBytes32(area)].push(\r\n            Proposal({\r\n                name: stringToBytes32(nme),\r\n                party: stringToBytes32(prty),\r\n                voteCount: 0\r\n            })\r\n        );\r\n    }\r\n\r\n    /**\r\n     * @dev Give 'voter' the right to vote on this ballot. May only be called by 'chairperson'.\r\n     * @param voter address of voter\r\n     */\r\n\r\n    function giveRightToVote(address voter) public check_for_right(voter) {\r\n        voters[voter].is_authorized = true;\r\n    }\r\n\r\n    // This function is used by the voter to register yourself\r\n    function voter_reg(\r\n        string memory email,\r\n        string memory pass,\r\n        uint256 Aadhar,\r\n        string memory ara\r\n    ) public check_status(voters[msg.sender], stringToBytes32(email), Aadhar) {\r\n        voters[msg.sender] = Voter({\r\n            is_reg: true,\r\n            is_authorized: false,\r\n            voted: false,\r\n            vote: 0,\r\n            area: stringToBytes32(ara),\r\n            Aadhar: Aadhar\r\n        });\r\n        reg_voter_count_per_area[stringToBytes32(ara)] += 1;\r\n        bytes32 em = stringToBytes32(email);\r\n        email_validation[em] = true;\r\n        Aadhar_validation[Aadhar] = true;\r\n        voter_address.push(msg.sender);\r\n        Voter_login_details memory vrdt;\r\n        vrdt.pass = stringToBytes32(pass);\r\n        vrdt.voter = msg.sender;\r\n        login_details[em] = vrdt;\r\n    }\r\n\r\n    /**\r\n     * @dev Give your vote (including votes delegated to you) to proposal 'proposals[proposal].name'.\r\n     * @param proposal index of proposal in the proposals array\r\n     */\r\n\r\n    function vote(\r\n        string memory email,\r\n        uint256 Aadhar,\r\n        uint256 proposal\r\n    )\r\n        public\r\n        Only_auth_non_voted_voters(stringToBytes32(email), Aadhar, proposal)\r\n    {\r\n        Voter memory sender = voters[msg.sender];\r\n        sender.voted = true;\r\n        sender.vote = proposal;\r\n        Proposal memory p = area_proposal[sender.area][proposal];\r\n        p.voteCount += 1;\r\n        area_proposal[sender.area][proposal] = p;\r\n        voters[msg.sender] = sender;\r\n        vote_count_per_area[sender.area] += 1;\r\n        winner_in_area memory w = winner_per_area[sender.area];\r\n        if (w.voteCount < p.voteCount) {\r\n            w.name = p.name;\r\n            w.voteCount = p.voteCount;\r\n            winner_per_area[sender.area] = w;\r\n        }\r\n    }\r\n\r\n    /**\r\n     * @return winnerName_ the name of the winner\r\n     */\r\n    function winnerNME_Vcount(string memory area)\r\n        public\r\n        view\r\n        returns (string memory, uint256)\r\n    {\r\n        require(state == voting_state.close, \"Voting process not close\");\r\n        winner_in_area memory w = winner_per_area[stringToBytes32(area)];\r\n        return (bytes32ToString(w.name), w.voteCount);\r\n    }\r\n\r\n    function changeState() public {\r\n        require(\r\n            msg.sender == chairperson,\r\n            \"Only Chairperson can change the state\"\r\n        );\r\n        if (state == voting_state.reg) {\r\n            state = voting_state.validation;\r\n        } else if (state == voting_state.validation) {\r\n            state = voting_state.voting;\r\n        } else {\r\n            state = voting_state.close;\r\n        }\r\n    }\r\n\r\n    function changeChairperson(\r\n        string memory newEmail,\r\n        string memory newPass,\r\n        address newChairperson\r\n    ) public {\r\n        require(\r\n            msg.sender == chairperson,\r\n            \"Only Chairperson can assign new Chairperson\"\r\n        );\r\n        chairperson = newChairperson;\r\n        chair_email = stringToBytes32(newEmail);\r\n        chair_pass = stringToBytes32(newPass);\r\n    }\r\n\r\n    function check_state() public view returns (voting_state st) {\r\n        return state;\r\n    }\r\n\r\n    function vote_count(string memory area) public view returns (uint256) {\r\n        return vote_count_per_area[stringToBytes32(area)];\r\n    }\r\n\r\n    function voter_count(string memory area) public view returns (uint256) {\r\n        return reg_voter_count_per_area[stringToBytes32(area)];\r\n    }\r\n\r\n    function voterLogin(string memory email, string memory pass)\r\n        public\r\n        view\r\n        returns (\r\n            bool status,\r\n            uint256 Aadhar,\r\n            string memory area\r\n        )\r\n    {\r\n        Voter_login_details memory v_details = login_details[\r\n            stringToBytes32(email)\r\n        ];\r\n        Voter memory voter = voters[v_details.voter];\r\n        if (v_details.pass == stringToBytes32(pass))\r\n            return (true, voter.Aadhar, bytes32ToString(voter.area));\r\n        else return (false, 0, \"\");\r\n    }\r\n\r\n    function unreg_voters() public view returns (address[] memory) {\r\n        require(\r\n            msg.sender == chairperson,\r\n            \"Only Chair person have right to call this function\"\r\n        );\r\n        return voter_address;\r\n    }\r\n\r\n    function chair_login(string memory email, string memory pass)\r\n        private\r\n        view\r\n        returns (bool)\r\n    {\r\n        return\r\n            chair_email == stringToBytes32(email) &&\r\n            chair_pass == stringToBytes32(pass);\r\n    }\r\n\r\n    function stringToBytes32(string memory source)\r\n        private\r\n        pure\r\n        returns (bytes32 result)\r\n    {\r\n        bytes memory tempEmptyStringTest = bytes(source);\r\n        if (tempEmptyStringTest.length == 0) {\r\n            return 0x0;\r\n        }\r\n\r\n        assembly {\r\n            result := mload(add(source, 32))\r\n        }\r\n    }\r\n\r\n    function bytes32ToString(bytes32 _bytes32)\r\n        private\r\n        pure\r\n        returns (string memory)\r\n    {\r\n        uint8 i = 0;\r\n        while (i < 32 && _bytes32[i] != 0) {\r\n            i++;\r\n        }\r\n        bytes memory bytesArray = new bytes(i);\r\n        for (i = 0; i < 32 && _bytes32[i] != 0; i++) {\r\n            bytesArray[i] = _bytes32[i];\r\n        }\r\n        return string(bytesArray);\r\n    }\r\n}\r\n",
  "sourcePath": "C:/Users/Bismay Kumar Rana/Desktop/Block chain dev/contracts/E_voting_system.sol",
  "compiler": {
    "name": "solc",
    "version": "0.8.4+commit.c7e474f2.Emscripten.clang"
  },
  "schemaVersion": "3.3.4",
  "updatedAt": "2022-06-05T08:50:09.418Z",
  "networkType": "ethereum",
  "devdoc": {
    "details": "Implements voting process along with vote delegation",
    "kind": "dev",
    "methods": {
      "constructor": {
        "details": "constructor create an owner an set the right to vote for the owner."
      },
      "giveRightToVote(address)": {
        "details": "Give 'voter' the right to vote on this ballot. May only be called by 'chairperson'.",
        "params": {
          "voter": "address of voter"
        }
      },
      "vote(string,uint256,uint256)": {
        "details": "Give your vote (including votes delegated to you) to proposal 'proposals[proposal].name'.",
        "params": {
          "proposal": "index of proposal in the proposals array"
        }
      },
      "winnerNME_Vcount(string)": {
        "returns": {
          "_0": "winnerName_ the name of the winner"
        }
      }
    },
    "title": "Ballot",
    "version": 1
  },
  "userdoc": {
    "kind": "user",
    "methods": {},
    "version": 1
  }
}